{
	"Calculator.sol": {
		"Calculator": {
			"abi": [
				{
					"anonymous": false,
					"inputs": [
						{
							"indexed": false,
							"internalType": "uint256",
							"name": "num1",
							"type": "uint256"
						},
						{
							"indexed": false,
							"internalType": "uint256",
							"name": "num2",
							"type": "uint256"
						},
						{
							"indexed": false,
							"internalType": "uint256",
							"name": "result",
							"type": "uint256"
						}
					],
					"name": "Average",
					"type": "event"
				},
				{
					"anonymous": false,
					"inputs": [
						{
							"indexed": false,
							"internalType": "uint256",
							"name": "num1",
							"type": "uint256"
						},
						{
							"indexed": false,
							"internalType": "uint256",
							"name": "num2",
							"type": "uint256"
						},
						{
							"indexed": false,
							"internalType": "uint256",
							"name": "result",
							"type": "uint256"
						}
					],
					"name": "Division",
					"type": "event"
				},
				{
					"anonymous": false,
					"inputs": [
						{
							"indexed": false,
							"internalType": "uint256",
							"name": "num1",
							"type": "uint256"
						},
						{
							"indexed": false,
							"internalType": "uint256",
							"name": "num2",
							"type": "uint256"
						},
						{
							"indexed": false,
							"internalType": "uint256",
							"name": "result",
							"type": "uint256"
						}
					],
					"name": "Exponent",
					"type": "event"
				},
				{
					"anonymous": false,
					"inputs": [
						{
							"indexed": false,
							"internalType": "uint256",
							"name": "num1",
							"type": "uint256"
						},
						{
							"indexed": false,
							"internalType": "uint256",
							"name": "num2",
							"type": "uint256"
						},
						{
							"indexed": false,
							"internalType": "uint256",
							"name": "result",
							"type": "uint256"
						}
					],
					"name": "Maximum",
					"type": "event"
				},
				{
					"anonymous": false,
					"inputs": [
						{
							"indexed": false,
							"internalType": "uint256",
							"name": "num1",
							"type": "uint256"
						},
						{
							"indexed": false,
							"internalType": "uint256",
							"name": "num2",
							"type": "uint256"
						},
						{
							"indexed": false,
							"internalType": "uint256",
							"name": "result",
							"type": "uint256"
						}
					],
					"name": "Module",
					"type": "event"
				},
				{
					"anonymous": false,
					"inputs": [
						{
							"indexed": false,
							"internalType": "uint256",
							"name": "num1",
							"type": "uint256"
						},
						{
							"indexed": false,
							"internalType": "uint256",
							"name": "num2",
							"type": "uint256"
						},
						{
							"indexed": false,
							"internalType": "uint256",
							"name": "result",
							"type": "uint256"
						}
					],
					"name": "Multiplication",
					"type": "event"
				},
				{
					"anonymous": false,
					"inputs": [
						{
							"indexed": false,
							"internalType": "uint256",
							"name": "num1",
							"type": "uint256"
						},
						{
							"indexed": false,
							"internalType": "uint256",
							"name": "result",
							"type": "uint256"
						}
					],
					"name": "Sqrt",
					"type": "event"
				},
				{
					"anonymous": false,
					"inputs": [
						{
							"indexed": false,
							"internalType": "uint256",
							"name": "num1",
							"type": "uint256"
						},
						{
							"indexed": false,
							"internalType": "uint256",
							"name": "num2",
							"type": "uint256"
						},
						{
							"indexed": false,
							"internalType": "uint256",
							"name": "result",
							"type": "uint256"
						}
					],
					"name": "Substraction",
					"type": "event"
				},
				{
					"anonymous": false,
					"inputs": [
						{
							"indexed": false,
							"internalType": "uint256",
							"name": "num1",
							"type": "uint256"
						},
						{
							"indexed": false,
							"internalType": "uint256",
							"name": "num2",
							"type": "uint256"
						},
						{
							"indexed": false,
							"internalType": "uint256",
							"name": "result",
							"type": "uint256"
						}
					],
					"name": "Sum",
					"type": "event"
				},
				{
					"inputs": [
						{
							"internalType": "uint256",
							"name": "num1_",
							"type": "uint256"
						},
						{
							"internalType": "uint256",
							"name": "num2_",
							"type": "uint256"
						}
					],
					"name": "average",
					"outputs": [
						{
							"internalType": "uint256",
							"name": "result_",
							"type": "uint256"
						}
					],
					"stateMutability": "nonpayable",
					"type": "function"
				},
				{
					"inputs": [
						{
							"internalType": "uint256",
							"name": "num1_",
							"type": "uint256"
						},
						{
							"internalType": "uint256",
							"name": "num2_",
							"type": "uint256"
						}
					],
					"name": "division",
					"outputs": [
						{
							"internalType": "uint256",
							"name": "result_",
							"type": "uint256"
						}
					],
					"stateMutability": "nonpayable",
					"type": "function"
				},
				{
					"inputs": [
						{
							"internalType": "uint256",
							"name": "num1_",
							"type": "uint256"
						},
						{
							"internalType": "uint256",
							"name": "num2_",
							"type": "uint256"
						}
					],
					"name": "exponent",
					"outputs": [
						{
							"internalType": "uint256",
							"name": "result_",
							"type": "uint256"
						}
					],
					"stateMutability": "nonpayable",
					"type": "function"
				},
				{
					"inputs": [
						{
							"internalType": "uint256",
							"name": "num1_",
							"type": "uint256"
						},
						{
							"internalType": "uint256",
							"name": "num2_",
							"type": "uint256"
						}
					],
					"name": "maximum",
					"outputs": [
						{
							"internalType": "uint256",
							"name": "result_",
							"type": "uint256"
						}
					],
					"stateMutability": "nonpayable",
					"type": "function"
				},
				{
					"inputs": [
						{
							"internalType": "uint256",
							"name": "num1_",
							"type": "uint256"
						},
						{
							"internalType": "uint256",
							"name": "num2_",
							"type": "uint256"
						}
					],
					"name": "module",
					"outputs": [
						{
							"internalType": "uint256",
							"name": "result_",
							"type": "uint256"
						}
					],
					"stateMutability": "nonpayable",
					"type": "function"
				},
				{
					"inputs": [
						{
							"internalType": "uint256",
							"name": "num1_",
							"type": "uint256"
						}
					],
					"name": "multiplier",
					"outputs": [],
					"stateMutability": "nonpayable",
					"type": "function"
				},
				{
					"inputs": [
						{
							"internalType": "uint256",
							"name": "num1_",
							"type": "uint256"
						},
						{
							"internalType": "uint256",
							"name": "num2_",
							"type": "uint256"
						}
					],
					"name": "multiplier2",
					"outputs": [
						{
							"internalType": "uint256",
							"name": "result_",
							"type": "uint256"
						}
					],
					"stateMutability": "nonpayable",
					"type": "function"
				},
				{
					"inputs": [],
					"name": "result",
					"outputs": [
						{
							"internalType": "uint256",
							"name": "",
							"type": "uint256"
						}
					],
					"stateMutability": "view",
					"type": "function"
				},
				{
					"inputs": [
						{
							"internalType": "uint256",
							"name": "num1_",
							"type": "uint256"
						}
					],
					"name": "sqrt",
					"outputs": [
						{
							"internalType": "uint256",
							"name": "result_",
							"type": "uint256"
						}
					],
					"stateMutability": "nonpayable",
					"type": "function"
				},
				{
					"inputs": [
						{
							"internalType": "uint256",
							"name": "num1_",
							"type": "uint256"
						},
						{
							"internalType": "uint256",
							"name": "num2_",
							"type": "uint256"
						}
					],
					"name": "substraction",
					"outputs": [
						{
							"internalType": "uint256",
							"name": "result_",
							"type": "uint256"
						}
					],
					"stateMutability": "nonpayable",
					"type": "function"
				},
				{
					"inputs": [
						{
							"internalType": "int256",
							"name": "num1_",
							"type": "int256"
						},
						{
							"internalType": "int256",
							"name": "num2_",
							"type": "int256"
						}
					],
					"name": "substraction2",
					"outputs": [
						{
							"internalType": "int256",
							"name": "result_",
							"type": "int256"
						}
					],
					"stateMutability": "pure",
					"type": "function"
				},
				{
					"inputs": [
						{
							"internalType": "uint256",
							"name": "num1_",
							"type": "uint256"
						},
						{
							"internalType": "uint256",
							"name": "num2_",
							"type": "uint256"
						}
					],
					"name": "sum",
					"outputs": [
						{
							"internalType": "uint256",
							"name": "result_",
							"type": "uint256"
						}
					],
					"stateMutability": "nonpayable",
					"type": "function"
				}
			],
			"devdoc": {
				"kind": "dev",
				"methods": {},
				"version": 1
			},
			"evm": {
				"assembly": "    /* \"Calculator.sol\":125:4407  contract Calculator {... */\n  mstore(0x40, 0x80)\n    /* \"Calculator.sol\":207:208  1 */\n  0x01\n    /* \"Calculator.sol\":183:208  uint256 public result = 1 */\n  0x00\n  sstore\n    /* \"Calculator.sol\":125:4407  contract Calculator {... */\n  callvalue\n  dup1\n  iszero\n  tag_1\n  jumpi\n  0x00\n  dup1\n  revert\ntag_1:\n  pop\n  dataSize(sub_0)\n  dup1\n  dataOffset(sub_0)\n  0x00\n  codecopy\n  0x00\n  return\nstop\n\nsub_0: assembly {\n        /* \"Calculator.sol\":125:4407  contract Calculator {... */\n      mstore(0x40, 0x80)\n      callvalue\n      dup1\n      iszero\n      tag_1\n      jumpi\n      0x00\n      dup1\n      revert\n    tag_1:\n      pop\n      jumpi(tag_2, lt(calldatasize, 0x04))\n      shr(0xe0, calldataload(0x00))\n      dup1\n      0x677342ce\n      gt\n      tag_15\n      jumpi\n      dup1\n      0x677342ce\n      eq\n      tag_9\n      jumpi\n      dup1\n      0x834ba3a7\n      eq\n      tag_10\n      jumpi\n      dup1\n      0xcad0899b\n      eq\n      tag_11\n      jumpi\n      dup1\n      0xcba5477c\n      eq\n      tag_12\n      jumpi\n      dup1\n      0xcdeb3314\n      eq\n      tag_13\n      jumpi\n      dup1\n      0xe0068052\n      eq\n      tag_14\n      jumpi\n      jump(tag_2)\n    tag_15:\n      dup1\n      0x05e30f51\n      eq\n      tag_3\n      jumpi\n      dup1\n      0x2b7423ab\n      eq\n      tag_4\n      jumpi\n      dup1\n      0x2efad609\n      eq\n      tag_5\n      jumpi\n      dup1\n      0x2f8cd8b1\n      eq\n      tag_6\n      jumpi\n      dup1\n      0x49175e4b\n      eq\n      tag_7\n      jumpi\n      dup1\n      0x65372147\n      eq\n      tag_8\n      jumpi\n    tag_2:\n      0x00\n      dup1\n      revert\n        /* \"Calculator.sol\":1635:1751  function multiplier(uint256 num1_) public checkPositiveNumber(num1_){... */\n    tag_3:\n      tag_16\n      0x04\n      dup1\n      calldatasize\n      sub\n      dup2\n      add\n      swap1\n      tag_17\n      swap2\n      swap1\n      tag_18\n      jump\t// in\n    tag_17:\n      tag_19\n      jump\t// in\n    tag_16:\n      stop\n        /* \"Calculator.sol\":3100:3271  function average(uint256 num1_, uint256 num2_) public checkPositiveNumbers(num1_,num2_) returns(uint256 result_){... */\n    tag_4:\n      tag_20\n      0x04\n      dup1\n      calldatasize\n      sub\n      dup2\n      add\n      swap1\n      tag_21\n      swap2\n      swap1\n      tag_22\n      jump\t// in\n    tag_21:\n      tag_23\n      jump\t// in\n    tag_20:\n      mload(0x40)\n      tag_24\n      swap2\n      swap1\n      tag_25\n      jump\t// in\n    tag_24:\n      mload(0x40)\n      dup1\n      swap2\n      sub\n      swap1\n      return\n        /* \"Calculator.sol\":1472:1627  function substraction2(int256 num1_, int256 num2_) public pure returns(int256 result_){... */\n    tag_5:\n      tag_26\n      0x04\n      dup1\n      calldatasize\n      sub\n      dup2\n      add\n      swap1\n      tag_27\n      swap2\n      swap1\n      tag_28\n      jump\t// in\n    tag_27:\n      tag_29\n      jump\t// in\n    tag_26:\n      mload(0x40)\n      tag_30\n      swap2\n      swap1\n      tag_31\n      jump\t// in\n    tag_30:\n      mload(0x40)\n      dup1\n      swap2\n      sub\n      swap1\n      return\n        /* \"Calculator.sol\":2196:2472  function exponent(uint256 num1_, uint256 num2_) public checkPositiveNumbers(num1_,num2_) returns(uint256 result_){... */\n    tag_6:\n      tag_32\n      0x04\n      dup1\n      calldatasize\n      sub\n      dup2\n      add\n      swap1\n      tag_33\n      swap2\n      swap1\n      tag_22\n      jump\t// in\n    tag_33:\n      tag_34\n      jump\t// in\n    tag_32:\n      mload(0x40)\n      tag_35\n      swap2\n      swap1\n      tag_25\n      jump\t// in\n    tag_35:\n      mload(0x40)\n      dup1\n      swap2\n      sub\n      swap1\n      return\n        /* \"Calculator.sol\":2667:2868  function module(uint256 num1_, uint256 num2_) public checkPositiveNumbers(num1_,num2_) returns(uint256 result_){... */\n    tag_7:\n      tag_36\n      0x04\n      dup1\n      calldatasize\n      sub\n      dup2\n      add\n      swap1\n      tag_37\n      swap2\n      swap1\n      tag_22\n      jump\t// in\n    tag_37:\n      tag_38\n      jump\t// in\n    tag_36:\n      mload(0x40)\n      tag_39\n      swap2\n      swap1\n      tag_25\n      jump\t// in\n    tag_39:\n      mload(0x40)\n      dup1\n      swap2\n      sub\n      swap1\n      return\n        /* \"Calculator.sol\":183:208  uint256 public result = 1 */\n    tag_8:\n      tag_40\n      tag_41\n      jump\t// in\n    tag_40:\n      mload(0x40)\n      tag_42\n      swap2\n      swap1\n      tag_25\n      jump\t// in\n    tag_42:\n      mload(0x40)\n      dup1\n      swap2\n      sub\n      swap1\n      return\n        /* \"Calculator.sol\":2480:2652  function sqrt(uint256 num1_) public checkPositiveNumber(num1_) returns(uint256 result_){... */\n    tag_9:\n      tag_43\n      0x04\n      dup1\n      calldatasize\n      sub\n      dup2\n      add\n      swap1\n      tag_44\n      swap2\n      swap1\n      tag_18\n      jump\t// in\n    tag_44:\n      tag_45\n      jump\t// in\n    tag_43:\n      mload(0x40)\n      tag_46\n      swap2\n      swap1\n      tag_25\n      jump\t// in\n    tag_46:\n      mload(0x40)\n      dup1\n      swap2\n      sub\n      swap1\n      return\n        /* \"Calculator.sol\":1759:1975  function multiplier2(uint256 num1_, uint256 num2_) public checkPositiveNumbers(num1_,num2_) returns (uint256 result_){... */\n    tag_10:\n      tag_47\n      0x04\n      dup1\n      calldatasize\n      sub\n      dup2\n      add\n      swap1\n      tag_48\n      swap2\n      swap1\n      tag_22\n      jump\t// in\n    tag_48:\n      tag_49\n      jump\t// in\n    tag_47:\n      mload(0x40)\n      tag_50\n      swap2\n      swap1\n      tag_25\n      jump\t// in\n    tag_50:\n      mload(0x40)\n      dup1\n      swap2\n      sub\n      swap1\n      return\n        /* \"Calculator.sol\":1102:1259  function sum(uint256 num1_, uint256 num2_) public returns(uint256 result_){... */\n    tag_11:\n      tag_51\n      0x04\n      dup1\n      calldatasize\n      sub\n      dup2\n      add\n      swap1\n      tag_52\n      swap2\n      swap1\n      tag_22\n      jump\t// in\n    tag_52:\n      tag_53\n      jump\t// in\n    tag_51:\n      mload(0x40)\n      tag_54\n      swap2\n      swap1\n      tag_25\n      jump\t// in\n    tag_54:\n      mload(0x40)\n      dup1\n      swap2\n      sub\n      swap1\n      return\n        /* \"Calculator.sol\":2876:3092  function maximum(uint256 num1_, uint256 num2_) public checkPositiveNumbers(num1_,num2_) returns(uint256 result_){... */\n    tag_12:\n      tag_55\n      0x04\n      dup1\n      calldatasize\n      sub\n      dup2\n      add\n      swap1\n      tag_56\n      swap2\n      swap1\n      tag_22\n      jump\t// in\n    tag_56:\n      tag_57\n      jump\t// in\n    tag_55:\n      mload(0x40)\n      tag_58\n      swap2\n      swap1\n      tag_25\n      jump\t// in\n    tag_58:\n      mload(0x40)\n      dup1\n      swap2\n      sub\n      swap1\n      return\n        /* \"Calculator.sol\":1267:1464  function substraction(uint256 num1_, uint256 num2_) public  returns(uint256 result_){... */\n    tag_13:\n      tag_59\n      0x04\n      dup1\n      calldatasize\n      sub\n      dup2\n      add\n      swap1\n      tag_60\n      swap2\n      swap1\n      tag_22\n      jump\t// in\n    tag_60:\n      tag_61\n      jump\t// in\n    tag_59:\n      mload(0x40)\n      tag_62\n      swap2\n      swap1\n      tag_25\n      jump\t// in\n    tag_62:\n      mload(0x40)\n      dup1\n      swap2\n      sub\n      swap1\n      return\n        /* \"Calculator.sol\":1983:2188  function division(uint256 num1_, uint256 num2_) public checkPositiveNumbers(num1_,num2_) returns(uint256 result_){... */\n    tag_14:\n      tag_63\n      0x04\n      dup1\n      calldatasize\n      sub\n      dup2\n      add\n      swap1\n      tag_64\n      swap2\n      swap1\n      tag_22\n      jump\t// in\n    tag_64:\n      tag_65\n      jump\t// in\n    tag_63:\n      mload(0x40)\n      tag_66\n      swap2\n      swap1\n      tag_25\n      jump\t// in\n    tag_66:\n      mload(0x40)\n      dup1\n      swap2\n      sub\n      swap1\n      return\n        /* \"Calculator.sol\":1635:1751  function multiplier(uint256 num1_) public checkPositiveNumber(num1_){... */\n    tag_19:\n        /* \"Calculator.sol\":1697:1702  num1_ */\n      dup1\n        /* \"Calculator.sol\":315:316  0 */\n      0x00\n        /* \"Calculator.sol\":306:311  num1_ */\n      dup2\n        /* \"Calculator.sol\":306:316  num1_ <= 0 */\n      gt\n        /* \"Calculator.sol\":303:326  if(num1_ <= 0) revert() */\n      tag_68\n      jumpi\n        /* \"Calculator.sol\":318:326  revert() */\n      0x00\n      dup1\n      revert\n        /* \"Calculator.sol\":303:326  if(num1_ <= 0) revert() */\n    tag_68:\n        /* \"Calculator.sol\":1734:1739  num1_ */\n      dup2\n        /* \"Calculator.sol\":1725:1731  result */\n      sload(0x00)\n        /* \"Calculator.sol\":1725:1739  result * num1_ */\n      tag_70\n      swap2\n      swap1\n      tag_71\n      jump\t// in\n    tag_70:\n        /* \"Calculator.sol\":1716:1722  result */\n      0x00\n        /* \"Calculator.sol\":1716:1739  result = result * num1_ */\n      dup2\n      swap1\n      sstore\n      pop\n        /* \"Calculator.sol\":1635:1751  function multiplier(uint256 num1_) public checkPositiveNumber(num1_){... */\n      pop\n      pop\n      jump\t// out\n        /* \"Calculator.sol\":3100:3271  function average(uint256 num1_, uint256 num2_) public checkPositiveNumbers(num1_,num2_) returns(uint256 result_){... */\n    tag_23:\n        /* \"Calculator.sol\":3196:3211  uint256 result_ */\n      0x00\n        /* \"Calculator.sol\":3175:3180  num1_ */\n      dup3\n        /* \"Calculator.sol\":3181:3186  num2_ */\n      dup3\n        /* \"Calculator.sol\":436:437  0 */\n      0x00\n        /* \"Calculator.sol\":428:433  num1_ */\n      dup3\n        /* \"Calculator.sol\":428:437  num1_ <=0 */\n      gt\n      iszero\n        /* \"Calculator.sol\":428:450  num1_ <=0 || num2_ <=0 */\n      dup1\n      tag_73\n      jumpi\n      pop\n        /* \"Calculator.sol\":449:450  0 */\n      0x00\n        /* \"Calculator.sol\":441:446  num2_ */\n      dup2\n        /* \"Calculator.sol\":441:450  num2_ <=0 */\n      gt\n      iszero\n        /* \"Calculator.sol\":428:450  num1_ <=0 || num2_ <=0 */\n    tag_73:\n        /* \"Calculator.sol\":425:460  if(num1_ <=0 || num2_ <=0) revert() */\n      iszero\n      tag_74\n      jumpi\n        /* \"Calculator.sol\":452:460  revert() */\n      0x00\n      dup1\n      revert\n        /* \"Calculator.sol\":425:460  if(num1_ <=0 || num2_ <=0) revert() */\n    tag_74:\n        /* \"Calculator.sol\":3235:3261  average_logic(num1_,num2_) */\n      tag_76\n        /* \"Calculator.sol\":3249:3254  num1_ */\n      dup6\n        /* \"Calculator.sol\":3255:3260  num2_ */\n      dup6\n        /* \"Calculator.sol\":3235:3248  average_logic */\n      tag_77\n        /* \"Calculator.sol\":3235:3261  average_logic(num1_,num2_) */\n      jump\t// in\n    tag_76:\n        /* \"Calculator.sol\":3225:3261  result_ = average_logic(num1_,num2_) */\n      swap3\n      pop\n        /* \"Calculator.sol\":3100:3271  function average(uint256 num1_, uint256 num2_) public checkPositiveNumbers(num1_,num2_) returns(uint256 result_){... */\n      pop\n      pop\n      swap3\n      swap2\n      pop\n      pop\n      jump\t// out\n        /* \"Calculator.sol\":1472:1627  function substraction2(int256 num1_, int256 num2_) public pure returns(int256 result_){... */\n    tag_29:\n        /* \"Calculator.sol\":1543:1557  int256 result_ */\n      0x00\n        /* \"Calculator.sol\":1581:1613  substraction_logic2(num1_,num2_) */\n      tag_79\n        /* \"Calculator.sol\":1601:1606  num1_ */\n      dup4\n        /* \"Calculator.sol\":1607:1612  num2_ */\n      dup4\n        /* \"Calculator.sol\":1581:1600  substraction_logic2 */\n      tag_80\n        /* \"Calculator.sol\":1581:1613  substraction_logic2(num1_,num2_) */\n      jump\t// in\n    tag_79:\n        /* \"Calculator.sol\":1571:1613  result_ = substraction_logic2(num1_,num2_) */\n      swap1\n      pop\n        /* \"Calculator.sol\":1472:1627  function substraction2(int256 num1_, int256 num2_) public pure returns(int256 result_){... */\n      swap3\n      swap2\n      pop\n      pop\n      jump\t// out\n        /* \"Calculator.sol\":2196:2472  function exponent(uint256 num1_, uint256 num2_) public checkPositiveNumbers(num1_,num2_) returns(uint256 result_){... */\n    tag_34:\n        /* \"Calculator.sol\":2293:2308  uint256 result_ */\n      0x00\n        /* \"Calculator.sol\":2272:2277  num1_ */\n      dup3\n        /* \"Calculator.sol\":2278:2283  num2_ */\n      dup3\n        /* \"Calculator.sol\":436:437  0 */\n      0x00\n        /* \"Calculator.sol\":428:433  num1_ */\n      dup3\n        /* \"Calculator.sol\":428:437  num1_ <=0 */\n      gt\n      iszero\n        /* \"Calculator.sol\":428:450  num1_ <=0 || num2_ <=0 */\n      dup1\n      tag_82\n      jumpi\n      pop\n        /* \"Calculator.sol\":449:450  0 */\n      0x00\n        /* \"Calculator.sol\":441:446  num2_ */\n      dup2\n        /* \"Calculator.sol\":441:450  num2_ <=0 */\n      gt\n      iszero\n        /* \"Calculator.sol\":428:450  num1_ <=0 || num2_ <=0 */\n    tag_82:\n        /* \"Calculator.sol\":425:460  if(num1_ <=0 || num2_ <=0) revert() */\n      iszero\n      tag_83\n      jumpi\n        /* \"Calculator.sol\":452:460  revert() */\n      0x00\n      dup1\n      revert\n        /* \"Calculator.sol\":425:460  if(num1_ <=0 || num2_ <=0) revert() */\n    tag_83:\n        /* \"Calculator.sol\":2332:2333  1 */\n      0x01\n        /* \"Calculator.sol\":2322:2333  result_ = 1 */\n      swap3\n      pop\n        /* \"Calculator.sol\":2350:2359  uint256 i */\n      0x00\n        /* \"Calculator.sol\":2345:2421  for (uint256 i = 0; i < num2_; i++) {... */\n    tag_85:\n        /* \"Calculator.sol\":2369:2374  num2_ */\n      dup5\n        /* \"Calculator.sol\":2365:2366  i */\n      dup2\n        /* \"Calculator.sol\":2365:2374  i < num2_ */\n      lt\n        /* \"Calculator.sol\":2345:2421  for (uint256 i = 0; i < num2_; i++) {... */\n      iszero\n      tag_86\n      jumpi\n        /* \"Calculator.sol\":2403:2408  num1_ */\n      dup6\n        /* \"Calculator.sol\":2392:2408  result_ *= num1_ */\n      dup5\n      tag_88\n      swap2\n      swap1\n      tag_71\n      jump\t// in\n    tag_88:\n      swap4\n      pop\n        /* \"Calculator.sol\":2376:2379  i++ */\n      dup1\n      dup1\n      0x01\n      add\n      swap2\n      pop\n      pop\n        /* \"Calculator.sol\":2345:2421  for (uint256 i = 0; i < num2_; i++) {... */\n      jump(tag_85)\n    tag_86:\n      pop\n        /* \"Calculator.sol\":2432:2462  Exponent(num1_, num2_, result) */\n      0x8f88adbfbd9fac1a93415da25ad2a978a2ed5ecf0179be666a5c0aa82f8df265\n        /* \"Calculator.sol\":2441:2446  num1_ */\n      dup6\n        /* \"Calculator.sol\":2448:2453  num2_ */\n      dup6\n        /* \"Calculator.sol\":2455:2461  result */\n      sload(0x00)\n        /* \"Calculator.sol\":2432:2462  Exponent(num1_, num2_, result) */\n      mload(0x40)\n      tag_89\n      swap4\n      swap3\n      swap2\n      swap1\n      tag_90\n      jump\t// in\n    tag_89:\n      mload(0x40)\n      dup1\n      swap2\n      sub\n      swap1\n      log1\n        /* \"Calculator.sol\":2196:2472  function exponent(uint256 num1_, uint256 num2_) public checkPositiveNumbers(num1_,num2_) returns(uint256 result_){... */\n      pop\n      pop\n      swap3\n      swap2\n      pop\n      pop\n      jump\t// out\n        /* \"Calculator.sol\":2667:2868  function module(uint256 num1_, uint256 num2_) public checkPositiveNumbers(num1_,num2_) returns(uint256 result_){... */\n    tag_38:\n        /* \"Calculator.sol\":2762:2777  uint256 result_ */\n      0x00\n        /* \"Calculator.sol\":2741:2746  num1_ */\n      dup3\n        /* \"Calculator.sol\":2747:2752  num2_ */\n      dup3\n        /* \"Calculator.sol\":436:437  0 */\n      0x00\n        /* \"Calculator.sol\":428:433  num1_ */\n      dup3\n        /* \"Calculator.sol\":428:437  num1_ <=0 */\n      gt\n      iszero\n        /* \"Calculator.sol\":428:450  num1_ <=0 || num2_ <=0 */\n      dup1\n      tag_92\n      jumpi\n      pop\n        /* \"Calculator.sol\":449:450  0 */\n      0x00\n        /* \"Calculator.sol\":441:446  num2_ */\n      dup2\n        /* \"Calculator.sol\":441:450  num2_ <=0 */\n      gt\n      iszero\n        /* \"Calculator.sol\":428:450  num1_ <=0 || num2_ <=0 */\n    tag_92:\n        /* \"Calculator.sol\":425:460  if(num1_ <=0 || num2_ <=0) revert() */\n      iszero\n      tag_93\n      jumpi\n        /* \"Calculator.sol\":452:460  revert() */\n      0x00\n      dup1\n      revert\n        /* \"Calculator.sol\":425:460  if(num1_ <=0 || num2_ <=0) revert() */\n    tag_93:\n        /* \"Calculator.sol\":2809:2814  num2_ */\n      dup4\n        /* \"Calculator.sol\":2801:2806  num1_ */\n      dup6\n        /* \"Calculator.sol\":2801:2814  num1_ % num2_ */\n      tag_95\n      swap2\n      swap1\n      tag_96\n      jump\t// in\n    tag_95:\n        /* \"Calculator.sol\":2791:2814  result_ = num1_ % num2_ */\n      swap3\n      pop\n        /* \"Calculator.sol\":2830:2858  Module(num1_, num2_, result) */\n      0xcfee31662af25188f47f9d61b42c3c6d09562d047aeb60b7d5734902f09a9dab\n        /* \"Calculator.sol\":2837:2842  num1_ */\n      dup6\n        /* \"Calculator.sol\":2844:2849  num2_ */\n      dup6\n        /* \"Calculator.sol\":2851:2857  result */\n      sload(0x00)\n        /* \"Calculator.sol\":2830:2858  Module(num1_, num2_, result) */\n      mload(0x40)\n      tag_97\n      swap4\n      swap3\n      swap2\n      swap1\n      tag_90\n      jump\t// in\n    tag_97:\n      mload(0x40)\n      dup1\n      swap2\n      sub\n      swap1\n      log1\n        /* \"Calculator.sol\":2667:2868  function module(uint256 num1_, uint256 num2_) public checkPositiveNumbers(num1_,num2_) returns(uint256 result_){... */\n      pop\n      pop\n      swap3\n      swap2\n      pop\n      pop\n      jump\t// out\n        /* \"Calculator.sol\":183:208  uint256 public result = 1 */\n    tag_41:\n      sload(0x00)\n      dup2\n      jump\t// out\n        /* \"Calculator.sol\":2480:2652  function sqrt(uint256 num1_) public checkPositiveNumber(num1_) returns(uint256 result_){... */\n    tag_45:\n        /* \"Calculator.sol\":2551:2566  uint256 result_ */\n      0x00\n        /* \"Calculator.sol\":2536:2541  num1_ */\n      dup2\n        /* \"Calculator.sol\":315:316  0 */\n      0x00\n        /* \"Calculator.sol\":306:311  num1_ */\n      dup2\n        /* \"Calculator.sol\":306:316  num1_ <= 0 */\n      gt\n        /* \"Calculator.sol\":303:326  if(num1_ <= 0) revert() */\n      tag_99\n      jumpi\n        /* \"Calculator.sol\":318:326  revert() */\n      0x00\n      dup1\n      revert\n        /* \"Calculator.sol\":303:326  if(num1_ <= 0) revert() */\n    tag_99:\n        /* \"Calculator.sol\":2590:2607  sqrt_logic(num1_) */\n      tag_101\n        /* \"Calculator.sol\":2601:2606  num1_ */\n      dup4\n        /* \"Calculator.sol\":2590:2600  sqrt_logic */\n      tag_102\n        /* \"Calculator.sol\":2590:2607  sqrt_logic(num1_) */\n      jump\t// in\n    tag_101:\n        /* \"Calculator.sol\":2580:2607  result_ = sqrt_logic(num1_) */\n      swap2\n      pop\n        /* \"Calculator.sol\":2623:2642  Sqrt(num1_, result) */\n      0x26a1b23e060f39984a0f8126724012d0e30d422d48168fd724ca09b04bce02e0\n        /* \"Calculator.sol\":2628:2633  num1_ */\n      dup4\n        /* \"Calculator.sol\":2635:2641  result */\n      sload(0x00)\n        /* \"Calculator.sol\":2623:2642  Sqrt(num1_, result) */\n      mload(0x40)\n      tag_103\n      swap3\n      swap2\n      swap1\n      tag_104\n      jump\t// in\n    tag_103:\n      mload(0x40)\n      dup1\n      swap2\n      sub\n      swap1\n      log1\n        /* \"Calculator.sol\":2480:2652  function sqrt(uint256 num1_) public checkPositiveNumber(num1_) returns(uint256 result_){... */\n      pop\n      swap2\n      swap1\n      pop\n      jump\t// out\n        /* \"Calculator.sol\":1759:1975  function multiplier2(uint256 num1_, uint256 num2_) public checkPositiveNumbers(num1_,num2_) returns (uint256 result_){... */\n    tag_49:\n        /* \"Calculator.sol\":1860:1875  uint256 result_ */\n      0x00\n        /* \"Calculator.sol\":1838:1843  num1_ */\n      dup3\n        /* \"Calculator.sol\":1844:1849  num2_ */\n      dup3\n        /* \"Calculator.sol\":436:437  0 */\n      0x00\n        /* \"Calculator.sol\":428:433  num1_ */\n      dup3\n        /* \"Calculator.sol\":428:437  num1_ <=0 */\n      gt\n      iszero\n        /* \"Calculator.sol\":428:450  num1_ <=0 || num2_ <=0 */\n      dup1\n      tag_106\n      jumpi\n      pop\n        /* \"Calculator.sol\":449:450  0 */\n      0x00\n        /* \"Calculator.sol\":441:446  num2_ */\n      dup2\n        /* \"Calculator.sol\":441:450  num2_ <=0 */\n      gt\n      iszero\n        /* \"Calculator.sol\":428:450  num1_ <=0 || num2_ <=0 */\n    tag_106:\n        /* \"Calculator.sol\":425:460  if(num1_ <=0 || num2_ <=0) revert() */\n      iszero\n      tag_107\n      jumpi\n        /* \"Calculator.sol\":452:460  revert() */\n      0x00\n      dup1\n      revert\n        /* \"Calculator.sol\":425:460  if(num1_ <=0 || num2_ <=0) revert() */\n    tag_107:\n        /* \"Calculator.sol\":1907:1912  num2_ */\n      dup4\n        /* \"Calculator.sol\":1899:1904  num1_ */\n      dup6\n        /* \"Calculator.sol\":1899:1912  num1_ * num2_ */\n      tag_109\n      swap2\n      swap1\n      tag_71\n      jump\t// in\n    tag_109:\n        /* \"Calculator.sol\":1889:1912  result_ = num1_ * num2_ */\n      swap3\n      pop\n        /* \"Calculator.sol\":1928:1965  Multiplication(num1_, num2_, result_) */\n      0x335998e93ba3244a0211e8567928b9e75100151dc4bb0c7701d715ea462b279a\n        /* \"Calculator.sol\":1943:1948  num1_ */\n      dup6\n        /* \"Calculator.sol\":1950:1955  num2_ */\n      dup6\n        /* \"Calculator.sol\":1957:1964  result_ */\n      dup6\n        /* \"Calculator.sol\":1928:1965  Multiplication(num1_, num2_, result_) */\n      mload(0x40)\n      tag_110\n      swap4\n      swap3\n      swap2\n      swap1\n      tag_90\n      jump\t// in\n    tag_110:\n      mload(0x40)\n      dup1\n      swap2\n      sub\n      swap1\n      log1\n        /* \"Calculator.sol\":1759:1975  function multiplier2(uint256 num1_, uint256 num2_) public checkPositiveNumbers(num1_,num2_) returns (uint256 result_){... */\n      pop\n      pop\n      swap3\n      swap2\n      pop\n      pop\n      jump\t// out\n        /* \"Calculator.sol\":1102:1259  function sum(uint256 num1_, uint256 num2_) public returns(uint256 result_){... */\n    tag_53:\n        /* \"Calculator.sol\":1160:1175  uint256 result_ */\n      0x00\n        /* \"Calculator.sol\":1207:1212  num2_ */\n      dup2\n        /* \"Calculator.sol\":1199:1204  num1_ */\n      dup4\n        /* \"Calculator.sol\":1199:1212  num1_ + num2_ */\n      tag_112\n      swap2\n      swap1\n      tag_113\n      jump\t// in\n    tag_112:\n        /* \"Calculator.sol\":1189:1212  result_ = num1_ + num2_ */\n      swap1\n      pop\n        /* \"Calculator.sol\":1228:1251  Sum(num1_,num2_,result) */\n      0xed389495059e3255c7a92671d5719bf4fd25064cd6bbbe911affd790ed681541\n        /* \"Calculator.sol\":1232:1237  num1_ */\n      dup4\n        /* \"Calculator.sol\":1238:1243  num2_ */\n      dup4\n        /* \"Calculator.sol\":1244:1250  result */\n      sload(0x00)\n        /* \"Calculator.sol\":1228:1251  Sum(num1_,num2_,result) */\n      mload(0x40)\n      tag_114\n      swap4\n      swap3\n      swap2\n      swap1\n      tag_90\n      jump\t// in\n    tag_114:\n      mload(0x40)\n      dup1\n      swap2\n      sub\n      swap1\n      log1\n        /* \"Calculator.sol\":1102:1259  function sum(uint256 num1_, uint256 num2_) public returns(uint256 result_){... */\n      swap3\n      swap2\n      pop\n      pop\n      jump\t// out\n        /* \"Calculator.sol\":2876:3092  function maximum(uint256 num1_, uint256 num2_) public checkPositiveNumbers(num1_,num2_) returns(uint256 result_){... */\n    tag_57:\n        /* \"Calculator.sol\":2972:2987  uint256 result_ */\n      0x00\n        /* \"Calculator.sol\":2951:2956  num1_ */\n      dup3\n        /* \"Calculator.sol\":2957:2962  num2_ */\n      dup3\n        /* \"Calculator.sol\":436:437  0 */\n      0x00\n        /* \"Calculator.sol\":428:433  num1_ */\n      dup3\n        /* \"Calculator.sol\":428:437  num1_ <=0 */\n      gt\n      iszero\n        /* \"Calculator.sol\":428:450  num1_ <=0 || num2_ <=0 */\n      dup1\n      tag_116\n      jumpi\n      pop\n        /* \"Calculator.sol\":449:450  0 */\n      0x00\n        /* \"Calculator.sol\":441:446  num2_ */\n      dup2\n        /* \"Calculator.sol\":441:450  num2_ <=0 */\n      gt\n      iszero\n        /* \"Calculator.sol\":428:450  num1_ <=0 || num2_ <=0 */\n    tag_116:\n        /* \"Calculator.sol\":425:460  if(num1_ <=0 || num2_ <=0) revert() */\n      iszero\n      tag_117\n      jumpi\n        /* \"Calculator.sol\":452:460  revert() */\n      0x00\n      dup1\n      revert\n        /* \"Calculator.sol\":425:460  if(num1_ <=0 || num2_ <=0) revert() */\n    tag_117:\n        /* \"Calculator.sol\":3011:3037  maximum_logic(num1_,num2_) */\n      tag_119\n        /* \"Calculator.sol\":3025:3030  num1_ */\n      dup6\n        /* \"Calculator.sol\":3031:3036  num2_ */\n      dup6\n        /* \"Calculator.sol\":3011:3024  maximum_logic */\n      tag_120\n        /* \"Calculator.sol\":3011:3037  maximum_logic(num1_,num2_) */\n      jump\t// in\n    tag_119:\n        /* \"Calculator.sol\":3001:3037  result_ = maximum_logic(num1_,num2_) */\n      swap3\n      pop\n        /* \"Calculator.sol\":3053:3082  Maximum(num1_, num2_, result) */\n      0xae92cff874140cbe97e7efc6ffd3c3dd667ee2b4c69fa357765af8fcf4d804\n        /* \"Calculator.sol\":3061:3066  num1_ */\n      dup6\n        /* \"Calculator.sol\":3068:3073  num2_ */\n      dup6\n        /* \"Calculator.sol\":3075:3081  result */\n      sload(0x00)\n        /* \"Calculator.sol\":3053:3082  Maximum(num1_, num2_, result) */\n      mload(0x40)\n      tag_121\n      swap4\n      swap3\n      swap2\n      swap1\n      tag_90\n      jump\t// in\n    tag_121:\n      mload(0x40)\n      dup1\n      swap2\n      sub\n      swap1\n      log1\n        /* \"Calculator.sol\":2876:3092  function maximum(uint256 num1_, uint256 num2_) public checkPositiveNumbers(num1_,num2_) returns(uint256 result_){... */\n      pop\n      pop\n      swap3\n      swap2\n      pop\n      pop\n      jump\t// out\n        /* \"Calculator.sol\":1267:1464  function substraction(uint256 num1_, uint256 num2_) public  returns(uint256 result_){... */\n    tag_61:\n        /* \"Calculator.sol\":1335:1350  uint256 result_ */\n      0x00\n        /* \"Calculator.sol\":1374:1405  substraction_logic(num1_,num2_) */\n      tag_123\n        /* \"Calculator.sol\":1393:1398  num1_ */\n      dup4\n        /* \"Calculator.sol\":1399:1404  num2_ */\n      dup4\n        /* \"Calculator.sol\":1374:1392  substraction_logic */\n      tag_124\n        /* \"Calculator.sol\":1374:1405  substraction_logic(num1_,num2_) */\n      jump\t// in\n    tag_123:\n        /* \"Calculator.sol\":1364:1405  result_ = substraction_logic(num1_,num2_) */\n      swap1\n      pop\n        /* \"Calculator.sol\":1421:1454  Substraction(num1_,num2_,result_) */\n      0x02325f53408b10d20290d06f069ad56eb7ecae5db225e14d71cda2c523652c5b\n        /* \"Calculator.sol\":1434:1439  num1_ */\n      dup4\n        /* \"Calculator.sol\":1440:1445  num2_ */\n      dup4\n        /* \"Calculator.sol\":1446:1453  result_ */\n      dup4\n        /* \"Calculator.sol\":1421:1454  Substraction(num1_,num2_,result_) */\n      mload(0x40)\n      tag_125\n      swap4\n      swap3\n      swap2\n      swap1\n      tag_90\n      jump\t// in\n    tag_125:\n      mload(0x40)\n      dup1\n      swap2\n      sub\n      swap1\n      log1\n        /* \"Calculator.sol\":1267:1464  function substraction(uint256 num1_, uint256 num2_) public  returns(uint256 result_){... */\n      swap3\n      swap2\n      pop\n      pop\n      jump\t// out\n        /* \"Calculator.sol\":1983:2188  function division(uint256 num1_, uint256 num2_) public checkPositiveNumbers(num1_,num2_) returns(uint256 result_){... */\n    tag_65:\n        /* \"Calculator.sol\":2080:2095  uint256 result_ */\n      0x00\n        /* \"Calculator.sol\":2059:2064  num1_ */\n      dup3\n        /* \"Calculator.sol\":2065:2070  num2_ */\n      dup3\n        /* \"Calculator.sol\":436:437  0 */\n      0x00\n        /* \"Calculator.sol\":428:433  num1_ */\n      dup3\n        /* \"Calculator.sol\":428:437  num1_ <=0 */\n      gt\n      iszero\n        /* \"Calculator.sol\":428:450  num1_ <=0 || num2_ <=0 */\n      dup1\n      tag_127\n      jumpi\n      pop\n        /* \"Calculator.sol\":449:450  0 */\n      0x00\n        /* \"Calculator.sol\":441:446  num2_ */\n      dup2\n        /* \"Calculator.sol\":441:450  num2_ <=0 */\n      gt\n      iszero\n        /* \"Calculator.sol\":428:450  num1_ <=0 || num2_ <=0 */\n    tag_127:\n        /* \"Calculator.sol\":425:460  if(num1_ <=0 || num2_ <=0) revert() */\n      iszero\n      tag_128\n      jumpi\n        /* \"Calculator.sol\":452:460  revert() */\n      0x00\n      dup1\n      revert\n        /* \"Calculator.sol\":425:460  if(num1_ <=0 || num2_ <=0) revert() */\n    tag_128:\n        /* \"Calculator.sol\":2127:2132  num2_ */\n      dup4\n        /* \"Calculator.sol\":2119:2124  num1_ */\n      dup6\n        /* \"Calculator.sol\":2119:2132  num1_ / num2_ */\n      tag_130\n      swap2\n      swap1\n      tag_131\n      jump\t// in\n    tag_130:\n        /* \"Calculator.sol\":2109:2132  result_ = num1_ / num2_ */\n      swap3\n      pop\n        /* \"Calculator.sol\":2148:2178  Division(num1_, num2_, result) */\n      0xd8ef84f712e41d28f98fe74cd153013023d849514d0a40ee61834f3c385055ce\n        /* \"Calculator.sol\":2157:2162  num1_ */\n      dup6\n        /* \"Calculator.sol\":2164:2169  num2_ */\n      dup6\n        /* \"Calculator.sol\":2171:2177  result */\n      sload(0x00)\n        /* \"Calculator.sol\":2148:2178  Division(num1_, num2_, result) */\n      mload(0x40)\n      tag_132\n      swap4\n      swap3\n      swap2\n      swap1\n      tag_90\n      jump\t// in\n    tag_132:\n      mload(0x40)\n      dup1\n      swap2\n      sub\n      swap1\n      log1\n        /* \"Calculator.sol\":1983:2188  function division(uint256 num1_, uint256 num2_) public checkPositiveNumbers(num1_,num2_) returns(uint256 result_){... */\n      pop\n      pop\n      swap3\n      swap2\n      pop\n      pop\n      jump\t// out\n        /* \"Calculator.sol\":4219:4402  function average_logic(uint256 num1_, uint256 num2_) internal returns(uint256 result_){... */\n    tag_77:\n        /* \"Calculator.sol\":4289:4304  uint256 result_ */\n      0x00\n        /* \"Calculator.sol\":4344:4345  2 */\n      0x02\n        /* \"Calculator.sol\":4337:4342  num2_ */\n      dup3\n        /* \"Calculator.sol\":4329:4334  num1_ */\n      dup5\n        /* \"Calculator.sol\":4329:4342  num1_ + num2_ */\n      tag_134\n      swap2\n      swap1\n      tag_113\n      jump\t// in\n    tag_134:\n        /* \"Calculator.sol\":4328:4345  (num1_ + num2_)/2 */\n      tag_135\n      swap2\n      swap1\n      tag_131\n      jump\t// in\n    tag_135:\n        /* \"Calculator.sol\":4318:4345  result_ = (num1_ + num2_)/2 */\n      swap1\n      pop\n        /* \"Calculator.sol\":4361:4390  Average(num1_, num2_, result) */\n      0x71f9bbe40e9c99d1bc6b2a11e8a7b97bceb63804cdea6bc30f96f2a0eb12ecd4\n        /* \"Calculator.sol\":4369:4374  num1_ */\n      dup4\n        /* \"Calculator.sol\":4376:4381  num2_ */\n      dup4\n        /* \"Calculator.sol\":4383:4389  result */\n      sload(0x00)\n        /* \"Calculator.sol\":4361:4390  Average(num1_, num2_, result) */\n      mload(0x40)\n      tag_136\n      swap4\n      swap3\n      swap2\n      swap1\n      tag_90\n      jump\t// in\n    tag_136:\n      mload(0x40)\n      dup1\n      swap2\n      sub\n      swap1\n      log1\n        /* \"Calculator.sol\":4219:4402  function average_logic(uint256 num1_, uint256 num2_) internal returns(uint256 result_){... */\n      swap3\n      swap2\n      pop\n      pop\n      jump\t// out\n        /* \"Calculator.sol\":3458:3600  function substraction_logic2(int256 num1_, int256 num2_) internal pure returns(int256 result_){... */\n    tag_80:\n        /* \"Calculator.sol\":3537:3551  int256 result_ */\n      0x00\n        /* \"Calculator.sol\":3583:3588  num2_ */\n      dup2\n        /* \"Calculator.sol\":3575:3580  num1_ */\n      dup4\n        /* \"Calculator.sol\":3575:3588  num1_ - num2_ */\n      tag_138\n      swap2\n      swap1\n      tag_139\n      jump\t// in\n    tag_138:\n        /* \"Calculator.sol\":3565:3588  result_ = num1_ - num2_ */\n      swap1\n      pop\n        /* \"Calculator.sol\":3458:3600  function substraction_logic2(int256 num1_, int256 num2_) internal pure returns(int256 result_){... */\n      swap3\n      swap2\n      pop\n      pop\n      jump\t// out\n        /* \"Calculator.sol\":3608:3993  function sqrt_logic(uint num1_) internal pure returns (uint result_) {... */\n    tag_102:\n        /* \"Calculator.sol\":3663:3675  uint result_ */\n      0x00\n        /* \"Calculator.sol\":3710:3711  3 */\n      0x03\n        /* \"Calculator.sol\":3702:3707  num1_ */\n      dup3\n        /* \"Calculator.sol\":3702:3711  num1_ > 3 */\n      gt\n        /* \"Calculator.sol\":3698:3986  if (num1_ > 3) {... */\n      iszero\n      tag_141\n      jumpi\n        /* \"Calculator.sol\":3738:3743  num1_ */\n      dup2\n        /* \"Calculator.sol\":3728:3743  result_ = num1_ */\n      swap1\n      pop\n        /* \"Calculator.sol\":3758:3766  uint aux */\n      0x00\n        /* \"Calculator.sol\":3781:3782  1 */\n      0x01\n        /* \"Calculator.sol\":3777:3778  2 */\n      0x02\n        /* \"Calculator.sol\":3769:3774  num1_ */\n      dup5\n        /* \"Calculator.sol\":3769:3778  num1_ / 2 */\n      tag_142\n      swap2\n      swap1\n      tag_131\n      jump\t// in\n    tag_142:\n        /* \"Calculator.sol\":3769:3782  num1_ / 2 + 1 */\n      tag_143\n      swap2\n      swap1\n      tag_113\n      jump\t// in\n    tag_143:\n        /* \"Calculator.sol\":3758:3782  uint aux = num1_ / 2 + 1 */\n      swap1\n      pop\n        /* \"Calculator.sol\":3797:3915  while (aux < result_) {... */\n    tag_144:\n        /* \"Calculator.sol\":3810:3817  result_ */\n      dup2\n        /* \"Calculator.sol\":3804:3807  aux */\n      dup2\n        /* \"Calculator.sol\":3804:3817  aux < result_ */\n      lt\n        /* \"Calculator.sol\":3797:3915  while (aux < result_) {... */\n      iszero\n      tag_145\n      jumpi\n        /* \"Calculator.sol\":3848:3851  aux */\n      dup1\n        /* \"Calculator.sol\":3838:3851  result_ = aux */\n      swap2\n      pop\n        /* \"Calculator.sol\":3898:3899  2 */\n      0x02\n        /* \"Calculator.sol\":3891:3894  aux */\n      dup2\n        /* \"Calculator.sol\":3885:3888  aux */\n      dup3\n        /* \"Calculator.sol\":3877:3882  num1_ */\n      dup6\n        /* \"Calculator.sol\":3877:3888  num1_ / aux */\n      tag_146\n      swap2\n      swap1\n      tag_131\n      jump\t// in\n    tag_146:\n        /* \"Calculator.sol\":3877:3894  num1_ / aux + aux */\n      tag_147\n      swap2\n      swap1\n      tag_113\n      jump\t// in\n    tag_147:\n        /* \"Calculator.sol\":3876:3899  (num1_ / aux + aux) / 2 */\n      tag_148\n      swap2\n      swap1\n      tag_131\n      jump\t// in\n    tag_148:\n        /* \"Calculator.sol\":3870:3899  aux = (num1_ / aux + aux) / 2 */\n      swap1\n      pop\n        /* \"Calculator.sol\":3797:3915  while (aux < result_) {... */\n      jump(tag_144)\n    tag_145:\n        /* \"Calculator.sol\":3713:3926  {... */\n      pop\n        /* \"Calculator.sol\":3698:3986  if (num1_ > 3) {... */\n      jump(tag_149)\n    tag_141:\n        /* \"Calculator.sol\":3945:3946  0 */\n      0x00\n        /* \"Calculator.sol\":3936:3941  num1_ */\n      dup3\n        /* \"Calculator.sol\":3936:3946  num1_ != 0 */\n      eq\n        /* \"Calculator.sol\":3932:3986  if (num1_ != 0) {... */\n      tag_150\n      jumpi\n        /* \"Calculator.sol\":3973:3974  1 */\n      0x01\n        /* \"Calculator.sol\":3963:3974  result_ = 1 */\n      swap1\n      pop\n        /* \"Calculator.sol\":3932:3986  if (num1_ != 0) {... */\n    tag_150:\n        /* \"Calculator.sol\":3698:3986  if (num1_ > 3) {... */\n    tag_149:\n        /* \"Calculator.sol\":3608:3993  function sqrt_logic(uint num1_) internal pure returns (uint result_) {... */\n      swap2\n      swap1\n      pop\n      jump\t// out\n        /* \"Calculator.sol\":4003:4211  function maximum_logic(uint256 num1_, uint256 num2_) internal pure returns(uint256 result_){... */\n    tag_120:\n        /* \"Calculator.sol\":4078:4093  uint256 result_ */\n      0x00\n        /* \"Calculator.sol\":4120:4125  num2_ */\n      dup2\n        /* \"Calculator.sol\":4111:4116  num1_ */\n      dup4\n        /* \"Calculator.sol\":4111:4125  num1_ >= num2_ */\n      lt\n        /* \"Calculator.sol\":4107:4199  if (num1_ >= num2_)... */\n      tag_152\n      jumpi\n        /* \"Calculator.sol\":4150:4155  num1_ */\n      dup3\n        /* \"Calculator.sol\":4140:4155  result_ = num1_ */\n      swap1\n      pop\n        /* \"Calculator.sol\":4107:4199  if (num1_ >= num2_)... */\n      jump(tag_153)\n    tag_152:\n        /* \"Calculator.sol\":4194:4199  num2_ */\n      dup2\n        /* \"Calculator.sol\":4184:4199  result_ = num2_ */\n      swap1\n      pop\n        /* \"Calculator.sol\":4107:4199  if (num1_ >= num2_)... */\n    tag_153:\n        /* \"Calculator.sol\":4003:4211  function maximum_logic(uint256 num1_, uint256 num2_) internal pure returns(uint256 result_){... */\n      swap3\n      swap2\n      pop\n      pop\n      jump\t// out\n        /* \"Calculator.sol\":3306:3450  function substraction_logic(uint256 num1_, uint256 num2_) internal pure returns(uint256 result_){... */\n    tag_124:\n        /* \"Calculator.sol\":3386:3401  uint256 result_ */\n      0x00\n        /* \"Calculator.sol\":3433:3438  num2_ */\n      dup2\n        /* \"Calculator.sol\":3425:3430  num1_ */\n      dup4\n        /* \"Calculator.sol\":3425:3438  num1_ - num2_ */\n      tag_155\n      swap2\n      swap1\n      tag_156\n      jump\t// in\n    tag_155:\n        /* \"Calculator.sol\":3415:3438  result_ = num1_ - num2_ */\n      swap1\n      pop\n        /* \"Calculator.sol\":3306:3450  function substraction_logic(uint256 num1_, uint256 num2_) internal pure returns(uint256 result_){... */\n      swap3\n      swap2\n      pop\n      pop\n      jump\t// out\n        /* \"#utility.yul\":88:205   */\n    tag_158:\n        /* \"#utility.yul\":197:198   */\n      0x00\n        /* \"#utility.yul\":194:195   */\n      dup1\n        /* \"#utility.yul\":187:199   */\n      revert\n        /* \"#utility.yul\":334:411   */\n    tag_160:\n        /* \"#utility.yul\":371:378   */\n      0x00\n        /* \"#utility.yul\":400:405   */\n      dup2\n        /* \"#utility.yul\":389:405   */\n      swap1\n      pop\n        /* \"#utility.yul\":334:411   */\n      swap2\n      swap1\n      pop\n      jump\t// out\n        /* \"#utility.yul\":417:539   */\n    tag_161:\n        /* \"#utility.yul\":490:514   */\n      tag_176\n        /* \"#utility.yul\":508:513   */\n      dup2\n        /* \"#utility.yul\":490:514   */\n      tag_160\n      jump\t// in\n    tag_176:\n        /* \"#utility.yul\":483:488   */\n      dup2\n        /* \"#utility.yul\":480:515   */\n      eq\n        /* \"#utility.yul\":470:533   */\n      tag_177\n      jumpi\n        /* \"#utility.yul\":529:530   */\n      0x00\n        /* \"#utility.yul\":526:527   */\n      dup1\n        /* \"#utility.yul\":519:531   */\n      revert\n        /* \"#utility.yul\":470:533   */\n    tag_177:\n        /* \"#utility.yul\":417:539   */\n      pop\n      jump\t// out\n        /* \"#utility.yul\":545:684   */\n    tag_162:\n        /* \"#utility.yul\":591:596   */\n      0x00\n        /* \"#utility.yul\":629:635   */\n      dup2\n        /* \"#utility.yul\":616:636   */\n      calldataload\n        /* \"#utility.yul\":607:636   */\n      swap1\n      pop\n        /* \"#utility.yul\":645:678   */\n      tag_179\n        /* \"#utility.yul\":672:677   */\n      dup2\n        /* \"#utility.yul\":645:678   */\n      tag_161\n      jump\t// in\n    tag_179:\n        /* \"#utility.yul\":545:684   */\n      swap3\n      swap2\n      pop\n      pop\n      jump\t// out\n        /* \"#utility.yul\":690:1019   */\n    tag_18:\n        /* \"#utility.yul\":749:755   */\n      0x00\n        /* \"#utility.yul\":798:800   */\n      0x20\n        /* \"#utility.yul\":786:795   */\n      dup3\n        /* \"#utility.yul\":777:784   */\n      dup5\n        /* \"#utility.yul\":773:796   */\n      sub\n        /* \"#utility.yul\":769:801   */\n      slt\n        /* \"#utility.yul\":766:885   */\n      iszero\n      tag_181\n      jumpi\n        /* \"#utility.yul\":804:883   */\n      tag_182\n      tag_158\n      jump\t// in\n    tag_182:\n        /* \"#utility.yul\":766:885   */\n    tag_181:\n        /* \"#utility.yul\":924:925   */\n      0x00\n        /* \"#utility.yul\":949:1002   */\n      tag_183\n        /* \"#utility.yul\":994:1001   */\n      dup5\n        /* \"#utility.yul\":985:991   */\n      dup3\n        /* \"#utility.yul\":974:983   */\n      dup6\n        /* \"#utility.yul\":970:992   */\n      add\n        /* \"#utility.yul\":949:1002   */\n      tag_162\n      jump\t// in\n    tag_183:\n        /* \"#utility.yul\":939:1002   */\n      swap2\n      pop\n        /* \"#utility.yul\":895:1012   */\n      pop\n        /* \"#utility.yul\":690:1019   */\n      swap3\n      swap2\n      pop\n      pop\n      jump\t// out\n        /* \"#utility.yul\":1025:1499   */\n    tag_22:\n        /* \"#utility.yul\":1093:1099   */\n      0x00\n        /* \"#utility.yul\":1101:1107   */\n      dup1\n        /* \"#utility.yul\":1150:1152   */\n      0x40\n        /* \"#utility.yul\":1138:1147   */\n      dup4\n        /* \"#utility.yul\":1129:1136   */\n      dup6\n        /* \"#utility.yul\":1125:1148   */\n      sub\n        /* \"#utility.yul\":1121:1153   */\n      slt\n        /* \"#utility.yul\":1118:1237   */\n      iszero\n      tag_185\n      jumpi\n        /* \"#utility.yul\":1156:1235   */\n      tag_186\n      tag_158\n      jump\t// in\n    tag_186:\n        /* \"#utility.yul\":1118:1237   */\n    tag_185:\n        /* \"#utility.yul\":1276:1277   */\n      0x00\n        /* \"#utility.yul\":1301:1354   */\n      tag_187\n        /* \"#utility.yul\":1346:1353   */\n      dup6\n        /* \"#utility.yul\":1337:1343   */\n      dup3\n        /* \"#utility.yul\":1326:1335   */\n      dup7\n        /* \"#utility.yul\":1322:1344   */\n      add\n        /* \"#utility.yul\":1301:1354   */\n      tag_162\n      jump\t// in\n    tag_187:\n        /* \"#utility.yul\":1291:1354   */\n      swap3\n      pop\n        /* \"#utility.yul\":1247:1364   */\n      pop\n        /* \"#utility.yul\":1403:1405   */\n      0x20\n        /* \"#utility.yul\":1429:1482   */\n      tag_188\n        /* \"#utility.yul\":1474:1481   */\n      dup6\n        /* \"#utility.yul\":1465:1471   */\n      dup3\n        /* \"#utility.yul\":1454:1463   */\n      dup7\n        /* \"#utility.yul\":1450:1472   */\n      add\n        /* \"#utility.yul\":1429:1482   */\n      tag_162\n      jump\t// in\n    tag_188:\n        /* \"#utility.yul\":1419:1482   */\n      swap2\n      pop\n        /* \"#utility.yul\":1374:1492   */\n      pop\n        /* \"#utility.yul\":1025:1499   */\n      swap3\n      pop\n      swap3\n      swap1\n      pop\n      jump\t// out\n        /* \"#utility.yul\":1505:1623   */\n    tag_163:\n        /* \"#utility.yul\":1592:1616   */\n      tag_190\n        /* \"#utility.yul\":1610:1615   */\n      dup2\n        /* \"#utility.yul\":1592:1616   */\n      tag_160\n      jump\t// in\n    tag_190:\n        /* \"#utility.yul\":1587:1590   */\n      dup3\n        /* \"#utility.yul\":1580:1617   */\n      mstore\n        /* \"#utility.yul\":1505:1623   */\n      pop\n      pop\n      jump\t// out\n        /* \"#utility.yul\":1629:1851   */\n    tag_25:\n        /* \"#utility.yul\":1722:1726   */\n      0x00\n        /* \"#utility.yul\":1760:1762   */\n      0x20\n        /* \"#utility.yul\":1749:1758   */\n      dup3\n        /* \"#utility.yul\":1745:1763   */\n      add\n        /* \"#utility.yul\":1737:1763   */\n      swap1\n      pop\n        /* \"#utility.yul\":1773:1844   */\n      tag_192\n        /* \"#utility.yul\":1841:1842   */\n      0x00\n        /* \"#utility.yul\":1830:1839   */\n      dup4\n        /* \"#utility.yul\":1826:1843   */\n      add\n        /* \"#utility.yul\":1817:1823   */\n      dup5\n        /* \"#utility.yul\":1773:1844   */\n      tag_163\n      jump\t// in\n    tag_192:\n        /* \"#utility.yul\":1629:1851   */\n      swap3\n      swap2\n      pop\n      pop\n      jump\t// out\n        /* \"#utility.yul\":1857:1933   */\n    tag_164:\n        /* \"#utility.yul\":1893:1900   */\n      0x00\n        /* \"#utility.yul\":1922:1927   */\n      dup2\n        /* \"#utility.yul\":1911:1927   */\n      swap1\n      pop\n        /* \"#utility.yul\":1857:1933   */\n      swap2\n      swap1\n      pop\n      jump\t// out\n        /* \"#utility.yul\":1939:2059   */\n    tag_165:\n        /* \"#utility.yul\":2011:2034   */\n      tag_195\n        /* \"#utility.yul\":2028:2033   */\n      dup2\n        /* \"#utility.yul\":2011:2034   */\n      tag_164\n      jump\t// in\n    tag_195:\n        /* \"#utility.yul\":2004:2009   */\n      dup2\n        /* \"#utility.yul\":2001:2035   */\n      eq\n        /* \"#utility.yul\":1991:2053   */\n      tag_196\n      jumpi\n        /* \"#utility.yul\":2049:2050   */\n      0x00\n        /* \"#utility.yul\":2046:2047   */\n      dup1\n        /* \"#utility.yul\":2039:2051   */\n      revert\n        /* \"#utility.yul\":1991:2053   */\n    tag_196:\n        /* \"#utility.yul\":1939:2059   */\n      pop\n      jump\t// out\n        /* \"#utility.yul\":2065:2202   */\n    tag_166:\n        /* \"#utility.yul\":2110:2115   */\n      0x00\n        /* \"#utility.yul\":2148:2154   */\n      dup2\n        /* \"#utility.yul\":2135:2155   */\n      calldataload\n        /* \"#utility.yul\":2126:2155   */\n      swap1\n      pop\n        /* \"#utility.yul\":2164:2196   */\n      tag_198\n        /* \"#utility.yul\":2190:2195   */\n      dup2\n        /* \"#utility.yul\":2164:2196   */\n      tag_165\n      jump\t// in\n    tag_198:\n        /* \"#utility.yul\":2065:2202   */\n      swap3\n      swap2\n      pop\n      pop\n      jump\t// out\n        /* \"#utility.yul\":2208:2678   */\n    tag_28:\n        /* \"#utility.yul\":2274:2280   */\n      0x00\n        /* \"#utility.yul\":2282:2288   */\n      dup1\n        /* \"#utility.yul\":2331:2333   */\n      0x40\n        /* \"#utility.yul\":2319:2328   */\n      dup4\n        /* \"#utility.yul\":2310:2317   */\n      dup6\n        /* \"#utility.yul\":2306:2329   */\n      sub\n        /* \"#utility.yul\":2302:2334   */\n      slt\n        /* \"#utility.yul\":2299:2418   */\n      iszero\n      tag_200\n      jumpi\n        /* \"#utility.yul\":2337:2416   */\n      tag_201\n      tag_158\n      jump\t// in\n    tag_201:\n        /* \"#utility.yul\":2299:2418   */\n    tag_200:\n        /* \"#utility.yul\":2457:2458   */\n      0x00\n        /* \"#utility.yul\":2482:2534   */\n      tag_202\n        /* \"#utility.yul\":2526:2533   */\n      dup6\n        /* \"#utility.yul\":2517:2523   */\n      dup3\n        /* \"#utility.yul\":2506:2515   */\n      dup7\n        /* \"#utility.yul\":2502:2524   */\n      add\n        /* \"#utility.yul\":2482:2534   */\n      tag_166\n      jump\t// in\n    tag_202:\n        /* \"#utility.yul\":2472:2534   */\n      swap3\n      pop\n        /* \"#utility.yul\":2428:2544   */\n      pop\n        /* \"#utility.yul\":2583:2585   */\n      0x20\n        /* \"#utility.yul\":2609:2661   */\n      tag_203\n        /* \"#utility.yul\":2653:2660   */\n      dup6\n        /* \"#utility.yul\":2644:2650   */\n      dup3\n        /* \"#utility.yul\":2633:2642   */\n      dup7\n        /* \"#utility.yul\":2629:2651   */\n      add\n        /* \"#utility.yul\":2609:2661   */\n      tag_166\n      jump\t// in\n    tag_203:\n        /* \"#utility.yul\":2599:2661   */\n      swap2\n      pop\n        /* \"#utility.yul\":2554:2671   */\n      pop\n        /* \"#utility.yul\":2208:2678   */\n      swap3\n      pop\n      swap3\n      swap1\n      pop\n      jump\t// out\n        /* \"#utility.yul\":2684:2799   */\n    tag_167:\n        /* \"#utility.yul\":2769:2792   */\n      tag_205\n        /* \"#utility.yul\":2786:2791   */\n      dup2\n        /* \"#utility.yul\":2769:2792   */\n      tag_164\n      jump\t// in\n    tag_205:\n        /* \"#utility.yul\":2764:2767   */\n      dup3\n        /* \"#utility.yul\":2757:2793   */\n      mstore\n        /* \"#utility.yul\":2684:2799   */\n      pop\n      pop\n      jump\t// out\n        /* \"#utility.yul\":2805:3023   */\n    tag_31:\n        /* \"#utility.yul\":2896:2900   */\n      0x00\n        /* \"#utility.yul\":2934:2936   */\n      0x20\n        /* \"#utility.yul\":2923:2932   */\n      dup3\n        /* \"#utility.yul\":2919:2937   */\n      add\n        /* \"#utility.yul\":2911:2937   */\n      swap1\n      pop\n        /* \"#utility.yul\":2947:3016   */\n      tag_207\n        /* \"#utility.yul\":3013:3014   */\n      0x00\n        /* \"#utility.yul\":3002:3011   */\n      dup4\n        /* \"#utility.yul\":2998:3015   */\n      add\n        /* \"#utility.yul\":2989:2995   */\n      dup5\n        /* \"#utility.yul\":2947:3016   */\n      tag_167\n      jump\t// in\n    tag_207:\n        /* \"#utility.yul\":2805:3023   */\n      swap3\n      swap2\n      pop\n      pop\n      jump\t// out\n        /* \"#utility.yul\":3029:3209   */\n    tag_168:\n        /* \"#utility.yul\":3077:3154   */\n      0x4e487b7100000000000000000000000000000000000000000000000000000000\n        /* \"#utility.yul\":3074:3075   */\n      0x00\n        /* \"#utility.yul\":3067:3155   */\n      mstore\n        /* \"#utility.yul\":3174:3178   */\n      0x11\n        /* \"#utility.yul\":3171:3172   */\n      0x04\n        /* \"#utility.yul\":3164:3179   */\n      mstore\n        /* \"#utility.yul\":3198:3202   */\n      0x24\n        /* \"#utility.yul\":3195:3196   */\n      0x00\n        /* \"#utility.yul\":3188:3203   */\n      revert\n        /* \"#utility.yul\":3215:3625   */\n    tag_71:\n        /* \"#utility.yul\":3255:3262   */\n      0x00\n        /* \"#utility.yul\":3278:3298   */\n      tag_210\n        /* \"#utility.yul\":3296:3297   */\n      dup3\n        /* \"#utility.yul\":3278:3298   */\n      tag_160\n      jump\t// in\n    tag_210:\n        /* \"#utility.yul\":3273:3298   */\n      swap2\n      pop\n        /* \"#utility.yul\":3312:3332   */\n      tag_211\n        /* \"#utility.yul\":3330:3331   */\n      dup4\n        /* \"#utility.yul\":3312:3332   */\n      tag_160\n      jump\t// in\n    tag_211:\n        /* \"#utility.yul\":3307:3332   */\n      swap3\n      pop\n        /* \"#utility.yul\":3367:3368   */\n      dup3\n        /* \"#utility.yul\":3364:3365   */\n      dup3\n        /* \"#utility.yul\":3360:3369   */\n      mul\n        /* \"#utility.yul\":3389:3419   */\n      tag_212\n        /* \"#utility.yul\":3407:3418   */\n      dup2\n        /* \"#utility.yul\":3389:3419   */\n      tag_160\n      jump\t// in\n    tag_212:\n        /* \"#utility.yul\":3378:3419   */\n      swap2\n      pop\n        /* \"#utility.yul\":3568:3569   */\n      dup3\n        /* \"#utility.yul\":3559:3566   */\n      dup3\n        /* \"#utility.yul\":3555:3570   */\n      div\n        /* \"#utility.yul\":3552:3553   */\n      dup5\n        /* \"#utility.yul\":3549:3571   */\n      eq\n        /* \"#utility.yul\":3529:3530   */\n      dup4\n        /* \"#utility.yul\":3522:3531   */\n      iszero\n        /* \"#utility.yul\":3502:3585   */\n      or\n        /* \"#utility.yul\":3479:3618   */\n      tag_213\n      jumpi\n        /* \"#utility.yul\":3598:3616   */\n      tag_214\n      tag_168\n      jump\t// in\n    tag_214:\n        /* \"#utility.yul\":3479:3618   */\n    tag_213:\n        /* \"#utility.yul\":3263:3625   */\n      pop\n        /* \"#utility.yul\":3215:3625   */\n      swap3\n      swap2\n      pop\n      pop\n      jump\t// out\n        /* \"#utility.yul\":3631:4073   */\n    tag_90:\n        /* \"#utility.yul\":3780:3784   */\n      0x00\n        /* \"#utility.yul\":3818:3820   */\n      0x60\n        /* \"#utility.yul\":3807:3816   */\n      dup3\n        /* \"#utility.yul\":3803:3821   */\n      add\n        /* \"#utility.yul\":3795:3821   */\n      swap1\n      pop\n        /* \"#utility.yul\":3831:3902   */\n      tag_216\n        /* \"#utility.yul\":3899:3900   */\n      0x00\n        /* \"#utility.yul\":3888:3897   */\n      dup4\n        /* \"#utility.yul\":3884:3901   */\n      add\n        /* \"#utility.yul\":3875:3881   */\n      dup7\n        /* \"#utility.yul\":3831:3902   */\n      tag_163\n      jump\t// in\n    tag_216:\n        /* \"#utility.yul\":3912:3984   */\n      tag_217\n        /* \"#utility.yul\":3980:3982   */\n      0x20\n        /* \"#utility.yul\":3969:3978   */\n      dup4\n        /* \"#utility.yul\":3965:3983   */\n      add\n        /* \"#utility.yul\":3956:3962   */\n      dup6\n        /* \"#utility.yul\":3912:3984   */\n      tag_163\n      jump\t// in\n    tag_217:\n        /* \"#utility.yul\":3994:4066   */\n      tag_218\n        /* \"#utility.yul\":4062:4064   */\n      0x40\n        /* \"#utility.yul\":4051:4060   */\n      dup4\n        /* \"#utility.yul\":4047:4065   */\n      add\n        /* \"#utility.yul\":4038:4044   */\n      dup5\n        /* \"#utility.yul\":3994:4066   */\n      tag_163\n      jump\t// in\n    tag_218:\n        /* \"#utility.yul\":3631:4073   */\n      swap5\n      swap4\n      pop\n      pop\n      pop\n      pop\n      jump\t// out\n        /* \"#utility.yul\":4079:4259   */\n    tag_169:\n        /* \"#utility.yul\":4127:4204   */\n      0x4e487b7100000000000000000000000000000000000000000000000000000000\n        /* \"#utility.yul\":4124:4125   */\n      0x00\n        /* \"#utility.yul\":4117:4205   */\n      mstore\n        /* \"#utility.yul\":4224:4228   */\n      0x12\n        /* \"#utility.yul\":4221:4222   */\n      0x04\n        /* \"#utility.yul\":4214:4229   */\n      mstore\n        /* \"#utility.yul\":4248:4252   */\n      0x24\n        /* \"#utility.yul\":4245:4246   */\n      0x00\n        /* \"#utility.yul\":4238:4253   */\n      revert\n        /* \"#utility.yul\":4265:4441   */\n    tag_96:\n        /* \"#utility.yul\":4297:4298   */\n      0x00\n        /* \"#utility.yul\":4314:4334   */\n      tag_221\n        /* \"#utility.yul\":4332:4333   */\n      dup3\n        /* \"#utility.yul\":4314:4334   */\n      tag_160\n      jump\t// in\n    tag_221:\n        /* \"#utility.yul\":4309:4334   */\n      swap2\n      pop\n        /* \"#utility.yul\":4348:4368   */\n      tag_222\n        /* \"#utility.yul\":4366:4367   */\n      dup4\n        /* \"#utility.yul\":4348:4368   */\n      tag_160\n      jump\t// in\n    tag_222:\n        /* \"#utility.yul\":4343:4368   */\n      swap3\n      pop\n        /* \"#utility.yul\":4387:4388   */\n      dup3\n        /* \"#utility.yul\":4377:4412   */\n      tag_223\n      jumpi\n        /* \"#utility.yul\":4392:4410   */\n      tag_224\n      tag_169\n      jump\t// in\n    tag_224:\n        /* \"#utility.yul\":4377:4412   */\n    tag_223:\n        /* \"#utility.yul\":4433:4434   */\n      dup3\n        /* \"#utility.yul\":4430:4431   */\n      dup3\n        /* \"#utility.yul\":4426:4435   */\n      mod\n        /* \"#utility.yul\":4421:4435   */\n      swap1\n      pop\n        /* \"#utility.yul\":4265:4441   */\n      swap3\n      swap2\n      pop\n      pop\n      jump\t// out\n        /* \"#utility.yul\":4447:4779   */\n    tag_104:\n        /* \"#utility.yul\":4568:4572   */\n      0x00\n        /* \"#utility.yul\":4606:4608   */\n      0x40\n        /* \"#utility.yul\":4595:4604   */\n      dup3\n        /* \"#utility.yul\":4591:4609   */\n      add\n        /* \"#utility.yul\":4583:4609   */\n      swap1\n      pop\n        /* \"#utility.yul\":4619:4690   */\n      tag_226\n        /* \"#utility.yul\":4687:4688   */\n      0x00\n        /* \"#utility.yul\":4676:4685   */\n      dup4\n        /* \"#utility.yul\":4672:4689   */\n      add\n        /* \"#utility.yul\":4663:4669   */\n      dup6\n        /* \"#utility.yul\":4619:4690   */\n      tag_163\n      jump\t// in\n    tag_226:\n        /* \"#utility.yul\":4700:4772   */\n      tag_227\n        /* \"#utility.yul\":4768:4770   */\n      0x20\n        /* \"#utility.yul\":4757:4766   */\n      dup4\n        /* \"#utility.yul\":4753:4771   */\n      add\n        /* \"#utility.yul\":4744:4750   */\n      dup5\n        /* \"#utility.yul\":4700:4772   */\n      tag_163\n      jump\t// in\n    tag_227:\n        /* \"#utility.yul\":4447:4779   */\n      swap4\n      swap3\n      pop\n      pop\n      pop\n      jump\t// out\n        /* \"#utility.yul\":4785:4976   */\n    tag_113:\n        /* \"#utility.yul\":4825:4828   */\n      0x00\n        /* \"#utility.yul\":4844:4864   */\n      tag_229\n        /* \"#utility.yul\":4862:4863   */\n      dup3\n        /* \"#utility.yul\":4844:4864   */\n      tag_160\n      jump\t// in\n    tag_229:\n        /* \"#utility.yul\":4839:4864   */\n      swap2\n      pop\n        /* \"#utility.yul\":4878:4898   */\n      tag_230\n        /* \"#utility.yul\":4896:4897   */\n      dup4\n        /* \"#utility.yul\":4878:4898   */\n      tag_160\n      jump\t// in\n    tag_230:\n        /* \"#utility.yul\":4873:4898   */\n      swap3\n      pop\n        /* \"#utility.yul\":4921:4922   */\n      dup3\n        /* \"#utility.yul\":4918:4919   */\n      dup3\n        /* \"#utility.yul\":4914:4923   */\n      add\n        /* \"#utility.yul\":4907:4923   */\n      swap1\n      pop\n        /* \"#utility.yul\":4942:4945   */\n      dup1\n        /* \"#utility.yul\":4939:4940   */\n      dup3\n        /* \"#utility.yul\":4936:4946   */\n      gt\n        /* \"#utility.yul\":4933:4969   */\n      iszero\n      tag_231\n      jumpi\n        /* \"#utility.yul\":4949:4967   */\n      tag_232\n      tag_168\n      jump\t// in\n    tag_232:\n        /* \"#utility.yul\":4933:4969   */\n    tag_231:\n        /* \"#utility.yul\":4785:4976   */\n      swap3\n      swap2\n      pop\n      pop\n      jump\t// out\n        /* \"#utility.yul\":4982:5167   */\n    tag_131:\n        /* \"#utility.yul\":5022:5023   */\n      0x00\n        /* \"#utility.yul\":5039:5059   */\n      tag_234\n        /* \"#utility.yul\":5057:5058   */\n      dup3\n        /* \"#utility.yul\":5039:5059   */\n      tag_160\n      jump\t// in\n    tag_234:\n        /* \"#utility.yul\":5034:5059   */\n      swap2\n      pop\n        /* \"#utility.yul\":5073:5093   */\n      tag_235\n        /* \"#utility.yul\":5091:5092   */\n      dup4\n        /* \"#utility.yul\":5073:5093   */\n      tag_160\n      jump\t// in\n    tag_235:\n        /* \"#utility.yul\":5068:5093   */\n      swap3\n      pop\n        /* \"#utility.yul\":5112:5113   */\n      dup3\n        /* \"#utility.yul\":5102:5137   */\n      tag_236\n      jumpi\n        /* \"#utility.yul\":5117:5135   */\n      tag_237\n      tag_169\n      jump\t// in\n    tag_237:\n        /* \"#utility.yul\":5102:5137   */\n    tag_236:\n        /* \"#utility.yul\":5159:5160   */\n      dup3\n        /* \"#utility.yul\":5156:5157   */\n      dup3\n        /* \"#utility.yul\":5152:5161   */\n      div\n        /* \"#utility.yul\":5147:5161   */\n      swap1\n      pop\n        /* \"#utility.yul\":4982:5167   */\n      swap3\n      swap2\n      pop\n      pop\n      jump\t// out\n        /* \"#utility.yul\":5173:5545   */\n    tag_139:\n        /* \"#utility.yul\":5212:5216   */\n      0x00\n        /* \"#utility.yul\":5232:5251   */\n      tag_239\n        /* \"#utility.yul\":5249:5250   */\n      dup3\n        /* \"#utility.yul\":5232:5251   */\n      tag_164\n      jump\t// in\n    tag_239:\n        /* \"#utility.yul\":5227:5251   */\n      swap2\n      pop\n        /* \"#utility.yul\":5265:5284   */\n      tag_240\n        /* \"#utility.yul\":5282:5283   */\n      dup4\n        /* \"#utility.yul\":5265:5284   */\n      tag_164\n      jump\t// in\n    tag_240:\n        /* \"#utility.yul\":5260:5284   */\n      swap3\n      pop\n        /* \"#utility.yul\":5308:5309   */\n      dup3\n        /* \"#utility.yul\":5305:5306   */\n      dup3\n        /* \"#utility.yul\":5301:5310   */\n      sub\n        /* \"#utility.yul\":5293:5310   */\n      swap1\n      pop\n        /* \"#utility.yul\":5502:5503   */\n      dup2\n        /* \"#utility.yul\":5496:5500   */\n      dup2\n        /* \"#utility.yul\":5492:5504   */\n      slt\n        /* \"#utility.yul\":5488:5489   */\n      0x00\n        /* \"#utility.yul\":5485:5486   */\n      dup5\n        /* \"#utility.yul\":5481:5490   */\n      slt\n        /* \"#utility.yul\":5477:5505   */\n      and\n        /* \"#utility.yul\":5460:5461   */\n      dup3\n        /* \"#utility.yul\":5454:5458   */\n      dup3\n        /* \"#utility.yul\":5450:5462   */\n      sgt\n        /* \"#utility.yul\":5445:5446   */\n      0x00\n        /* \"#utility.yul\":5442:5443   */\n      dup6\n        /* \"#utility.yul\":5438:5447   */\n      slt\n        /* \"#utility.yul\":5431:5448   */\n      iszero\n        /* \"#utility.yul\":5427:5463   */\n      and\n        /* \"#utility.yul\":5411:5515   */\n      or\n        /* \"#utility.yul\":5408:5538   */\n      iszero\n      tag_241\n      jumpi\n        /* \"#utility.yul\":5518:5536   */\n      tag_242\n      tag_168\n      jump\t// in\n    tag_242:\n        /* \"#utility.yul\":5408:5538   */\n    tag_241:\n        /* \"#utility.yul\":5173:5545   */\n      swap3\n      swap2\n      pop\n      pop\n      jump\t// out\n        /* \"#utility.yul\":5551:5745   */\n    tag_156:\n        /* \"#utility.yul\":5591:5595   */\n      0x00\n        /* \"#utility.yul\":5611:5631   */\n      tag_244\n        /* \"#utility.yul\":5629:5630   */\n      dup3\n        /* \"#utility.yul\":5611:5631   */\n      tag_160\n      jump\t// in\n    tag_244:\n        /* \"#utility.yul\":5606:5631   */\n      swap2\n      pop\n        /* \"#utility.yul\":5645:5665   */\n      tag_245\n        /* \"#utility.yul\":5663:5664   */\n      dup4\n        /* \"#utility.yul\":5645:5665   */\n      tag_160\n      jump\t// in\n    tag_245:\n        /* \"#utility.yul\":5640:5665   */\n      swap3\n      pop\n        /* \"#utility.yul\":5689:5690   */\n      dup3\n        /* \"#utility.yul\":5686:5687   */\n      dup3\n        /* \"#utility.yul\":5682:5691   */\n      sub\n        /* \"#utility.yul\":5674:5691   */\n      swap1\n      pop\n        /* \"#utility.yul\":5713:5714   */\n      dup2\n        /* \"#utility.yul\":5707:5711   */\n      dup2\n        /* \"#utility.yul\":5704:5715   */\n      gt\n        /* \"#utility.yul\":5701:5738   */\n      iszero\n      tag_246\n      jumpi\n        /* \"#utility.yul\":5718:5736   */\n      tag_247\n      tag_168\n      jump\t// in\n    tag_247:\n        /* \"#utility.yul\":5701:5738   */\n    tag_246:\n        /* \"#utility.yul\":5551:5745   */\n      swap3\n      swap2\n      pop\n      pop\n      jump\t// out\n\n    auxdata: 0xa2646970667358221220c54d123bfeb762e386f70fa2540500091badb1a0482b7141a55324a27fc4917864736f6c63430008180033\n}\n",
				"bytecode": {
					"linkReferences": {},
					"object": "608060405260015f55348015610013575f80fd5b50610b15806100215f395ff3fe608060405234801561000f575f80fd5b50600436106100b2575f3560e01c8063677342ce1161006f578063677342ce146101b0578063834ba3a7146101e0578063cad0899b14610210578063cba5477c14610240578063cdeb331414610270578063e0068052146102a0576100b2565b806305e30f51146100b65780632b7423ab146100d25780632efad609146101025780632f8cd8b11461013257806349175e4b146101625780636537214714610192575b5f80fd5b6100d060048036038101906100cb91906107b8565b6102d0565b005b6100ec60048036038101906100e791906107e3565b6102f2565b6040516100f99190610830565b60405180910390f35b61011c6004803603810190610117919061087c565b610321565b60405161012991906108c9565b60405180910390f35b61014c600480360381019061014791906107e3565b610334565b6040516101599190610830565b60405180910390f35b61017c600480360381019061017791906107e3565b6103bd565b6040516101899190610830565b60405180910390f35b61019a61042a565b6040516101a79190610830565b60405180910390f35b6101ca60048036038101906101c591906107b8565b61042f565b6040516101d79190610830565b60405180910390f35b6101fa60048036038101906101f591906107e3565b610487565b6040516102079190610830565b60405180910390f35b61022a600480360381019061022591906107e3565b6104f3565b6040516102379190610830565b60405180910390f35b61025a600480360381019061025591906107e3565b610544565b6040516102679190610830565b60405180910390f35b61028a600480360381019061028591906107e3565b6105ae565b6040516102979190610830565b60405180910390f35b6102ba60048036038101906102b591906107e3565b6105fc565b6040516102c79190610830565b60405180910390f35b805f81116102dc575f80fd5b815f546102e9919061090f565b5f819055505050565b5f82825f8211158061030457505f8111155b1561030d575f80fd5b6103178585610669565b9250505092915050565b5f61032c83836106c6565b905092915050565b5f82825f8211158061034657505f8111155b1561034f575f80fd5b600192505f5b84811015610378578584610369919061090f565b93508080600101915050610355565b507f8f88adbfbd9fac1a93415da25ad2a978a2ed5ecf0179be666a5c0aa82f8df26585855f546040516103ad93929190610950565b60405180910390a1505092915050565b5f82825f821115806103cf57505f8111155b156103d8575f80fd5b83856103e491906109b2565b92507fcfee31662af25188f47f9d61b42c3c6d09562d047aeb60b7d5734902f09a9dab85855f5460405161041a93929190610950565b60405180910390a1505092915050565b5f5481565b5f815f811161043c575f80fd5b610445836106db565b91507f26a1b23e060f39984a0f8126724012d0e30d422d48168fd724ca09b04bce02e0835f546040516104799291906109e2565b60405180910390a150919050565b5f82825f8211158061049957505f8111155b156104a2575f80fd5b83856104ae919061090f565b92507f335998e93ba3244a0211e8567928b9e75100151dc4bb0c7701d715ea462b279a8585856040516104e393929190610950565b60405180910390a1505092915050565b5f81836105009190610a09565b90507fed389495059e3255c7a92671d5719bf4fd25064cd6bbbe911affd790ed68154183835f5460405161053693929190610950565b60405180910390a192915050565b5f82825f8211158061055657505f8111155b1561055f575f80fd5b6105698585610752565b92507eae92cff874140cbe97e7efc6ffd3c3dd667ee2b4c69fa357765af8fcf4d80485855f5460405161059e93929190610950565b60405180910390a1505092915050565b5f6105b9838361076c565b90507f02325f53408b10d20290d06f069ad56eb7ecae5db225e14d71cda2c523652c5b8383836040516105ee93929190610950565b60405180910390a192915050565b5f82825f8211158061060e57505f8111155b15610617575f80fd5b83856106239190610a3c565b92507fd8ef84f712e41d28f98fe74cd153013023d849514d0a40ee61834f3c385055ce85855f5460405161065993929190610950565b60405180910390a1505092915050565b5f600282846106789190610a09565b6106829190610a3c565b90507f71f9bbe40e9c99d1bc6b2a11e8a7b97bceb63804cdea6bc30f96f2a0eb12ecd483835f546040516106b893929190610950565b60405180910390a192915050565b5f81836106d39190610a6c565b905092915050565b5f6003821115610740578190505f60016002846106f89190610a3c565b6107029190610a09565b90505b8181101561073a57809150600281828561071f9190610a3c565b6107299190610a09565b6107339190610a3c565b9050610705565b5061074d565b5f821461074c57600190505b5b919050565b5f81831061076257829050610766565b8190505b92915050565b5f81836107799190610aac565b905092915050565b5f80fd5b5f819050919050565b61079781610785565b81146107a1575f80fd5b50565b5f813590506107b28161078e565b92915050565b5f602082840312156107cd576107cc610781565b5b5f6107da848285016107a4565b91505092915050565b5f80604083850312156107f9576107f8610781565b5b5f610806858286016107a4565b9250506020610817858286016107a4565b9150509250929050565b61082a81610785565b82525050565b5f6020820190506108435f830184610821565b92915050565b5f819050919050565b61085b81610849565b8114610865575f80fd5b50565b5f8135905061087681610852565b92915050565b5f806040838503121561089257610891610781565b5b5f61089f85828601610868565b92505060206108b085828601610868565b9150509250929050565b6108c381610849565b82525050565b5f6020820190506108dc5f8301846108ba565b92915050565b7f4e487b71000000000000000000000000000000000000000000000000000000005f52601160045260245ffd5b5f61091982610785565b915061092483610785565b925082820261093281610785565b91508282048414831517610949576109486108e2565b5b5092915050565b5f6060820190506109635f830186610821565b6109706020830185610821565b61097d6040830184610821565b949350505050565b7f4e487b71000000000000000000000000000000000000000000000000000000005f52601260045260245ffd5b5f6109bc82610785565b91506109c783610785565b9250826109d7576109d6610985565b5b828206905092915050565b5f6040820190506109f55f830185610821565b610a026020830184610821565b9392505050565b5f610a1382610785565b9150610a1e83610785565b9250828201905080821115610a3657610a356108e2565b5b92915050565b5f610a4682610785565b9150610a5183610785565b925082610a6157610a60610985565b5b828204905092915050565b5f610a7682610849565b9150610a8183610849565b925082820390508181125f8412168282135f851215161715610aa657610aa56108e2565b5b92915050565b5f610ab682610785565b9150610ac183610785565b9250828203905081811115610ad957610ad86108e2565b5b9291505056fea2646970667358221220c54d123bfeb762e386f70fa2540500091badb1a0482b7141a55324a27fc4917864736f6c63430008180033",
					"opcodes": "PUSH1 0x80 PUSH1 0x40 MSTORE PUSH1 0x1 PUSH0 SSTORE CALLVALUE DUP1 ISZERO PUSH2 0x13 JUMPI PUSH0 DUP1 REVERT JUMPDEST POP PUSH2 0xB15 DUP1 PUSH2 0x21 PUSH0 CODECOPY PUSH0 RETURN INVALID PUSH1 0x80 PUSH1 0x40 MSTORE CALLVALUE DUP1 ISZERO PUSH2 0xF JUMPI PUSH0 DUP1 REVERT JUMPDEST POP PUSH1 0x4 CALLDATASIZE LT PUSH2 0xB2 JUMPI PUSH0 CALLDATALOAD PUSH1 0xE0 SHR DUP1 PUSH4 0x677342CE GT PUSH2 0x6F JUMPI DUP1 PUSH4 0x677342CE EQ PUSH2 0x1B0 JUMPI DUP1 PUSH4 0x834BA3A7 EQ PUSH2 0x1E0 JUMPI DUP1 PUSH4 0xCAD0899B EQ PUSH2 0x210 JUMPI DUP1 PUSH4 0xCBA5477C EQ PUSH2 0x240 JUMPI DUP1 PUSH4 0xCDEB3314 EQ PUSH2 0x270 JUMPI DUP1 PUSH4 0xE0068052 EQ PUSH2 0x2A0 JUMPI PUSH2 0xB2 JUMP JUMPDEST DUP1 PUSH4 0x5E30F51 EQ PUSH2 0xB6 JUMPI DUP1 PUSH4 0x2B7423AB EQ PUSH2 0xD2 JUMPI DUP1 PUSH4 0x2EFAD609 EQ PUSH2 0x102 JUMPI DUP1 PUSH4 0x2F8CD8B1 EQ PUSH2 0x132 JUMPI DUP1 PUSH4 0x49175E4B EQ PUSH2 0x162 JUMPI DUP1 PUSH4 0x65372147 EQ PUSH2 0x192 JUMPI JUMPDEST PUSH0 DUP1 REVERT JUMPDEST PUSH2 0xD0 PUSH1 0x4 DUP1 CALLDATASIZE SUB DUP2 ADD SWAP1 PUSH2 0xCB SWAP2 SWAP1 PUSH2 0x7B8 JUMP JUMPDEST PUSH2 0x2D0 JUMP JUMPDEST STOP JUMPDEST PUSH2 0xEC PUSH1 0x4 DUP1 CALLDATASIZE SUB DUP2 ADD SWAP1 PUSH2 0xE7 SWAP2 SWAP1 PUSH2 0x7E3 JUMP JUMPDEST PUSH2 0x2F2 JUMP JUMPDEST PUSH1 0x40 MLOAD PUSH2 0xF9 SWAP2 SWAP1 PUSH2 0x830 JUMP JUMPDEST PUSH1 0x40 MLOAD DUP1 SWAP2 SUB SWAP1 RETURN JUMPDEST PUSH2 0x11C PUSH1 0x4 DUP1 CALLDATASIZE SUB DUP2 ADD SWAP1 PUSH2 0x117 SWAP2 SWAP1 PUSH2 0x87C JUMP JUMPDEST PUSH2 0x321 JUMP JUMPDEST PUSH1 0x40 MLOAD PUSH2 0x129 SWAP2 SWAP1 PUSH2 0x8C9 JUMP JUMPDEST PUSH1 0x40 MLOAD DUP1 SWAP2 SUB SWAP1 RETURN JUMPDEST PUSH2 0x14C PUSH1 0x4 DUP1 CALLDATASIZE SUB DUP2 ADD SWAP1 PUSH2 0x147 SWAP2 SWAP1 PUSH2 0x7E3 JUMP JUMPDEST PUSH2 0x334 JUMP JUMPDEST PUSH1 0x40 MLOAD PUSH2 0x159 SWAP2 SWAP1 PUSH2 0x830 JUMP JUMPDEST PUSH1 0x40 MLOAD DUP1 SWAP2 SUB SWAP1 RETURN JUMPDEST PUSH2 0x17C PUSH1 0x4 DUP1 CALLDATASIZE SUB DUP2 ADD SWAP1 PUSH2 0x177 SWAP2 SWAP1 PUSH2 0x7E3 JUMP JUMPDEST PUSH2 0x3BD JUMP JUMPDEST PUSH1 0x40 MLOAD PUSH2 0x189 SWAP2 SWAP1 PUSH2 0x830 JUMP JUMPDEST PUSH1 0x40 MLOAD DUP1 SWAP2 SUB SWAP1 RETURN JUMPDEST PUSH2 0x19A PUSH2 0x42A JUMP JUMPDEST PUSH1 0x40 MLOAD PUSH2 0x1A7 SWAP2 SWAP1 PUSH2 0x830 JUMP JUMPDEST PUSH1 0x40 MLOAD DUP1 SWAP2 SUB SWAP1 RETURN JUMPDEST PUSH2 0x1CA PUSH1 0x4 DUP1 CALLDATASIZE SUB DUP2 ADD SWAP1 PUSH2 0x1C5 SWAP2 SWAP1 PUSH2 0x7B8 JUMP JUMPDEST PUSH2 0x42F JUMP JUMPDEST PUSH1 0x40 MLOAD PUSH2 0x1D7 SWAP2 SWAP1 PUSH2 0x830 JUMP JUMPDEST PUSH1 0x40 MLOAD DUP1 SWAP2 SUB SWAP1 RETURN JUMPDEST PUSH2 0x1FA PUSH1 0x4 DUP1 CALLDATASIZE SUB DUP2 ADD SWAP1 PUSH2 0x1F5 SWAP2 SWAP1 PUSH2 0x7E3 JUMP JUMPDEST PUSH2 0x487 JUMP JUMPDEST PUSH1 0x40 MLOAD PUSH2 0x207 SWAP2 SWAP1 PUSH2 0x830 JUMP JUMPDEST PUSH1 0x40 MLOAD DUP1 SWAP2 SUB SWAP1 RETURN JUMPDEST PUSH2 0x22A PUSH1 0x4 DUP1 CALLDATASIZE SUB DUP2 ADD SWAP1 PUSH2 0x225 SWAP2 SWAP1 PUSH2 0x7E3 JUMP JUMPDEST PUSH2 0x4F3 JUMP JUMPDEST PUSH1 0x40 MLOAD PUSH2 0x237 SWAP2 SWAP1 PUSH2 0x830 JUMP JUMPDEST PUSH1 0x40 MLOAD DUP1 SWAP2 SUB SWAP1 RETURN JUMPDEST PUSH2 0x25A PUSH1 0x4 DUP1 CALLDATASIZE SUB DUP2 ADD SWAP1 PUSH2 0x255 SWAP2 SWAP1 PUSH2 0x7E3 JUMP JUMPDEST PUSH2 0x544 JUMP JUMPDEST PUSH1 0x40 MLOAD PUSH2 0x267 SWAP2 SWAP1 PUSH2 0x830 JUMP JUMPDEST PUSH1 0x40 MLOAD DUP1 SWAP2 SUB SWAP1 RETURN JUMPDEST PUSH2 0x28A PUSH1 0x4 DUP1 CALLDATASIZE SUB DUP2 ADD SWAP1 PUSH2 0x285 SWAP2 SWAP1 PUSH2 0x7E3 JUMP JUMPDEST PUSH2 0x5AE JUMP JUMPDEST PUSH1 0x40 MLOAD PUSH2 0x297 SWAP2 SWAP1 PUSH2 0x830 JUMP JUMPDEST PUSH1 0x40 MLOAD DUP1 SWAP2 SUB SWAP1 RETURN JUMPDEST PUSH2 0x2BA PUSH1 0x4 DUP1 CALLDATASIZE SUB DUP2 ADD SWAP1 PUSH2 0x2B5 SWAP2 SWAP1 PUSH2 0x7E3 JUMP JUMPDEST PUSH2 0x5FC JUMP JUMPDEST PUSH1 0x40 MLOAD PUSH2 0x2C7 SWAP2 SWAP1 PUSH2 0x830 JUMP JUMPDEST PUSH1 0x40 MLOAD DUP1 SWAP2 SUB SWAP1 RETURN JUMPDEST DUP1 PUSH0 DUP2 GT PUSH2 0x2DC JUMPI PUSH0 DUP1 REVERT JUMPDEST DUP2 PUSH0 SLOAD PUSH2 0x2E9 SWAP2 SWAP1 PUSH2 0x90F JUMP JUMPDEST PUSH0 DUP2 SWAP1 SSTORE POP POP POP JUMP JUMPDEST PUSH0 DUP3 DUP3 PUSH0 DUP3 GT ISZERO DUP1 PUSH2 0x304 JUMPI POP PUSH0 DUP2 GT ISZERO JUMPDEST ISZERO PUSH2 0x30D JUMPI PUSH0 DUP1 REVERT JUMPDEST PUSH2 0x317 DUP6 DUP6 PUSH2 0x669 JUMP JUMPDEST SWAP3 POP POP POP SWAP3 SWAP2 POP POP JUMP JUMPDEST PUSH0 PUSH2 0x32C DUP4 DUP4 PUSH2 0x6C6 JUMP JUMPDEST SWAP1 POP SWAP3 SWAP2 POP POP JUMP JUMPDEST PUSH0 DUP3 DUP3 PUSH0 DUP3 GT ISZERO DUP1 PUSH2 0x346 JUMPI POP PUSH0 DUP2 GT ISZERO JUMPDEST ISZERO PUSH2 0x34F JUMPI PUSH0 DUP1 REVERT JUMPDEST PUSH1 0x1 SWAP3 POP PUSH0 JUMPDEST DUP5 DUP2 LT ISZERO PUSH2 0x378 JUMPI DUP6 DUP5 PUSH2 0x369 SWAP2 SWAP1 PUSH2 0x90F JUMP JUMPDEST SWAP4 POP DUP1 DUP1 PUSH1 0x1 ADD SWAP2 POP POP PUSH2 0x355 JUMP JUMPDEST POP PUSH32 0x8F88ADBFBD9FAC1A93415DA25AD2A978A2ED5ECF0179BE666A5C0AA82F8DF265 DUP6 DUP6 PUSH0 SLOAD PUSH1 0x40 MLOAD PUSH2 0x3AD SWAP4 SWAP3 SWAP2 SWAP1 PUSH2 0x950 JUMP JUMPDEST PUSH1 0x40 MLOAD DUP1 SWAP2 SUB SWAP1 LOG1 POP POP SWAP3 SWAP2 POP POP JUMP JUMPDEST PUSH0 DUP3 DUP3 PUSH0 DUP3 GT ISZERO DUP1 PUSH2 0x3CF JUMPI POP PUSH0 DUP2 GT ISZERO JUMPDEST ISZERO PUSH2 0x3D8 JUMPI PUSH0 DUP1 REVERT JUMPDEST DUP4 DUP6 PUSH2 0x3E4 SWAP2 SWAP1 PUSH2 0x9B2 JUMP JUMPDEST SWAP3 POP PUSH32 0xCFEE31662AF25188F47F9D61B42C3C6D09562D047AEB60B7D5734902F09A9DAB DUP6 DUP6 PUSH0 SLOAD PUSH1 0x40 MLOAD PUSH2 0x41A SWAP4 SWAP3 SWAP2 SWAP1 PUSH2 0x950 JUMP JUMPDEST PUSH1 0x40 MLOAD DUP1 SWAP2 SUB SWAP1 LOG1 POP POP SWAP3 SWAP2 POP POP JUMP JUMPDEST PUSH0 SLOAD DUP2 JUMP JUMPDEST PUSH0 DUP2 PUSH0 DUP2 GT PUSH2 0x43C JUMPI PUSH0 DUP1 REVERT JUMPDEST PUSH2 0x445 DUP4 PUSH2 0x6DB JUMP JUMPDEST SWAP2 POP PUSH32 0x26A1B23E060F39984A0F8126724012D0E30D422D48168FD724CA09B04BCE02E0 DUP4 PUSH0 SLOAD PUSH1 0x40 MLOAD PUSH2 0x479 SWAP3 SWAP2 SWAP1 PUSH2 0x9E2 JUMP JUMPDEST PUSH1 0x40 MLOAD DUP1 SWAP2 SUB SWAP1 LOG1 POP SWAP2 SWAP1 POP JUMP JUMPDEST PUSH0 DUP3 DUP3 PUSH0 DUP3 GT ISZERO DUP1 PUSH2 0x499 JUMPI POP PUSH0 DUP2 GT ISZERO JUMPDEST ISZERO PUSH2 0x4A2 JUMPI PUSH0 DUP1 REVERT JUMPDEST DUP4 DUP6 PUSH2 0x4AE SWAP2 SWAP1 PUSH2 0x90F JUMP JUMPDEST SWAP3 POP PUSH32 0x335998E93BA3244A0211E8567928B9E75100151DC4BB0C7701D715EA462B279A DUP6 DUP6 DUP6 PUSH1 0x40 MLOAD PUSH2 0x4E3 SWAP4 SWAP3 SWAP2 SWAP1 PUSH2 0x950 JUMP JUMPDEST PUSH1 0x40 MLOAD DUP1 SWAP2 SUB SWAP1 LOG1 POP POP SWAP3 SWAP2 POP POP JUMP JUMPDEST PUSH0 DUP2 DUP4 PUSH2 0x500 SWAP2 SWAP1 PUSH2 0xA09 JUMP JUMPDEST SWAP1 POP PUSH32 0xED389495059E3255C7A92671D5719BF4FD25064CD6BBBE911AFFD790ED681541 DUP4 DUP4 PUSH0 SLOAD PUSH1 0x40 MLOAD PUSH2 0x536 SWAP4 SWAP3 SWAP2 SWAP1 PUSH2 0x950 JUMP JUMPDEST PUSH1 0x40 MLOAD DUP1 SWAP2 SUB SWAP1 LOG1 SWAP3 SWAP2 POP POP JUMP JUMPDEST PUSH0 DUP3 DUP3 PUSH0 DUP3 GT ISZERO DUP1 PUSH2 0x556 JUMPI POP PUSH0 DUP2 GT ISZERO JUMPDEST ISZERO PUSH2 0x55F JUMPI PUSH0 DUP1 REVERT JUMPDEST PUSH2 0x569 DUP6 DUP6 PUSH2 0x752 JUMP JUMPDEST SWAP3 POP PUSH31 0xAE92CFF874140CBE97E7EFC6FFD3C3DD667EE2B4C69FA357765AF8FCF4D804 DUP6 DUP6 PUSH0 SLOAD PUSH1 0x40 MLOAD PUSH2 0x59E SWAP4 SWAP3 SWAP2 SWAP1 PUSH2 0x950 JUMP JUMPDEST PUSH1 0x40 MLOAD DUP1 SWAP2 SUB SWAP1 LOG1 POP POP SWAP3 SWAP2 POP POP JUMP JUMPDEST PUSH0 PUSH2 0x5B9 DUP4 DUP4 PUSH2 0x76C JUMP JUMPDEST SWAP1 POP PUSH32 0x2325F53408B10D20290D06F069AD56EB7ECAE5DB225E14D71CDA2C523652C5B DUP4 DUP4 DUP4 PUSH1 0x40 MLOAD PUSH2 0x5EE SWAP4 SWAP3 SWAP2 SWAP1 PUSH2 0x950 JUMP JUMPDEST PUSH1 0x40 MLOAD DUP1 SWAP2 SUB SWAP1 LOG1 SWAP3 SWAP2 POP POP JUMP JUMPDEST PUSH0 DUP3 DUP3 PUSH0 DUP3 GT ISZERO DUP1 PUSH2 0x60E JUMPI POP PUSH0 DUP2 GT ISZERO JUMPDEST ISZERO PUSH2 0x617 JUMPI PUSH0 DUP1 REVERT JUMPDEST DUP4 DUP6 PUSH2 0x623 SWAP2 SWAP1 PUSH2 0xA3C JUMP JUMPDEST SWAP3 POP PUSH32 0xD8EF84F712E41D28F98FE74CD153013023D849514D0A40EE61834F3C385055CE DUP6 DUP6 PUSH0 SLOAD PUSH1 0x40 MLOAD PUSH2 0x659 SWAP4 SWAP3 SWAP2 SWAP1 PUSH2 0x950 JUMP JUMPDEST PUSH1 0x40 MLOAD DUP1 SWAP2 SUB SWAP1 LOG1 POP POP SWAP3 SWAP2 POP POP JUMP JUMPDEST PUSH0 PUSH1 0x2 DUP3 DUP5 PUSH2 0x678 SWAP2 SWAP1 PUSH2 0xA09 JUMP JUMPDEST PUSH2 0x682 SWAP2 SWAP1 PUSH2 0xA3C JUMP JUMPDEST SWAP1 POP PUSH32 0x71F9BBE40E9C99D1BC6B2A11E8A7B97BCEB63804CDEA6BC30F96F2A0EB12ECD4 DUP4 DUP4 PUSH0 SLOAD PUSH1 0x40 MLOAD PUSH2 0x6B8 SWAP4 SWAP3 SWAP2 SWAP1 PUSH2 0x950 JUMP JUMPDEST PUSH1 0x40 MLOAD DUP1 SWAP2 SUB SWAP1 LOG1 SWAP3 SWAP2 POP POP JUMP JUMPDEST PUSH0 DUP2 DUP4 PUSH2 0x6D3 SWAP2 SWAP1 PUSH2 0xA6C JUMP JUMPDEST SWAP1 POP SWAP3 SWAP2 POP POP JUMP JUMPDEST PUSH0 PUSH1 0x3 DUP3 GT ISZERO PUSH2 0x740 JUMPI DUP2 SWAP1 POP PUSH0 PUSH1 0x1 PUSH1 0x2 DUP5 PUSH2 0x6F8 SWAP2 SWAP1 PUSH2 0xA3C JUMP JUMPDEST PUSH2 0x702 SWAP2 SWAP1 PUSH2 0xA09 JUMP JUMPDEST SWAP1 POP JUMPDEST DUP2 DUP2 LT ISZERO PUSH2 0x73A JUMPI DUP1 SWAP2 POP PUSH1 0x2 DUP2 DUP3 DUP6 PUSH2 0x71F SWAP2 SWAP1 PUSH2 0xA3C JUMP JUMPDEST PUSH2 0x729 SWAP2 SWAP1 PUSH2 0xA09 JUMP JUMPDEST PUSH2 0x733 SWAP2 SWAP1 PUSH2 0xA3C JUMP JUMPDEST SWAP1 POP PUSH2 0x705 JUMP JUMPDEST POP PUSH2 0x74D JUMP JUMPDEST PUSH0 DUP3 EQ PUSH2 0x74C JUMPI PUSH1 0x1 SWAP1 POP JUMPDEST JUMPDEST SWAP2 SWAP1 POP JUMP JUMPDEST PUSH0 DUP2 DUP4 LT PUSH2 0x762 JUMPI DUP3 SWAP1 POP PUSH2 0x766 JUMP JUMPDEST DUP2 SWAP1 POP JUMPDEST SWAP3 SWAP2 POP POP JUMP JUMPDEST PUSH0 DUP2 DUP4 PUSH2 0x779 SWAP2 SWAP1 PUSH2 0xAAC JUMP JUMPDEST SWAP1 POP SWAP3 SWAP2 POP POP JUMP JUMPDEST PUSH0 DUP1 REVERT JUMPDEST PUSH0 DUP2 SWAP1 POP SWAP2 SWAP1 POP JUMP JUMPDEST PUSH2 0x797 DUP2 PUSH2 0x785 JUMP JUMPDEST DUP2 EQ PUSH2 0x7A1 JUMPI PUSH0 DUP1 REVERT JUMPDEST POP JUMP JUMPDEST PUSH0 DUP2 CALLDATALOAD SWAP1 POP PUSH2 0x7B2 DUP2 PUSH2 0x78E JUMP JUMPDEST SWAP3 SWAP2 POP POP JUMP JUMPDEST PUSH0 PUSH1 0x20 DUP3 DUP5 SUB SLT ISZERO PUSH2 0x7CD JUMPI PUSH2 0x7CC PUSH2 0x781 JUMP JUMPDEST JUMPDEST PUSH0 PUSH2 0x7DA DUP5 DUP3 DUP6 ADD PUSH2 0x7A4 JUMP JUMPDEST SWAP2 POP POP SWAP3 SWAP2 POP POP JUMP JUMPDEST PUSH0 DUP1 PUSH1 0x40 DUP4 DUP6 SUB SLT ISZERO PUSH2 0x7F9 JUMPI PUSH2 0x7F8 PUSH2 0x781 JUMP JUMPDEST JUMPDEST PUSH0 PUSH2 0x806 DUP6 DUP3 DUP7 ADD PUSH2 0x7A4 JUMP JUMPDEST SWAP3 POP POP PUSH1 0x20 PUSH2 0x817 DUP6 DUP3 DUP7 ADD PUSH2 0x7A4 JUMP JUMPDEST SWAP2 POP POP SWAP3 POP SWAP3 SWAP1 POP JUMP JUMPDEST PUSH2 0x82A DUP2 PUSH2 0x785 JUMP JUMPDEST DUP3 MSTORE POP POP JUMP JUMPDEST PUSH0 PUSH1 0x20 DUP3 ADD SWAP1 POP PUSH2 0x843 PUSH0 DUP4 ADD DUP5 PUSH2 0x821 JUMP JUMPDEST SWAP3 SWAP2 POP POP JUMP JUMPDEST PUSH0 DUP2 SWAP1 POP SWAP2 SWAP1 POP JUMP JUMPDEST PUSH2 0x85B DUP2 PUSH2 0x849 JUMP JUMPDEST DUP2 EQ PUSH2 0x865 JUMPI PUSH0 DUP1 REVERT JUMPDEST POP JUMP JUMPDEST PUSH0 DUP2 CALLDATALOAD SWAP1 POP PUSH2 0x876 DUP2 PUSH2 0x852 JUMP JUMPDEST SWAP3 SWAP2 POP POP JUMP JUMPDEST PUSH0 DUP1 PUSH1 0x40 DUP4 DUP6 SUB SLT ISZERO PUSH2 0x892 JUMPI PUSH2 0x891 PUSH2 0x781 JUMP JUMPDEST JUMPDEST PUSH0 PUSH2 0x89F DUP6 DUP3 DUP7 ADD PUSH2 0x868 JUMP JUMPDEST SWAP3 POP POP PUSH1 0x20 PUSH2 0x8B0 DUP6 DUP3 DUP7 ADD PUSH2 0x868 JUMP JUMPDEST SWAP2 POP POP SWAP3 POP SWAP3 SWAP1 POP JUMP JUMPDEST PUSH2 0x8C3 DUP2 PUSH2 0x849 JUMP JUMPDEST DUP3 MSTORE POP POP JUMP JUMPDEST PUSH0 PUSH1 0x20 DUP3 ADD SWAP1 POP PUSH2 0x8DC PUSH0 DUP4 ADD DUP5 PUSH2 0x8BA JUMP JUMPDEST SWAP3 SWAP2 POP POP JUMP JUMPDEST PUSH32 0x4E487B7100000000000000000000000000000000000000000000000000000000 PUSH0 MSTORE PUSH1 0x11 PUSH1 0x4 MSTORE PUSH1 0x24 PUSH0 REVERT JUMPDEST PUSH0 PUSH2 0x919 DUP3 PUSH2 0x785 JUMP JUMPDEST SWAP2 POP PUSH2 0x924 DUP4 PUSH2 0x785 JUMP JUMPDEST SWAP3 POP DUP3 DUP3 MUL PUSH2 0x932 DUP2 PUSH2 0x785 JUMP JUMPDEST SWAP2 POP DUP3 DUP3 DIV DUP5 EQ DUP4 ISZERO OR PUSH2 0x949 JUMPI PUSH2 0x948 PUSH2 0x8E2 JUMP JUMPDEST JUMPDEST POP SWAP3 SWAP2 POP POP JUMP JUMPDEST PUSH0 PUSH1 0x60 DUP3 ADD SWAP1 POP PUSH2 0x963 PUSH0 DUP4 ADD DUP7 PUSH2 0x821 JUMP JUMPDEST PUSH2 0x970 PUSH1 0x20 DUP4 ADD DUP6 PUSH2 0x821 JUMP JUMPDEST PUSH2 0x97D PUSH1 0x40 DUP4 ADD DUP5 PUSH2 0x821 JUMP JUMPDEST SWAP5 SWAP4 POP POP POP POP JUMP JUMPDEST PUSH32 0x4E487B7100000000000000000000000000000000000000000000000000000000 PUSH0 MSTORE PUSH1 0x12 PUSH1 0x4 MSTORE PUSH1 0x24 PUSH0 REVERT JUMPDEST PUSH0 PUSH2 0x9BC DUP3 PUSH2 0x785 JUMP JUMPDEST SWAP2 POP PUSH2 0x9C7 DUP4 PUSH2 0x785 JUMP JUMPDEST SWAP3 POP DUP3 PUSH2 0x9D7 JUMPI PUSH2 0x9D6 PUSH2 0x985 JUMP JUMPDEST JUMPDEST DUP3 DUP3 MOD SWAP1 POP SWAP3 SWAP2 POP POP JUMP JUMPDEST PUSH0 PUSH1 0x40 DUP3 ADD SWAP1 POP PUSH2 0x9F5 PUSH0 DUP4 ADD DUP6 PUSH2 0x821 JUMP JUMPDEST PUSH2 0xA02 PUSH1 0x20 DUP4 ADD DUP5 PUSH2 0x821 JUMP JUMPDEST SWAP4 SWAP3 POP POP POP JUMP JUMPDEST PUSH0 PUSH2 0xA13 DUP3 PUSH2 0x785 JUMP JUMPDEST SWAP2 POP PUSH2 0xA1E DUP4 PUSH2 0x785 JUMP JUMPDEST SWAP3 POP DUP3 DUP3 ADD SWAP1 POP DUP1 DUP3 GT ISZERO PUSH2 0xA36 JUMPI PUSH2 0xA35 PUSH2 0x8E2 JUMP JUMPDEST JUMPDEST SWAP3 SWAP2 POP POP JUMP JUMPDEST PUSH0 PUSH2 0xA46 DUP3 PUSH2 0x785 JUMP JUMPDEST SWAP2 POP PUSH2 0xA51 DUP4 PUSH2 0x785 JUMP JUMPDEST SWAP3 POP DUP3 PUSH2 0xA61 JUMPI PUSH2 0xA60 PUSH2 0x985 JUMP JUMPDEST JUMPDEST DUP3 DUP3 DIV SWAP1 POP SWAP3 SWAP2 POP POP JUMP JUMPDEST PUSH0 PUSH2 0xA76 DUP3 PUSH2 0x849 JUMP JUMPDEST SWAP2 POP PUSH2 0xA81 DUP4 PUSH2 0x849 JUMP JUMPDEST SWAP3 POP DUP3 DUP3 SUB SWAP1 POP DUP2 DUP2 SLT PUSH0 DUP5 SLT AND DUP3 DUP3 SGT PUSH0 DUP6 SLT ISZERO AND OR ISZERO PUSH2 0xAA6 JUMPI PUSH2 0xAA5 PUSH2 0x8E2 JUMP JUMPDEST JUMPDEST SWAP3 SWAP2 POP POP JUMP JUMPDEST PUSH0 PUSH2 0xAB6 DUP3 PUSH2 0x785 JUMP JUMPDEST SWAP2 POP PUSH2 0xAC1 DUP4 PUSH2 0x785 JUMP JUMPDEST SWAP3 POP DUP3 DUP3 SUB SWAP1 POP DUP2 DUP2 GT ISZERO PUSH2 0xAD9 JUMPI PUSH2 0xAD8 PUSH2 0x8E2 JUMP JUMPDEST JUMPDEST SWAP3 SWAP2 POP POP JUMP INVALID LOG2 PUSH5 0x6970667358 0x22 SLT KECCAK256 0xC5 0x4D SLT EXTCODESIZE INVALID 0xB7 PUSH3 0xE386F7 0xF LOG2 SLOAD SDIV STOP MULMOD SHL 0xAD 0xB1 LOG0 BASEFEE 0x2B PUSH18 0x41A55324A27FC4917864736F6C6343000818 STOP CALLER "
				},
				"gasEstimates": {
					"creation": {
						"codeDepositCost": "567400",
						"executionCost": "22703",
						"totalCost": "590103"
					},
					"external": {
						"average(uint256,uint256)": "infinite",
						"division(uint256,uint256)": "infinite",
						"exponent(uint256,uint256)": "infinite",
						"maximum(uint256,uint256)": "infinite",
						"module(uint256,uint256)": "infinite",
						"multiplier(uint256)": "infinite",
						"multiplier2(uint256,uint256)": "infinite",
						"result()": "2535",
						"sqrt(uint256)": "infinite",
						"substraction(uint256,uint256)": "infinite",
						"substraction2(int256,int256)": "infinite",
						"sum(uint256,uint256)": "infinite"
					},
					"internal": {
						"average_logic(uint256,uint256)": "infinite",
						"maximum_logic(uint256,uint256)": "63",
						"sqrt_logic(uint256)": "infinite",
						"substraction_logic(uint256,uint256)": "infinite",
						"substraction_logic2(int256,int256)": "infinite"
					}
				},
				"methodIdentifiers": {
					"average(uint256,uint256)": "2b7423ab",
					"division(uint256,uint256)": "e0068052",
					"exponent(uint256,uint256)": "2f8cd8b1",
					"maximum(uint256,uint256)": "cba5477c",
					"module(uint256,uint256)": "49175e4b",
					"multiplier(uint256)": "05e30f51",
					"multiplier2(uint256,uint256)": "834ba3a7",
					"result()": "65372147",
					"sqrt(uint256)": "677342ce",
					"substraction(uint256,uint256)": "cdeb3314",
					"substraction2(int256,int256)": "2efad609",
					"sum(uint256,uint256)": "cad0899b"
				}
			},
			"storageLayout": {
				"storage": [
					{
						"astId": 4,
						"contract": "Calculator.sol:Calculator",
						"label": "result",
						"offset": 0,
						"slot": "0",
						"type": "t_uint256"
					}
				],
				"types": {
					"t_uint256": {
						"encoding": "inplace",
						"label": "uint256",
						"numberOfBytes": "32"
					}
				}
			},
			"userdoc": {
				"kind": "user",
				"methods": {},
				"version": 1
			}
		}
	}
}