{
	"Calculator.sol": {
		"Calculator": {
			"abi": [
				{
					"anonymous": false,
					"inputs": [
						{
							"indexed": false,
							"internalType": "uint256",
							"name": "num1",
							"type": "uint256"
						},
						{
							"indexed": false,
							"internalType": "uint256",
							"name": "num2",
							"type": "uint256"
						},
						{
							"indexed": false,
							"internalType": "uint256",
							"name": "result",
							"type": "uint256"
						}
					],
					"name": "Substraction",
					"type": "event"
				},
				{
					"anonymous": false,
					"inputs": [
						{
							"indexed": false,
							"internalType": "uint256",
							"name": "num1",
							"type": "uint256"
						},
						{
							"indexed": false,
							"internalType": "uint256",
							"name": "num2",
							"type": "uint256"
						},
						{
							"indexed": false,
							"internalType": "uint256",
							"name": "result",
							"type": "uint256"
						}
					],
					"name": "Sum",
					"type": "event"
				},
				{
					"inputs": [
						{
							"internalType": "uint256",
							"name": "num1_",
							"type": "uint256"
						}
					],
					"name": "multiplier",
					"outputs": [],
					"stateMutability": "nonpayable",
					"type": "function"
				},
				{
					"inputs": [
						{
							"internalType": "uint256",
							"name": "num1_",
							"type": "uint256"
						}
					],
					"name": "multiplier2",
					"outputs": [],
					"stateMutability": "nonpayable",
					"type": "function"
				},
				{
					"inputs": [],
					"name": "result",
					"outputs": [
						{
							"internalType": "uint256",
							"name": "",
							"type": "uint256"
						}
					],
					"stateMutability": "view",
					"type": "function"
				},
				{
					"inputs": [
						{
							"internalType": "uint256",
							"name": "num1_",
							"type": "uint256"
						},
						{
							"internalType": "uint256",
							"name": "num2_",
							"type": "uint256"
						}
					],
					"name": "substraction",
					"outputs": [
						{
							"internalType": "uint256",
							"name": "result_",
							"type": "uint256"
						}
					],
					"stateMutability": "nonpayable",
					"type": "function"
				},
				{
					"inputs": [
						{
							"internalType": "int256",
							"name": "num1_",
							"type": "int256"
						},
						{
							"internalType": "int256",
							"name": "num2_",
							"type": "int256"
						}
					],
					"name": "substraction2",
					"outputs": [
						{
							"internalType": "int256",
							"name": "result_",
							"type": "int256"
						}
					],
					"stateMutability": "pure",
					"type": "function"
				},
				{
					"inputs": [
						{
							"internalType": "uint256",
							"name": "num1_",
							"type": "uint256"
						},
						{
							"internalType": "uint256",
							"name": "num2_",
							"type": "uint256"
						}
					],
					"name": "sum",
					"outputs": [
						{
							"internalType": "uint256",
							"name": "result_",
							"type": "uint256"
						}
					],
					"stateMutability": "nonpayable",
					"type": "function"
				}
			],
			"devdoc": {
				"kind": "dev",
				"methods": {},
				"version": 1
			},
			"evm": {
				"assembly": "    /* \"Calculator.sol\":121:1591  contract Calculator {... */\n  mstore(0x40, 0x80)\n    /* \"Calculator.sol\":203:204  1 */\n  0x01\n    /* \"Calculator.sol\":179:204  uint256 public result = 1 */\n  0x00\n  sstore\n    /* \"Calculator.sol\":121:1591  contract Calculator {... */\n  callvalue\n  dup1\n  iszero\n  tag_1\n  jumpi\n  0x00\n  dup1\n  revert\ntag_1:\n  pop\n  dataSize(sub_0)\n  dup1\n  dataOffset(sub_0)\n  0x00\n  codecopy\n  0x00\n  return\nstop\n\nsub_0: assembly {\n        /* \"Calculator.sol\":121:1591  contract Calculator {... */\n      mstore(0x40, 0x80)\n      callvalue\n      dup1\n      iszero\n      tag_1\n      jumpi\n      0x00\n      dup1\n      revert\n    tag_1:\n      pop\n      jumpi(tag_2, lt(calldatasize, 0x04))\n      shr(0xe0, calldataload(0x00))\n      dup1\n      0x05e30f51\n      eq\n      tag_3\n      jumpi\n      dup1\n      0x2efad609\n      eq\n      tag_4\n      jumpi\n      dup1\n      0x65372147\n      eq\n      tag_5\n      jumpi\n      dup1\n      0xa1623dce\n      eq\n      tag_6\n      jumpi\n      dup1\n      0xcad0899b\n      eq\n      tag_7\n      jumpi\n      dup1\n      0xcdeb3314\n      eq\n      tag_8\n      jumpi\n    tag_2:\n      0x00\n      dup1\n      revert\n        /* \"Calculator.sol\":1051:1140  function multiplier(uint256 num1_) public{... */\n    tag_3:\n      tag_9\n      0x04\n      dup1\n      calldatasize\n      sub\n      dup2\n      add\n      swap1\n      tag_10\n      swap2\n      swap1\n      tag_11\n      jump\t// in\n    tag_10:\n      tag_12\n      jump\t// in\n    tag_9:\n      stop\n        /* \"Calculator.sol\":888:1043  function substraction2(int256 num1_, int256 num2_) public pure returns(int256 result_){... */\n    tag_4:\n      tag_13\n      0x04\n      dup1\n      calldatasize\n      sub\n      dup2\n      add\n      swap1\n      tag_14\n      swap2\n      swap1\n      tag_15\n      jump\t// in\n    tag_14:\n      tag_16\n      jump\t// in\n    tag_13:\n      mload(0x40)\n      tag_17\n      swap2\n      swap1\n      tag_18\n      jump\t// in\n    tag_17:\n      mload(0x40)\n      dup1\n      swap2\n      sub\n      swap1\n      return\n        /* \"Calculator.sol\":179:204  uint256 public result = 1 */\n    tag_5:\n      tag_19\n      tag_20\n      jump\t// in\n    tag_19:\n      mload(0x40)\n      tag_21\n      swap2\n      swap1\n      tag_22\n      jump\t// in\n    tag_21:\n      mload(0x40)\n      dup1\n      swap2\n      sub\n      swap1\n      return\n        /* \"Calculator.sol\":1148:1255  function multiplier2(uint256 num1_) public checkNumber(num1_){... */\n    tag_6:\n      tag_23\n      0x04\n      dup1\n      calldatasize\n      sub\n      dup2\n      add\n      swap1\n      tag_24\n      swap2\n      swap1\n      tag_11\n      jump\t// in\n    tag_24:\n      tag_25\n      jump\t// in\n    tag_23:\n      stop\n        /* \"Calculator.sol\":517:674  function sum(uint256 num1_, uint256 num2_) public returns(uint256 result_){... */\n    tag_7:\n      tag_26\n      0x04\n      dup1\n      calldatasize\n      sub\n      dup2\n      add\n      swap1\n      tag_27\n      swap2\n      swap1\n      tag_28\n      jump\t// in\n    tag_27:\n      tag_29\n      jump\t// in\n    tag_26:\n      mload(0x40)\n      tag_30\n      swap2\n      swap1\n      tag_22\n      jump\t// in\n    tag_30:\n      mload(0x40)\n      dup1\n      swap2\n      sub\n      swap1\n      return\n        /* \"Calculator.sol\":682:880  function substraction(uint256 num1_, uint256 num2_) public returns(uint256 result_){... */\n    tag_8:\n      tag_31\n      0x04\n      dup1\n      calldatasize\n      sub\n      dup2\n      add\n      swap1\n      tag_32\n      swap2\n      swap1\n      tag_28\n      jump\t// in\n    tag_32:\n      tag_33\n      jump\t// in\n    tag_31:\n      mload(0x40)\n      tag_34\n      swap2\n      swap1\n      tag_22\n      jump\t// in\n    tag_34:\n      mload(0x40)\n      dup1\n      swap2\n      sub\n      swap1\n      return\n        /* \"Calculator.sol\":1051:1140  function multiplier(uint256 num1_) public{... */\n    tag_12:\n        /* \"Calculator.sol\":1123:1128  num1_ */\n      dup1\n        /* \"Calculator.sol\":1114:1120  result */\n      sload(0x00)\n        /* \"Calculator.sol\":1114:1128  result * num1_ */\n      tag_36\n      swap2\n      swap1\n      tag_37\n      jump\t// in\n    tag_36:\n        /* \"Calculator.sol\":1105:1111  result */\n      0x00\n        /* \"Calculator.sol\":1105:1128  result = result * num1_ */\n      dup2\n      swap1\n      sstore\n      pop\n        /* \"Calculator.sol\":1051:1140  function multiplier(uint256 num1_) public{... */\n      pop\n      jump\t// out\n        /* \"Calculator.sol\":888:1043  function substraction2(int256 num1_, int256 num2_) public pure returns(int256 result_){... */\n    tag_16:\n        /* \"Calculator.sol\":959:973  int256 result_ */\n      0x00\n        /* \"Calculator.sol\":993:1025  substraction_logic2(num1_,num2_) */\n      tag_39\n        /* \"Calculator.sol\":1013:1018  num1_ */\n      dup4\n        /* \"Calculator.sol\":1019:1024  num2_ */\n      dup4\n        /* \"Calculator.sol\":993:1012  substraction_logic2 */\n      tag_40\n        /* \"Calculator.sol\":993:1025  substraction_logic2(num1_,num2_) */\n      jump\t// in\n    tag_39:\n        /* \"Calculator.sol\":983:1025  result_ = substraction_logic2(num1_,num2_) */\n      swap1\n      pop\n        /* \"Calculator.sol\":888:1043  function substraction2(int256 num1_, int256 num2_) public pure returns(int256 result_){... */\n      swap3\n      swap2\n      pop\n      pop\n      jump\t// out\n        /* \"Calculator.sol\":179:204  uint256 public result = 1 */\n    tag_20:\n      sload(0x00)\n      dup2\n      jump\t// out\n        /* \"Calculator.sol\":1148:1255  function multiplier2(uint256 num1_) public checkNumber(num1_){... */\n    tag_25:\n        /* \"Calculator.sol\":1203:1208  num1_ */\n      dup1\n        /* \"Calculator.sol\":300:301  1 */\n      0x01\n        /* \"Calculator.sol\":291:296  num1_ */\n      dup2\n        /* \"Calculator.sol\":291:301  num1_ != 1 */\n      eq\n        /* \"Calculator.sol\":288:311  if(num1_ != 1) revert() */\n      tag_42\n      jumpi\n        /* \"Calculator.sol\":303:311  revert() */\n      0x00\n      dup1\n      revert\n        /* \"Calculator.sol\":288:311  if(num1_ != 1) revert() */\n    tag_42:\n        /* \"Calculator.sol\":1240:1245  num1_ */\n      dup2\n        /* \"Calculator.sol\":1231:1237  result */\n      sload(0x00)\n        /* \"Calculator.sol\":1231:1245  result * num1_ */\n      tag_44\n      swap2\n      swap1\n      tag_37\n      jump\t// in\n    tag_44:\n        /* \"Calculator.sol\":1222:1228  result */\n      0x00\n        /* \"Calculator.sol\":1222:1245  result = result * num1_ */\n      dup2\n      swap1\n      sstore\n      pop\n        /* \"Calculator.sol\":1148:1255  function multiplier2(uint256 num1_) public checkNumber(num1_){... */\n      pop\n      pop\n      jump\t// out\n        /* \"Calculator.sol\":517:674  function sum(uint256 num1_, uint256 num2_) public returns(uint256 result_){... */\n    tag_29:\n        /* \"Calculator.sol\":575:590  uint256 result_ */\n      0x00\n        /* \"Calculator.sol\":622:627  num2_ */\n      dup2\n        /* \"Calculator.sol\":614:619  num1_ */\n      dup4\n        /* \"Calculator.sol\":614:627  num1_ + num2_ */\n      tag_46\n      swap2\n      swap1\n      tag_47\n      jump\t// in\n    tag_46:\n        /* \"Calculator.sol\":604:627  result_ = num1_ + num2_ */\n      swap1\n      pop\n        /* \"Calculator.sol\":643:666  Sum(num1_,num2_,result) */\n      0xed389495059e3255c7a92671d5719bf4fd25064cd6bbbe911affd790ed681541\n        /* \"Calculator.sol\":647:652  num1_ */\n      dup4\n        /* \"Calculator.sol\":653:658  num2_ */\n      dup4\n        /* \"Calculator.sol\":659:665  result */\n      sload(0x00)\n        /* \"Calculator.sol\":643:666  Sum(num1_,num2_,result) */\n      mload(0x40)\n      tag_48\n      swap4\n      swap3\n      swap2\n      swap1\n      tag_49\n      jump\t// in\n    tag_48:\n      mload(0x40)\n      dup1\n      swap2\n      sub\n      swap1\n      log1\n        /* \"Calculator.sol\":517:674  function sum(uint256 num1_, uint256 num2_) public returns(uint256 result_){... */\n      swap3\n      swap2\n      pop\n      pop\n      jump\t// out\n        /* \"Calculator.sol\":682:880  function substraction(uint256 num1_, uint256 num2_) public returns(uint256 result_){... */\n    tag_33:\n        /* \"Calculator.sol\":749:764  uint256 result_ */\n      0x00\n        /* \"Calculator.sol\":788:819  substraction_logic(num1_,num2_) */\n      tag_51\n        /* \"Calculator.sol\":807:812  num1_ */\n      dup4\n        /* \"Calculator.sol\":813:818  num2_ */\n      dup4\n        /* \"Calculator.sol\":788:806  substraction_logic */\n      tag_52\n        /* \"Calculator.sol\":788:819  substraction_logic(num1_,num2_) */\n      jump\t// in\n    tag_51:\n        /* \"Calculator.sol\":778:819  result_ = substraction_logic(num1_,num2_) */\n      swap1\n      pop\n        /* \"Calculator.sol\":835:868  Substraction(num1_,num2_,result_) */\n      0x02325f53408b10d20290d06f069ad56eb7ecae5db225e14d71cda2c523652c5b\n        /* \"Calculator.sol\":848:853  num1_ */\n      dup4\n        /* \"Calculator.sol\":854:859  num2_ */\n      dup4\n        /* \"Calculator.sol\":860:867  result_ */\n      dup4\n        /* \"Calculator.sol\":835:868  Substraction(num1_,num2_,result_) */\n      mload(0x40)\n      tag_53\n      swap4\n      swap3\n      swap2\n      swap1\n      tag_49\n      jump\t// in\n    tag_53:\n      mload(0x40)\n      dup1\n      swap2\n      sub\n      swap1\n      log1\n        /* \"Calculator.sol\":682:880  function substraction(uint256 num1_, uint256 num2_) public returns(uint256 result_){... */\n      swap3\n      swap2\n      pop\n      pop\n      jump\t// out\n        /* \"Calculator.sol\":1442:1584  function substraction_logic2(int256 num1_, int256 num2_) internal pure returns(int256 result_){... */\n    tag_40:\n        /* \"Calculator.sol\":1521:1535  int256 result_ */\n      0x00\n        /* \"Calculator.sol\":1567:1572  num2_ */\n      dup2\n        /* \"Calculator.sol\":1559:1564  num1_ */\n      dup4\n        /* \"Calculator.sol\":1559:1572  num1_ - num2_ */\n      tag_55\n      swap2\n      swap1\n      tag_56\n      jump\t// in\n    tag_55:\n        /* \"Calculator.sol\":1549:1572  result_ = num1_ - num2_ */\n      swap1\n      pop\n        /* \"Calculator.sol\":1442:1584  function substraction_logic2(int256 num1_, int256 num2_) internal pure returns(int256 result_){... */\n      swap3\n      swap2\n      pop\n      pop\n      jump\t// out\n        /* \"Calculator.sol\":1290:1434  function substraction_logic(uint256 num1_, uint256 num2_) internal pure returns(uint256 result_){... */\n    tag_52:\n        /* \"Calculator.sol\":1370:1385  uint256 result_ */\n      0x00\n        /* \"Calculator.sol\":1417:1422  num2_ */\n      dup2\n        /* \"Calculator.sol\":1409:1414  num1_ */\n      dup4\n        /* \"Calculator.sol\":1409:1422  num1_ - num2_ */\n      tag_58\n      swap2\n      swap1\n      tag_59\n      jump\t// in\n    tag_58:\n        /* \"Calculator.sol\":1399:1422  result_ = num1_ - num2_ */\n      swap1\n      pop\n        /* \"Calculator.sol\":1290:1434  function substraction_logic(uint256 num1_, uint256 num2_) internal pure returns(uint256 result_){... */\n      swap3\n      swap2\n      pop\n      pop\n      jump\t// out\n        /* \"#utility.yul\":88:205   */\n    tag_61:\n        /* \"#utility.yul\":197:198   */\n      0x00\n        /* \"#utility.yul\":194:195   */\n      dup1\n        /* \"#utility.yul\":187:199   */\n      revert\n        /* \"#utility.yul\":334:411   */\n    tag_63:\n        /* \"#utility.yul\":371:378   */\n      0x00\n        /* \"#utility.yul\":400:405   */\n      dup2\n        /* \"#utility.yul\":389:405   */\n      swap1\n      pop\n        /* \"#utility.yul\":334:411   */\n      swap2\n      swap1\n      pop\n      jump\t// out\n        /* \"#utility.yul\":417:539   */\n    tag_64:\n        /* \"#utility.yul\":490:514   */\n      tag_78\n        /* \"#utility.yul\":508:513   */\n      dup2\n        /* \"#utility.yul\":490:514   */\n      tag_63\n      jump\t// in\n    tag_78:\n        /* \"#utility.yul\":483:488   */\n      dup2\n        /* \"#utility.yul\":480:515   */\n      eq\n        /* \"#utility.yul\":470:533   */\n      tag_79\n      jumpi\n        /* \"#utility.yul\":529:530   */\n      0x00\n        /* \"#utility.yul\":526:527   */\n      dup1\n        /* \"#utility.yul\":519:531   */\n      revert\n        /* \"#utility.yul\":470:533   */\n    tag_79:\n        /* \"#utility.yul\":417:539   */\n      pop\n      jump\t// out\n        /* \"#utility.yul\":545:684   */\n    tag_65:\n        /* \"#utility.yul\":591:596   */\n      0x00\n        /* \"#utility.yul\":629:635   */\n      dup2\n        /* \"#utility.yul\":616:636   */\n      calldataload\n        /* \"#utility.yul\":607:636   */\n      swap1\n      pop\n        /* \"#utility.yul\":645:678   */\n      tag_81\n        /* \"#utility.yul\":672:677   */\n      dup2\n        /* \"#utility.yul\":645:678   */\n      tag_64\n      jump\t// in\n    tag_81:\n        /* \"#utility.yul\":545:684   */\n      swap3\n      swap2\n      pop\n      pop\n      jump\t// out\n        /* \"#utility.yul\":690:1019   */\n    tag_11:\n        /* \"#utility.yul\":749:755   */\n      0x00\n        /* \"#utility.yul\":798:800   */\n      0x20\n        /* \"#utility.yul\":786:795   */\n      dup3\n        /* \"#utility.yul\":777:784   */\n      dup5\n        /* \"#utility.yul\":773:796   */\n      sub\n        /* \"#utility.yul\":769:801   */\n      slt\n        /* \"#utility.yul\":766:885   */\n      iszero\n      tag_83\n      jumpi\n        /* \"#utility.yul\":804:883   */\n      tag_84\n      tag_61\n      jump\t// in\n    tag_84:\n        /* \"#utility.yul\":766:885   */\n    tag_83:\n        /* \"#utility.yul\":924:925   */\n      0x00\n        /* \"#utility.yul\":949:1002   */\n      tag_85\n        /* \"#utility.yul\":994:1001   */\n      dup5\n        /* \"#utility.yul\":985:991   */\n      dup3\n        /* \"#utility.yul\":974:983   */\n      dup6\n        /* \"#utility.yul\":970:992   */\n      add\n        /* \"#utility.yul\":949:1002   */\n      tag_65\n      jump\t// in\n    tag_85:\n        /* \"#utility.yul\":939:1002   */\n      swap2\n      pop\n        /* \"#utility.yul\":895:1012   */\n      pop\n        /* \"#utility.yul\":690:1019   */\n      swap3\n      swap2\n      pop\n      pop\n      jump\t// out\n        /* \"#utility.yul\":1025:1101   */\n    tag_66:\n        /* \"#utility.yul\":1061:1068   */\n      0x00\n        /* \"#utility.yul\":1090:1095   */\n      dup2\n        /* \"#utility.yul\":1079:1095   */\n      swap1\n      pop\n        /* \"#utility.yul\":1025:1101   */\n      swap2\n      swap1\n      pop\n      jump\t// out\n        /* \"#utility.yul\":1107:1227   */\n    tag_67:\n        /* \"#utility.yul\":1179:1202   */\n      tag_88\n        /* \"#utility.yul\":1196:1201   */\n      dup2\n        /* \"#utility.yul\":1179:1202   */\n      tag_66\n      jump\t// in\n    tag_88:\n        /* \"#utility.yul\":1172:1177   */\n      dup2\n        /* \"#utility.yul\":1169:1203   */\n      eq\n        /* \"#utility.yul\":1159:1221   */\n      tag_89\n      jumpi\n        /* \"#utility.yul\":1217:1218   */\n      0x00\n        /* \"#utility.yul\":1214:1215   */\n      dup1\n        /* \"#utility.yul\":1207:1219   */\n      revert\n        /* \"#utility.yul\":1159:1221   */\n    tag_89:\n        /* \"#utility.yul\":1107:1227   */\n      pop\n      jump\t// out\n        /* \"#utility.yul\":1233:1370   */\n    tag_68:\n        /* \"#utility.yul\":1278:1283   */\n      0x00\n        /* \"#utility.yul\":1316:1322   */\n      dup2\n        /* \"#utility.yul\":1303:1323   */\n      calldataload\n        /* \"#utility.yul\":1294:1323   */\n      swap1\n      pop\n        /* \"#utility.yul\":1332:1364   */\n      tag_91\n        /* \"#utility.yul\":1358:1363   */\n      dup2\n        /* \"#utility.yul\":1332:1364   */\n      tag_67\n      jump\t// in\n    tag_91:\n        /* \"#utility.yul\":1233:1370   */\n      swap3\n      swap2\n      pop\n      pop\n      jump\t// out\n        /* \"#utility.yul\":1376:1846   */\n    tag_15:\n        /* \"#utility.yul\":1442:1448   */\n      0x00\n        /* \"#utility.yul\":1450:1456   */\n      dup1\n        /* \"#utility.yul\":1499:1501   */\n      0x40\n        /* \"#utility.yul\":1487:1496   */\n      dup4\n        /* \"#utility.yul\":1478:1485   */\n      dup6\n        /* \"#utility.yul\":1474:1497   */\n      sub\n        /* \"#utility.yul\":1470:1502   */\n      slt\n        /* \"#utility.yul\":1467:1586   */\n      iszero\n      tag_93\n      jumpi\n        /* \"#utility.yul\":1505:1584   */\n      tag_94\n      tag_61\n      jump\t// in\n    tag_94:\n        /* \"#utility.yul\":1467:1586   */\n    tag_93:\n        /* \"#utility.yul\":1625:1626   */\n      0x00\n        /* \"#utility.yul\":1650:1702   */\n      tag_95\n        /* \"#utility.yul\":1694:1701   */\n      dup6\n        /* \"#utility.yul\":1685:1691   */\n      dup3\n        /* \"#utility.yul\":1674:1683   */\n      dup7\n        /* \"#utility.yul\":1670:1692   */\n      add\n        /* \"#utility.yul\":1650:1702   */\n      tag_68\n      jump\t// in\n    tag_95:\n        /* \"#utility.yul\":1640:1702   */\n      swap3\n      pop\n        /* \"#utility.yul\":1596:1712   */\n      pop\n        /* \"#utility.yul\":1751:1753   */\n      0x20\n        /* \"#utility.yul\":1777:1829   */\n      tag_96\n        /* \"#utility.yul\":1821:1828   */\n      dup6\n        /* \"#utility.yul\":1812:1818   */\n      dup3\n        /* \"#utility.yul\":1801:1810   */\n      dup7\n        /* \"#utility.yul\":1797:1819   */\n      add\n        /* \"#utility.yul\":1777:1829   */\n      tag_68\n      jump\t// in\n    tag_96:\n        /* \"#utility.yul\":1767:1829   */\n      swap2\n      pop\n        /* \"#utility.yul\":1722:1839   */\n      pop\n        /* \"#utility.yul\":1376:1846   */\n      swap3\n      pop\n      swap3\n      swap1\n      pop\n      jump\t// out\n        /* \"#utility.yul\":1852:1967   */\n    tag_69:\n        /* \"#utility.yul\":1937:1960   */\n      tag_98\n        /* \"#utility.yul\":1954:1959   */\n      dup2\n        /* \"#utility.yul\":1937:1960   */\n      tag_66\n      jump\t// in\n    tag_98:\n        /* \"#utility.yul\":1932:1935   */\n      dup3\n        /* \"#utility.yul\":1925:1961   */\n      mstore\n        /* \"#utility.yul\":1852:1967   */\n      pop\n      pop\n      jump\t// out\n        /* \"#utility.yul\":1973:2191   */\n    tag_18:\n        /* \"#utility.yul\":2064:2068   */\n      0x00\n        /* \"#utility.yul\":2102:2104   */\n      0x20\n        /* \"#utility.yul\":2091:2100   */\n      dup3\n        /* \"#utility.yul\":2087:2105   */\n      add\n        /* \"#utility.yul\":2079:2105   */\n      swap1\n      pop\n        /* \"#utility.yul\":2115:2184   */\n      tag_100\n        /* \"#utility.yul\":2181:2182   */\n      0x00\n        /* \"#utility.yul\":2170:2179   */\n      dup4\n        /* \"#utility.yul\":2166:2183   */\n      add\n        /* \"#utility.yul\":2157:2163   */\n      dup5\n        /* \"#utility.yul\":2115:2184   */\n      tag_69\n      jump\t// in\n    tag_100:\n        /* \"#utility.yul\":1973:2191   */\n      swap3\n      swap2\n      pop\n      pop\n      jump\t// out\n        /* \"#utility.yul\":2197:2315   */\n    tag_70:\n        /* \"#utility.yul\":2284:2308   */\n      tag_102\n        /* \"#utility.yul\":2302:2307   */\n      dup2\n        /* \"#utility.yul\":2284:2308   */\n      tag_63\n      jump\t// in\n    tag_102:\n        /* \"#utility.yul\":2279:2282   */\n      dup3\n        /* \"#utility.yul\":2272:2309   */\n      mstore\n        /* \"#utility.yul\":2197:2315   */\n      pop\n      pop\n      jump\t// out\n        /* \"#utility.yul\":2321:2543   */\n    tag_22:\n        /* \"#utility.yul\":2414:2418   */\n      0x00\n        /* \"#utility.yul\":2452:2454   */\n      0x20\n        /* \"#utility.yul\":2441:2450   */\n      dup3\n        /* \"#utility.yul\":2437:2455   */\n      add\n        /* \"#utility.yul\":2429:2455   */\n      swap1\n      pop\n        /* \"#utility.yul\":2465:2536   */\n      tag_104\n        /* \"#utility.yul\":2533:2534   */\n      0x00\n        /* \"#utility.yul\":2522:2531   */\n      dup4\n        /* \"#utility.yul\":2518:2535   */\n      add\n        /* \"#utility.yul\":2509:2515   */\n      dup5\n        /* \"#utility.yul\":2465:2536   */\n      tag_70\n      jump\t// in\n    tag_104:\n        /* \"#utility.yul\":2321:2543   */\n      swap3\n      swap2\n      pop\n      pop\n      jump\t// out\n        /* \"#utility.yul\":2549:3023   */\n    tag_28:\n        /* \"#utility.yul\":2617:2623   */\n      0x00\n        /* \"#utility.yul\":2625:2631   */\n      dup1\n        /* \"#utility.yul\":2674:2676   */\n      0x40\n        /* \"#utility.yul\":2662:2671   */\n      dup4\n        /* \"#utility.yul\":2653:2660   */\n      dup6\n        /* \"#utility.yul\":2649:2672   */\n      sub\n        /* \"#utility.yul\":2645:2677   */\n      slt\n        /* \"#utility.yul\":2642:2761   */\n      iszero\n      tag_106\n      jumpi\n        /* \"#utility.yul\":2680:2759   */\n      tag_107\n      tag_61\n      jump\t// in\n    tag_107:\n        /* \"#utility.yul\":2642:2761   */\n    tag_106:\n        /* \"#utility.yul\":2800:2801   */\n      0x00\n        /* \"#utility.yul\":2825:2878   */\n      tag_108\n        /* \"#utility.yul\":2870:2877   */\n      dup6\n        /* \"#utility.yul\":2861:2867   */\n      dup3\n        /* \"#utility.yul\":2850:2859   */\n      dup7\n        /* \"#utility.yul\":2846:2868   */\n      add\n        /* \"#utility.yul\":2825:2878   */\n      tag_65\n      jump\t// in\n    tag_108:\n        /* \"#utility.yul\":2815:2878   */\n      swap3\n      pop\n        /* \"#utility.yul\":2771:2888   */\n      pop\n        /* \"#utility.yul\":2927:2929   */\n      0x20\n        /* \"#utility.yul\":2953:3006   */\n      tag_109\n        /* \"#utility.yul\":2998:3005   */\n      dup6\n        /* \"#utility.yul\":2989:2995   */\n      dup3\n        /* \"#utility.yul\":2978:2987   */\n      dup7\n        /* \"#utility.yul\":2974:2996   */\n      add\n        /* \"#utility.yul\":2953:3006   */\n      tag_65\n      jump\t// in\n    tag_109:\n        /* \"#utility.yul\":2943:3006   */\n      swap2\n      pop\n        /* \"#utility.yul\":2898:3016   */\n      pop\n        /* \"#utility.yul\":2549:3023   */\n      swap3\n      pop\n      swap3\n      swap1\n      pop\n      jump\t// out\n        /* \"#utility.yul\":3029:3209   */\n    tag_71:\n        /* \"#utility.yul\":3077:3154   */\n      0x4e487b7100000000000000000000000000000000000000000000000000000000\n        /* \"#utility.yul\":3074:3075   */\n      0x00\n        /* \"#utility.yul\":3067:3155   */\n      mstore\n        /* \"#utility.yul\":3174:3178   */\n      0x11\n        /* \"#utility.yul\":3171:3172   */\n      0x04\n        /* \"#utility.yul\":3164:3179   */\n      mstore\n        /* \"#utility.yul\":3198:3202   */\n      0x24\n        /* \"#utility.yul\":3195:3196   */\n      0x00\n        /* \"#utility.yul\":3188:3203   */\n      revert\n        /* \"#utility.yul\":3215:3625   */\n    tag_37:\n        /* \"#utility.yul\":3255:3262   */\n      0x00\n        /* \"#utility.yul\":3278:3298   */\n      tag_112\n        /* \"#utility.yul\":3296:3297   */\n      dup3\n        /* \"#utility.yul\":3278:3298   */\n      tag_63\n      jump\t// in\n    tag_112:\n        /* \"#utility.yul\":3273:3298   */\n      swap2\n      pop\n        /* \"#utility.yul\":3312:3332   */\n      tag_113\n        /* \"#utility.yul\":3330:3331   */\n      dup4\n        /* \"#utility.yul\":3312:3332   */\n      tag_63\n      jump\t// in\n    tag_113:\n        /* \"#utility.yul\":3307:3332   */\n      swap3\n      pop\n        /* \"#utility.yul\":3367:3368   */\n      dup3\n        /* \"#utility.yul\":3364:3365   */\n      dup3\n        /* \"#utility.yul\":3360:3369   */\n      mul\n        /* \"#utility.yul\":3389:3419   */\n      tag_114\n        /* \"#utility.yul\":3407:3418   */\n      dup2\n        /* \"#utility.yul\":3389:3419   */\n      tag_63\n      jump\t// in\n    tag_114:\n        /* \"#utility.yul\":3378:3419   */\n      swap2\n      pop\n        /* \"#utility.yul\":3568:3569   */\n      dup3\n        /* \"#utility.yul\":3559:3566   */\n      dup3\n        /* \"#utility.yul\":3555:3570   */\n      div\n        /* \"#utility.yul\":3552:3553   */\n      dup5\n        /* \"#utility.yul\":3549:3571   */\n      eq\n        /* \"#utility.yul\":3529:3530   */\n      dup4\n        /* \"#utility.yul\":3522:3531   */\n      iszero\n        /* \"#utility.yul\":3502:3585   */\n      or\n        /* \"#utility.yul\":3479:3618   */\n      tag_115\n      jumpi\n        /* \"#utility.yul\":3598:3616   */\n      tag_116\n      tag_71\n      jump\t// in\n    tag_116:\n        /* \"#utility.yul\":3479:3618   */\n    tag_115:\n        /* \"#utility.yul\":3263:3625   */\n      pop\n        /* \"#utility.yul\":3215:3625   */\n      swap3\n      swap2\n      pop\n      pop\n      jump\t// out\n        /* \"#utility.yul\":3631:3822   */\n    tag_47:\n        /* \"#utility.yul\":3671:3674   */\n      0x00\n        /* \"#utility.yul\":3690:3710   */\n      tag_118\n        /* \"#utility.yul\":3708:3709   */\n      dup3\n        /* \"#utility.yul\":3690:3710   */\n      tag_63\n      jump\t// in\n    tag_118:\n        /* \"#utility.yul\":3685:3710   */\n      swap2\n      pop\n        /* \"#utility.yul\":3724:3744   */\n      tag_119\n        /* \"#utility.yul\":3742:3743   */\n      dup4\n        /* \"#utility.yul\":3724:3744   */\n      tag_63\n      jump\t// in\n    tag_119:\n        /* \"#utility.yul\":3719:3744   */\n      swap3\n      pop\n        /* \"#utility.yul\":3767:3768   */\n      dup3\n        /* \"#utility.yul\":3764:3765   */\n      dup3\n        /* \"#utility.yul\":3760:3769   */\n      add\n        /* \"#utility.yul\":3753:3769   */\n      swap1\n      pop\n        /* \"#utility.yul\":3788:3791   */\n      dup1\n        /* \"#utility.yul\":3785:3786   */\n      dup3\n        /* \"#utility.yul\":3782:3792   */\n      gt\n        /* \"#utility.yul\":3779:3815   */\n      iszero\n      tag_120\n      jumpi\n        /* \"#utility.yul\":3795:3813   */\n      tag_121\n      tag_71\n      jump\t// in\n    tag_121:\n        /* \"#utility.yul\":3779:3815   */\n    tag_120:\n        /* \"#utility.yul\":3631:3822   */\n      swap3\n      swap2\n      pop\n      pop\n      jump\t// out\n        /* \"#utility.yul\":3828:4270   */\n    tag_49:\n        /* \"#utility.yul\":3977:3981   */\n      0x00\n        /* \"#utility.yul\":4015:4017   */\n      0x60\n        /* \"#utility.yul\":4004:4013   */\n      dup3\n        /* \"#utility.yul\":4000:4018   */\n      add\n        /* \"#utility.yul\":3992:4018   */\n      swap1\n      pop\n        /* \"#utility.yul\":4028:4099   */\n      tag_123\n        /* \"#utility.yul\":4096:4097   */\n      0x00\n        /* \"#utility.yul\":4085:4094   */\n      dup4\n        /* \"#utility.yul\":4081:4098   */\n      add\n        /* \"#utility.yul\":4072:4078   */\n      dup7\n        /* \"#utility.yul\":4028:4099   */\n      tag_70\n      jump\t// in\n    tag_123:\n        /* \"#utility.yul\":4109:4181   */\n      tag_124\n        /* \"#utility.yul\":4177:4179   */\n      0x20\n        /* \"#utility.yul\":4166:4175   */\n      dup4\n        /* \"#utility.yul\":4162:4180   */\n      add\n        /* \"#utility.yul\":4153:4159   */\n      dup6\n        /* \"#utility.yul\":4109:4181   */\n      tag_70\n      jump\t// in\n    tag_124:\n        /* \"#utility.yul\":4191:4263   */\n      tag_125\n        /* \"#utility.yul\":4259:4261   */\n      0x40\n        /* \"#utility.yul\":4248:4257   */\n      dup4\n        /* \"#utility.yul\":4244:4262   */\n      add\n        /* \"#utility.yul\":4235:4241   */\n      dup5\n        /* \"#utility.yul\":4191:4263   */\n      tag_70\n      jump\t// in\n    tag_125:\n        /* \"#utility.yul\":3828:4270   */\n      swap5\n      swap4\n      pop\n      pop\n      pop\n      pop\n      jump\t// out\n        /* \"#utility.yul\":4276:4648   */\n    tag_56:\n        /* \"#utility.yul\":4315:4319   */\n      0x00\n        /* \"#utility.yul\":4335:4354   */\n      tag_127\n        /* \"#utility.yul\":4352:4353   */\n      dup3\n        /* \"#utility.yul\":4335:4354   */\n      tag_66\n      jump\t// in\n    tag_127:\n        /* \"#utility.yul\":4330:4354   */\n      swap2\n      pop\n        /* \"#utility.yul\":4368:4387   */\n      tag_128\n        /* \"#utility.yul\":4385:4386   */\n      dup4\n        /* \"#utility.yul\":4368:4387   */\n      tag_66\n      jump\t// in\n    tag_128:\n        /* \"#utility.yul\":4363:4387   */\n      swap3\n      pop\n        /* \"#utility.yul\":4411:4412   */\n      dup3\n        /* \"#utility.yul\":4408:4409   */\n      dup3\n        /* \"#utility.yul\":4404:4413   */\n      sub\n        /* \"#utility.yul\":4396:4413   */\n      swap1\n      pop\n        /* \"#utility.yul\":4605:4606   */\n      dup2\n        /* \"#utility.yul\":4599:4603   */\n      dup2\n        /* \"#utility.yul\":4595:4607   */\n      slt\n        /* \"#utility.yul\":4591:4592   */\n      0x00\n        /* \"#utility.yul\":4588:4589   */\n      dup5\n        /* \"#utility.yul\":4584:4593   */\n      slt\n        /* \"#utility.yul\":4580:4608   */\n      and\n        /* \"#utility.yul\":4563:4564   */\n      dup3\n        /* \"#utility.yul\":4557:4561   */\n      dup3\n        /* \"#utility.yul\":4553:4565   */\n      sgt\n        /* \"#utility.yul\":4548:4549   */\n      0x00\n        /* \"#utility.yul\":4545:4546   */\n      dup6\n        /* \"#utility.yul\":4541:4550   */\n      slt\n        /* \"#utility.yul\":4534:4551   */\n      iszero\n        /* \"#utility.yul\":4530:4566   */\n      and\n        /* \"#utility.yul\":4514:4618   */\n      or\n        /* \"#utility.yul\":4511:4641   */\n      iszero\n      tag_129\n      jumpi\n        /* \"#utility.yul\":4621:4639   */\n      tag_130\n      tag_71\n      jump\t// in\n    tag_130:\n        /* \"#utility.yul\":4511:4641   */\n    tag_129:\n        /* \"#utility.yul\":4276:4648   */\n      swap3\n      swap2\n      pop\n      pop\n      jump\t// out\n        /* \"#utility.yul\":4654:4848   */\n    tag_59:\n        /* \"#utility.yul\":4694:4698   */\n      0x00\n        /* \"#utility.yul\":4714:4734   */\n      tag_132\n        /* \"#utility.yul\":4732:4733   */\n      dup3\n        /* \"#utility.yul\":4714:4734   */\n      tag_63\n      jump\t// in\n    tag_132:\n        /* \"#utility.yul\":4709:4734   */\n      swap2\n      pop\n        /* \"#utility.yul\":4748:4768   */\n      tag_133\n        /* \"#utility.yul\":4766:4767   */\n      dup4\n        /* \"#utility.yul\":4748:4768   */\n      tag_63\n      jump\t// in\n    tag_133:\n        /* \"#utility.yul\":4743:4768   */\n      swap3\n      pop\n        /* \"#utility.yul\":4792:4793   */\n      dup3\n        /* \"#utility.yul\":4789:4790   */\n      dup3\n        /* \"#utility.yul\":4785:4794   */\n      sub\n        /* \"#utility.yul\":4777:4794   */\n      swap1\n      pop\n        /* \"#utility.yul\":4816:4817   */\n      dup2\n        /* \"#utility.yul\":4810:4814   */\n      dup2\n        /* \"#utility.yul\":4807:4818   */\n      gt\n        /* \"#utility.yul\":4804:4841   */\n      iszero\n      tag_134\n      jumpi\n        /* \"#utility.yul\":4821:4839   */\n      tag_135\n      tag_71\n      jump\t// in\n    tag_135:\n        /* \"#utility.yul\":4804:4841   */\n    tag_134:\n        /* \"#utility.yul\":4654:4848   */\n      swap3\n      swap2\n      pop\n      pop\n      jump\t// out\n\n    auxdata: 0xa264697066735822122043776a1d927fa51e1bcb27dad7e812c70788f35723b3f8cb584be5d3754b691664736f6c63430008180033\n}\n",
				"bytecode": {
					"linkReferences": {},
					"object": "608060405260015f55348015610013575f80fd5b50610543806100215f395ff3fe608060405234801561000f575f80fd5b5060043610610060575f3560e01c806305e30f51146100645780632efad6091461008057806365372147146100b0578063a1623dce146100ce578063cad0899b146100ea578063cdeb33141461011a575b5f80fd5b61007e6004803603810190610079919061029a565b61014a565b005b61009a600480360381019061009591906102f8565b61015f565b6040516100a79190610345565b60405180910390f35b6100b8610172565b6040516100c5919061036d565b60405180910390f35b6100e860048036038101906100e3919061029a565b610177565b005b61010460048036038101906100ff9190610386565b61019a565b604051610111919061036d565b60405180910390f35b610134600480360381019061012f9190610386565b6101eb565b604051610141919061036d565b60405180910390f35b805f5461015791906103f1565b5f8190555050565b5f61016a8383610239565b905092915050565b5f5481565b8060018114610184575f80fd5b815f5461019191906103f1565b5f819055505050565b5f81836101a79190610432565b90507fed389495059e3255c7a92671d5719bf4fd25064cd6bbbe911affd790ed68154183835f546040516101dd93929190610465565b60405180910390a192915050565b5f6101f6838361024e565b90507f02325f53408b10d20290d06f069ad56eb7ecae5db225e14d71cda2c523652c5b83838360405161022b93929190610465565b60405180910390a192915050565b5f8183610246919061049a565b905092915050565b5f818361025b91906104da565b905092915050565b5f80fd5b5f819050919050565b61027981610267565b8114610283575f80fd5b50565b5f8135905061029481610270565b92915050565b5f602082840312156102af576102ae610263565b5b5f6102bc84828501610286565b91505092915050565b5f819050919050565b6102d7816102c5565b81146102e1575f80fd5b50565b5f813590506102f2816102ce565b92915050565b5f806040838503121561030e5761030d610263565b5b5f61031b858286016102e4565b925050602061032c858286016102e4565b9150509250929050565b61033f816102c5565b82525050565b5f6020820190506103585f830184610336565b92915050565b61036781610267565b82525050565b5f6020820190506103805f83018461035e565b92915050565b5f806040838503121561039c5761039b610263565b5b5f6103a985828601610286565b92505060206103ba85828601610286565b9150509250929050565b7f4e487b71000000000000000000000000000000000000000000000000000000005f52601160045260245ffd5b5f6103fb82610267565b915061040683610267565b925082820261041481610267565b9150828204841483151761042b5761042a6103c4565b5b5092915050565b5f61043c82610267565b915061044783610267565b925082820190508082111561045f5761045e6103c4565b5b92915050565b5f6060820190506104785f83018661035e565b610485602083018561035e565b610492604083018461035e565b949350505050565b5f6104a4826102c5565b91506104af836102c5565b925082820390508181125f8412168282135f8512151617156104d4576104d36103c4565b5b92915050565b5f6104e482610267565b91506104ef83610267565b9250828203905081811115610507576105066103c4565b5b9291505056fea264697066735822122043776a1d927fa51e1bcb27dad7e812c70788f35723b3f8cb584be5d3754b691664736f6c63430008180033",
					"opcodes": "PUSH1 0x80 PUSH1 0x40 MSTORE PUSH1 0x1 PUSH0 SSTORE CALLVALUE DUP1 ISZERO PUSH2 0x13 JUMPI PUSH0 DUP1 REVERT JUMPDEST POP PUSH2 0x543 DUP1 PUSH2 0x21 PUSH0 CODECOPY PUSH0 RETURN INVALID PUSH1 0x80 PUSH1 0x40 MSTORE CALLVALUE DUP1 ISZERO PUSH2 0xF JUMPI PUSH0 DUP1 REVERT JUMPDEST POP PUSH1 0x4 CALLDATASIZE LT PUSH2 0x60 JUMPI PUSH0 CALLDATALOAD PUSH1 0xE0 SHR DUP1 PUSH4 0x5E30F51 EQ PUSH2 0x64 JUMPI DUP1 PUSH4 0x2EFAD609 EQ PUSH2 0x80 JUMPI DUP1 PUSH4 0x65372147 EQ PUSH2 0xB0 JUMPI DUP1 PUSH4 0xA1623DCE EQ PUSH2 0xCE JUMPI DUP1 PUSH4 0xCAD0899B EQ PUSH2 0xEA JUMPI DUP1 PUSH4 0xCDEB3314 EQ PUSH2 0x11A JUMPI JUMPDEST PUSH0 DUP1 REVERT JUMPDEST PUSH2 0x7E PUSH1 0x4 DUP1 CALLDATASIZE SUB DUP2 ADD SWAP1 PUSH2 0x79 SWAP2 SWAP1 PUSH2 0x29A JUMP JUMPDEST PUSH2 0x14A JUMP JUMPDEST STOP JUMPDEST PUSH2 0x9A PUSH1 0x4 DUP1 CALLDATASIZE SUB DUP2 ADD SWAP1 PUSH2 0x95 SWAP2 SWAP1 PUSH2 0x2F8 JUMP JUMPDEST PUSH2 0x15F JUMP JUMPDEST PUSH1 0x40 MLOAD PUSH2 0xA7 SWAP2 SWAP1 PUSH2 0x345 JUMP JUMPDEST PUSH1 0x40 MLOAD DUP1 SWAP2 SUB SWAP1 RETURN JUMPDEST PUSH2 0xB8 PUSH2 0x172 JUMP JUMPDEST PUSH1 0x40 MLOAD PUSH2 0xC5 SWAP2 SWAP1 PUSH2 0x36D JUMP JUMPDEST PUSH1 0x40 MLOAD DUP1 SWAP2 SUB SWAP1 RETURN JUMPDEST PUSH2 0xE8 PUSH1 0x4 DUP1 CALLDATASIZE SUB DUP2 ADD SWAP1 PUSH2 0xE3 SWAP2 SWAP1 PUSH2 0x29A JUMP JUMPDEST PUSH2 0x177 JUMP JUMPDEST STOP JUMPDEST PUSH2 0x104 PUSH1 0x4 DUP1 CALLDATASIZE SUB DUP2 ADD SWAP1 PUSH2 0xFF SWAP2 SWAP1 PUSH2 0x386 JUMP JUMPDEST PUSH2 0x19A JUMP JUMPDEST PUSH1 0x40 MLOAD PUSH2 0x111 SWAP2 SWAP1 PUSH2 0x36D JUMP JUMPDEST PUSH1 0x40 MLOAD DUP1 SWAP2 SUB SWAP1 RETURN JUMPDEST PUSH2 0x134 PUSH1 0x4 DUP1 CALLDATASIZE SUB DUP2 ADD SWAP1 PUSH2 0x12F SWAP2 SWAP1 PUSH2 0x386 JUMP JUMPDEST PUSH2 0x1EB JUMP JUMPDEST PUSH1 0x40 MLOAD PUSH2 0x141 SWAP2 SWAP1 PUSH2 0x36D JUMP JUMPDEST PUSH1 0x40 MLOAD DUP1 SWAP2 SUB SWAP1 RETURN JUMPDEST DUP1 PUSH0 SLOAD PUSH2 0x157 SWAP2 SWAP1 PUSH2 0x3F1 JUMP JUMPDEST PUSH0 DUP2 SWAP1 SSTORE POP POP JUMP JUMPDEST PUSH0 PUSH2 0x16A DUP4 DUP4 PUSH2 0x239 JUMP JUMPDEST SWAP1 POP SWAP3 SWAP2 POP POP JUMP JUMPDEST PUSH0 SLOAD DUP2 JUMP JUMPDEST DUP1 PUSH1 0x1 DUP2 EQ PUSH2 0x184 JUMPI PUSH0 DUP1 REVERT JUMPDEST DUP2 PUSH0 SLOAD PUSH2 0x191 SWAP2 SWAP1 PUSH2 0x3F1 JUMP JUMPDEST PUSH0 DUP2 SWAP1 SSTORE POP POP POP JUMP JUMPDEST PUSH0 DUP2 DUP4 PUSH2 0x1A7 SWAP2 SWAP1 PUSH2 0x432 JUMP JUMPDEST SWAP1 POP PUSH32 0xED389495059E3255C7A92671D5719BF4FD25064CD6BBBE911AFFD790ED681541 DUP4 DUP4 PUSH0 SLOAD PUSH1 0x40 MLOAD PUSH2 0x1DD SWAP4 SWAP3 SWAP2 SWAP1 PUSH2 0x465 JUMP JUMPDEST PUSH1 0x40 MLOAD DUP1 SWAP2 SUB SWAP1 LOG1 SWAP3 SWAP2 POP POP JUMP JUMPDEST PUSH0 PUSH2 0x1F6 DUP4 DUP4 PUSH2 0x24E JUMP JUMPDEST SWAP1 POP PUSH32 0x2325F53408B10D20290D06F069AD56EB7ECAE5DB225E14D71CDA2C523652C5B DUP4 DUP4 DUP4 PUSH1 0x40 MLOAD PUSH2 0x22B SWAP4 SWAP3 SWAP2 SWAP1 PUSH2 0x465 JUMP JUMPDEST PUSH1 0x40 MLOAD DUP1 SWAP2 SUB SWAP1 LOG1 SWAP3 SWAP2 POP POP JUMP JUMPDEST PUSH0 DUP2 DUP4 PUSH2 0x246 SWAP2 SWAP1 PUSH2 0x49A JUMP JUMPDEST SWAP1 POP SWAP3 SWAP2 POP POP JUMP JUMPDEST PUSH0 DUP2 DUP4 PUSH2 0x25B SWAP2 SWAP1 PUSH2 0x4DA JUMP JUMPDEST SWAP1 POP SWAP3 SWAP2 POP POP JUMP JUMPDEST PUSH0 DUP1 REVERT JUMPDEST PUSH0 DUP2 SWAP1 POP SWAP2 SWAP1 POP JUMP JUMPDEST PUSH2 0x279 DUP2 PUSH2 0x267 JUMP JUMPDEST DUP2 EQ PUSH2 0x283 JUMPI PUSH0 DUP1 REVERT JUMPDEST POP JUMP JUMPDEST PUSH0 DUP2 CALLDATALOAD SWAP1 POP PUSH2 0x294 DUP2 PUSH2 0x270 JUMP JUMPDEST SWAP3 SWAP2 POP POP JUMP JUMPDEST PUSH0 PUSH1 0x20 DUP3 DUP5 SUB SLT ISZERO PUSH2 0x2AF JUMPI PUSH2 0x2AE PUSH2 0x263 JUMP JUMPDEST JUMPDEST PUSH0 PUSH2 0x2BC DUP5 DUP3 DUP6 ADD PUSH2 0x286 JUMP JUMPDEST SWAP2 POP POP SWAP3 SWAP2 POP POP JUMP JUMPDEST PUSH0 DUP2 SWAP1 POP SWAP2 SWAP1 POP JUMP JUMPDEST PUSH2 0x2D7 DUP2 PUSH2 0x2C5 JUMP JUMPDEST DUP2 EQ PUSH2 0x2E1 JUMPI PUSH0 DUP1 REVERT JUMPDEST POP JUMP JUMPDEST PUSH0 DUP2 CALLDATALOAD SWAP1 POP PUSH2 0x2F2 DUP2 PUSH2 0x2CE JUMP JUMPDEST SWAP3 SWAP2 POP POP JUMP JUMPDEST PUSH0 DUP1 PUSH1 0x40 DUP4 DUP6 SUB SLT ISZERO PUSH2 0x30E JUMPI PUSH2 0x30D PUSH2 0x263 JUMP JUMPDEST JUMPDEST PUSH0 PUSH2 0x31B DUP6 DUP3 DUP7 ADD PUSH2 0x2E4 JUMP JUMPDEST SWAP3 POP POP PUSH1 0x20 PUSH2 0x32C DUP6 DUP3 DUP7 ADD PUSH2 0x2E4 JUMP JUMPDEST SWAP2 POP POP SWAP3 POP SWAP3 SWAP1 POP JUMP JUMPDEST PUSH2 0x33F DUP2 PUSH2 0x2C5 JUMP JUMPDEST DUP3 MSTORE POP POP JUMP JUMPDEST PUSH0 PUSH1 0x20 DUP3 ADD SWAP1 POP PUSH2 0x358 PUSH0 DUP4 ADD DUP5 PUSH2 0x336 JUMP JUMPDEST SWAP3 SWAP2 POP POP JUMP JUMPDEST PUSH2 0x367 DUP2 PUSH2 0x267 JUMP JUMPDEST DUP3 MSTORE POP POP JUMP JUMPDEST PUSH0 PUSH1 0x20 DUP3 ADD SWAP1 POP PUSH2 0x380 PUSH0 DUP4 ADD DUP5 PUSH2 0x35E JUMP JUMPDEST SWAP3 SWAP2 POP POP JUMP JUMPDEST PUSH0 DUP1 PUSH1 0x40 DUP4 DUP6 SUB SLT ISZERO PUSH2 0x39C JUMPI PUSH2 0x39B PUSH2 0x263 JUMP JUMPDEST JUMPDEST PUSH0 PUSH2 0x3A9 DUP6 DUP3 DUP7 ADD PUSH2 0x286 JUMP JUMPDEST SWAP3 POP POP PUSH1 0x20 PUSH2 0x3BA DUP6 DUP3 DUP7 ADD PUSH2 0x286 JUMP JUMPDEST SWAP2 POP POP SWAP3 POP SWAP3 SWAP1 POP JUMP JUMPDEST PUSH32 0x4E487B7100000000000000000000000000000000000000000000000000000000 PUSH0 MSTORE PUSH1 0x11 PUSH1 0x4 MSTORE PUSH1 0x24 PUSH0 REVERT JUMPDEST PUSH0 PUSH2 0x3FB DUP3 PUSH2 0x267 JUMP JUMPDEST SWAP2 POP PUSH2 0x406 DUP4 PUSH2 0x267 JUMP JUMPDEST SWAP3 POP DUP3 DUP3 MUL PUSH2 0x414 DUP2 PUSH2 0x267 JUMP JUMPDEST SWAP2 POP DUP3 DUP3 DIV DUP5 EQ DUP4 ISZERO OR PUSH2 0x42B JUMPI PUSH2 0x42A PUSH2 0x3C4 JUMP JUMPDEST JUMPDEST POP SWAP3 SWAP2 POP POP JUMP JUMPDEST PUSH0 PUSH2 0x43C DUP3 PUSH2 0x267 JUMP JUMPDEST SWAP2 POP PUSH2 0x447 DUP4 PUSH2 0x267 JUMP JUMPDEST SWAP3 POP DUP3 DUP3 ADD SWAP1 POP DUP1 DUP3 GT ISZERO PUSH2 0x45F JUMPI PUSH2 0x45E PUSH2 0x3C4 JUMP JUMPDEST JUMPDEST SWAP3 SWAP2 POP POP JUMP JUMPDEST PUSH0 PUSH1 0x60 DUP3 ADD SWAP1 POP PUSH2 0x478 PUSH0 DUP4 ADD DUP7 PUSH2 0x35E JUMP JUMPDEST PUSH2 0x485 PUSH1 0x20 DUP4 ADD DUP6 PUSH2 0x35E JUMP JUMPDEST PUSH2 0x492 PUSH1 0x40 DUP4 ADD DUP5 PUSH2 0x35E JUMP JUMPDEST SWAP5 SWAP4 POP POP POP POP JUMP JUMPDEST PUSH0 PUSH2 0x4A4 DUP3 PUSH2 0x2C5 JUMP JUMPDEST SWAP2 POP PUSH2 0x4AF DUP4 PUSH2 0x2C5 JUMP JUMPDEST SWAP3 POP DUP3 DUP3 SUB SWAP1 POP DUP2 DUP2 SLT PUSH0 DUP5 SLT AND DUP3 DUP3 SGT PUSH0 DUP6 SLT ISZERO AND OR ISZERO PUSH2 0x4D4 JUMPI PUSH2 0x4D3 PUSH2 0x3C4 JUMP JUMPDEST JUMPDEST SWAP3 SWAP2 POP POP JUMP JUMPDEST PUSH0 PUSH2 0x4E4 DUP3 PUSH2 0x267 JUMP JUMPDEST SWAP2 POP PUSH2 0x4EF DUP4 PUSH2 0x267 JUMP JUMPDEST SWAP3 POP DUP3 DUP3 SUB SWAP1 POP DUP2 DUP2 GT ISZERO PUSH2 0x507 JUMPI PUSH2 0x506 PUSH2 0x3C4 JUMP JUMPDEST JUMPDEST SWAP3 SWAP2 POP POP JUMP INVALID LOG2 PUSH5 0x6970667358 0x22 SLT KECCAK256 NUMBER PUSH24 0x6A1D927FA51E1BCB27DAD7E812C70788F35723B3F8CB584B 0xE5 0xD3 PUSH22 0x4B691664736F6C634300081800330000000000000000 "
				},
				"gasEstimates": {
					"creation": {
						"codeDepositCost": "269400",
						"executionCost": "22415",
						"totalCost": "291815"
					},
					"external": {
						"multiplier(uint256)": "infinite",
						"multiplier2(uint256)": "infinite",
						"result()": "2446",
						"substraction(uint256,uint256)": "infinite",
						"substraction2(int256,int256)": "infinite",
						"sum(uint256,uint256)": "infinite"
					},
					"internal": {
						"substraction_logic(uint256,uint256)": "infinite",
						"substraction_logic2(int256,int256)": "infinite"
					}
				},
				"methodIdentifiers": {
					"multiplier(uint256)": "05e30f51",
					"multiplier2(uint256)": "a1623dce",
					"result()": "65372147",
					"substraction(uint256,uint256)": "cdeb3314",
					"substraction2(int256,int256)": "2efad609",
					"sum(uint256,uint256)": "cad0899b"
				}
			},
			"storageLayout": {
				"storage": [
					{
						"astId": 4,
						"contract": "Calculator.sol:Calculator",
						"label": "result",
						"offset": 0,
						"slot": "0",
						"type": "t_uint256"
					}
				],
				"types": {
					"t_uint256": {
						"encoding": "inplace",
						"label": "uint256",
						"numberOfBytes": "32"
					}
				}
			},
			"userdoc": {
				"kind": "user",
				"methods": {},
				"version": 1
			}
		}
	}
}