{
	"Calculator.sol": {
		"Calculator": {
			"abi": [
				{
					"anonymous": false,
					"inputs": [
						{
							"indexed": false,
							"internalType": "uint256",
							"name": "num1",
							"type": "uint256"
						},
						{
							"indexed": false,
							"internalType": "uint256",
							"name": "num2",
							"type": "uint256"
						},
						{
							"indexed": false,
							"internalType": "uint256",
							"name": "result",
							"type": "uint256"
						}
					],
					"name": "Average",
					"type": "event"
				},
				{
					"anonymous": false,
					"inputs": [
						{
							"indexed": false,
							"internalType": "uint256",
							"name": "num1",
							"type": "uint256"
						},
						{
							"indexed": false,
							"internalType": "uint256",
							"name": "num2",
							"type": "uint256"
						},
						{
							"indexed": false,
							"internalType": "uint256",
							"name": "result",
							"type": "uint256"
						}
					],
					"name": "Division",
					"type": "event"
				},
				{
					"anonymous": false,
					"inputs": [
						{
							"indexed": false,
							"internalType": "uint256",
							"name": "num1",
							"type": "uint256"
						},
						{
							"indexed": false,
							"internalType": "uint256",
							"name": "num2",
							"type": "uint256"
						},
						{
							"indexed": false,
							"internalType": "uint256",
							"name": "result",
							"type": "uint256"
						}
					],
					"name": "Exponent",
					"type": "event"
				},
				{
					"anonymous": false,
					"inputs": [
						{
							"indexed": false,
							"internalType": "uint256",
							"name": "num1",
							"type": "uint256"
						},
						{
							"indexed": false,
							"internalType": "uint256",
							"name": "num2",
							"type": "uint256"
						},
						{
							"indexed": false,
							"internalType": "uint256",
							"name": "result",
							"type": "uint256"
						}
					],
					"name": "Maximum",
					"type": "event"
				},
				{
					"anonymous": false,
					"inputs": [
						{
							"indexed": false,
							"internalType": "uint256",
							"name": "num1",
							"type": "uint256"
						},
						{
							"indexed": false,
							"internalType": "uint256",
							"name": "num2",
							"type": "uint256"
						},
						{
							"indexed": false,
							"internalType": "uint256",
							"name": "result",
							"type": "uint256"
						}
					],
					"name": "Module",
					"type": "event"
				},
				{
					"anonymous": false,
					"inputs": [
						{
							"indexed": false,
							"internalType": "uint256",
							"name": "num1",
							"type": "uint256"
						},
						{
							"indexed": false,
							"internalType": "uint256",
							"name": "result",
							"type": "uint256"
						}
					],
					"name": "Sqrt",
					"type": "event"
				},
				{
					"anonymous": false,
					"inputs": [
						{
							"indexed": false,
							"internalType": "uint256",
							"name": "num1",
							"type": "uint256"
						},
						{
							"indexed": false,
							"internalType": "uint256",
							"name": "num2",
							"type": "uint256"
						},
						{
							"indexed": false,
							"internalType": "uint256",
							"name": "result",
							"type": "uint256"
						}
					],
					"name": "Substraction",
					"type": "event"
				},
				{
					"anonymous": false,
					"inputs": [
						{
							"indexed": false,
							"internalType": "uint256",
							"name": "num1",
							"type": "uint256"
						},
						{
							"indexed": false,
							"internalType": "uint256",
							"name": "num2",
							"type": "uint256"
						},
						{
							"indexed": false,
							"internalType": "uint256",
							"name": "result",
							"type": "uint256"
						}
					],
					"name": "Sum",
					"type": "event"
				},
				{
					"inputs": [
						{
							"internalType": "uint256",
							"name": "num1_",
							"type": "uint256"
						},
						{
							"internalType": "uint256",
							"name": "num2_",
							"type": "uint256"
						}
					],
					"name": "average",
					"outputs": [
						{
							"internalType": "uint256",
							"name": "result_",
							"type": "uint256"
						}
					],
					"stateMutability": "nonpayable",
					"type": "function"
				},
				{
					"inputs": [
						{
							"internalType": "uint256",
							"name": "num1_",
							"type": "uint256"
						},
						{
							"internalType": "uint256",
							"name": "num2_",
							"type": "uint256"
						}
					],
					"name": "division",
					"outputs": [
						{
							"internalType": "uint256",
							"name": "result_",
							"type": "uint256"
						}
					],
					"stateMutability": "nonpayable",
					"type": "function"
				},
				{
					"inputs": [
						{
							"internalType": "uint256",
							"name": "num1_",
							"type": "uint256"
						},
						{
							"internalType": "uint256",
							"name": "num2_",
							"type": "uint256"
						}
					],
					"name": "exponent",
					"outputs": [
						{
							"internalType": "uint256",
							"name": "result_",
							"type": "uint256"
						}
					],
					"stateMutability": "nonpayable",
					"type": "function"
				},
				{
					"inputs": [
						{
							"internalType": "uint256",
							"name": "num1_",
							"type": "uint256"
						},
						{
							"internalType": "uint256",
							"name": "num2_",
							"type": "uint256"
						}
					],
					"name": "maximum",
					"outputs": [
						{
							"internalType": "uint256",
							"name": "result_",
							"type": "uint256"
						}
					],
					"stateMutability": "nonpayable",
					"type": "function"
				},
				{
					"inputs": [
						{
							"internalType": "uint256",
							"name": "num1_",
							"type": "uint256"
						},
						{
							"internalType": "uint256",
							"name": "num2_",
							"type": "uint256"
						}
					],
					"name": "module",
					"outputs": [
						{
							"internalType": "uint256",
							"name": "result_",
							"type": "uint256"
						}
					],
					"stateMutability": "nonpayable",
					"type": "function"
				},
				{
					"inputs": [
						{
							"internalType": "uint256",
							"name": "num1_",
							"type": "uint256"
						}
					],
					"name": "multiplier",
					"outputs": [],
					"stateMutability": "nonpayable",
					"type": "function"
				},
				{
					"inputs": [
						{
							"internalType": "uint256",
							"name": "num1_",
							"type": "uint256"
						}
					],
					"name": "multiplier2",
					"outputs": [],
					"stateMutability": "nonpayable",
					"type": "function"
				},
				{
					"inputs": [],
					"name": "result",
					"outputs": [
						{
							"internalType": "uint256",
							"name": "",
							"type": "uint256"
						}
					],
					"stateMutability": "view",
					"type": "function"
				},
				{
					"inputs": [
						{
							"internalType": "uint256",
							"name": "num1_",
							"type": "uint256"
						}
					],
					"name": "sqrt",
					"outputs": [
						{
							"internalType": "uint256",
							"name": "result_",
							"type": "uint256"
						}
					],
					"stateMutability": "nonpayable",
					"type": "function"
				},
				{
					"inputs": [
						{
							"internalType": "uint256",
							"name": "num1_",
							"type": "uint256"
						},
						{
							"internalType": "uint256",
							"name": "num2_",
							"type": "uint256"
						}
					],
					"name": "substraction",
					"outputs": [
						{
							"internalType": "uint256",
							"name": "result_",
							"type": "uint256"
						}
					],
					"stateMutability": "nonpayable",
					"type": "function"
				},
				{
					"inputs": [
						{
							"internalType": "int256",
							"name": "num1_",
							"type": "int256"
						},
						{
							"internalType": "int256",
							"name": "num2_",
							"type": "int256"
						}
					],
					"name": "substraction2",
					"outputs": [
						{
							"internalType": "int256",
							"name": "result_",
							"type": "int256"
						}
					],
					"stateMutability": "pure",
					"type": "function"
				},
				{
					"inputs": [
						{
							"internalType": "uint256",
							"name": "num1_",
							"type": "uint256"
						},
						{
							"internalType": "uint256",
							"name": "num2_",
							"type": "uint256"
						}
					],
					"name": "sum",
					"outputs": [
						{
							"internalType": "uint256",
							"name": "result_",
							"type": "uint256"
						}
					],
					"stateMutability": "nonpayable",
					"type": "function"
				}
			],
			"devdoc": {
				"kind": "dev",
				"methods": {},
				"version": 1
			},
			"evm": {
				"assembly": "    /* \"Calculator.sol\":125:4208  contract Calculator {... */\n  mstore(0x40, 0x80)\n    /* \"Calculator.sol\":207:208  1 */\n  0x01\n    /* \"Calculator.sol\":183:208  uint256 public result = 1 */\n  0x00\n  sstore\n    /* \"Calculator.sol\":125:4208  contract Calculator {... */\n  callvalue\n  dup1\n  iszero\n  tag_1\n  jumpi\n  0x00\n  dup1\n  revert\ntag_1:\n  pop\n  dataSize(sub_0)\n  dup1\n  dataOffset(sub_0)\n  0x00\n  codecopy\n  0x00\n  return\nstop\n\nsub_0: assembly {\n        /* \"Calculator.sol\":125:4208  contract Calculator {... */\n      mstore(0x40, 0x80)\n      callvalue\n      dup1\n      iszero\n      tag_1\n      jumpi\n      0x00\n      dup1\n      revert\n    tag_1:\n      pop\n      jumpi(tag_2, lt(calldatasize, 0x04))\n      shr(0xe0, calldataload(0x00))\n      dup1\n      0x677342ce\n      gt\n      tag_15\n      jumpi\n      dup1\n      0x677342ce\n      eq\n      tag_9\n      jumpi\n      dup1\n      0xa1623dce\n      eq\n      tag_10\n      jumpi\n      dup1\n      0xcad0899b\n      eq\n      tag_11\n      jumpi\n      dup1\n      0xcba5477c\n      eq\n      tag_12\n      jumpi\n      dup1\n      0xcdeb3314\n      eq\n      tag_13\n      jumpi\n      dup1\n      0xe0068052\n      eq\n      tag_14\n      jumpi\n      jump(tag_2)\n    tag_15:\n      dup1\n      0x05e30f51\n      eq\n      tag_3\n      jumpi\n      dup1\n      0x2b7423ab\n      eq\n      tag_4\n      jumpi\n      dup1\n      0x2efad609\n      eq\n      tag_5\n      jumpi\n      dup1\n      0x2f8cd8b1\n      eq\n      tag_6\n      jumpi\n      dup1\n      0x49175e4b\n      eq\n      tag_7\n      jumpi\n      dup1\n      0x65372147\n      eq\n      tag_8\n      jumpi\n    tag_2:\n      0x00\n      dup1\n      revert\n        /* \"Calculator.sol\":1564:1653  function multiplier(uint256 num1_) public{... */\n    tag_3:\n      tag_16\n      0x04\n      dup1\n      calldatasize\n      sub\n      dup2\n      add\n      swap1\n      tag_17\n      swap2\n      swap1\n      tag_18\n      jump\t// in\n    tag_17:\n      tag_19\n      jump\t// in\n    tag_16:\n      stop\n        /* \"Calculator.sol\":2901:3072  function average(uint256 num1_, uint256 num2_) public checkPositiveNumbers(num1_,num2_) returns(uint256 result_){... */\n    tag_4:\n      tag_20\n      0x04\n      dup1\n      calldatasize\n      sub\n      dup2\n      add\n      swap1\n      tag_21\n      swap2\n      swap1\n      tag_22\n      jump\t// in\n    tag_21:\n      tag_23\n      jump\t// in\n    tag_20:\n      mload(0x40)\n      tag_24\n      swap2\n      swap1\n      tag_25\n      jump\t// in\n    tag_24:\n      mload(0x40)\n      dup1\n      swap2\n      sub\n      swap1\n      return\n        /* \"Calculator.sol\":1401:1556  function substraction2(int256 num1_, int256 num2_) public pure returns(int256 result_){... */\n    tag_5:\n      tag_26\n      0x04\n      dup1\n      calldatasize\n      sub\n      dup2\n      add\n      swap1\n      tag_27\n      swap2\n      swap1\n      tag_28\n      jump\t// in\n    tag_27:\n      tag_29\n      jump\t// in\n    tag_26:\n      mload(0x40)\n      tag_30\n      swap2\n      swap1\n      tag_31\n      jump\t// in\n    tag_30:\n      mload(0x40)\n      dup1\n      swap2\n      sub\n      swap1\n      return\n        /* \"Calculator.sol\":1997:2273  function exponent(uint256 num1_, uint256 num2_) public checkPositiveNumbers(num1_,num2_) returns(uint256 result_){... */\n    tag_6:\n      tag_32\n      0x04\n      dup1\n      calldatasize\n      sub\n      dup2\n      add\n      swap1\n      tag_33\n      swap2\n      swap1\n      tag_22\n      jump\t// in\n    tag_33:\n      tag_34\n      jump\t// in\n    tag_32:\n      mload(0x40)\n      tag_35\n      swap2\n      swap1\n      tag_25\n      jump\t// in\n    tag_35:\n      mload(0x40)\n      dup1\n      swap2\n      sub\n      swap1\n      return\n        /* \"Calculator.sol\":2468:2669  function module(uint256 num1_, uint256 num2_) public checkPositiveNumbers(num1_,num2_) returns(uint256 result_){... */\n    tag_7:\n      tag_36\n      0x04\n      dup1\n      calldatasize\n      sub\n      dup2\n      add\n      swap1\n      tag_37\n      swap2\n      swap1\n      tag_22\n      jump\t// in\n    tag_37:\n      tag_38\n      jump\t// in\n    tag_36:\n      mload(0x40)\n      tag_39\n      swap2\n      swap1\n      tag_25\n      jump\t// in\n    tag_39:\n      mload(0x40)\n      dup1\n      swap2\n      sub\n      swap1\n      return\n        /* \"Calculator.sol\":183:208  uint256 public result = 1 */\n    tag_8:\n      tag_40\n      tag_41\n      jump\t// in\n    tag_40:\n      mload(0x40)\n      tag_42\n      swap2\n      swap1\n      tag_25\n      jump\t// in\n    tag_42:\n      mload(0x40)\n      dup1\n      swap2\n      sub\n      swap1\n      return\n        /* \"Calculator.sol\":2281:2453  function sqrt(uint256 num1_) public checkPositiveNumber(num1_) returns(uint256 result_){... */\n    tag_9:\n      tag_43\n      0x04\n      dup1\n      calldatasize\n      sub\n      dup2\n      add\n      swap1\n      tag_44\n      swap2\n      swap1\n      tag_18\n      jump\t// in\n    tag_44:\n      tag_45\n      jump\t// in\n    tag_43:\n      mload(0x40)\n      tag_46\n      swap2\n      swap1\n      tag_25\n      jump\t// in\n    tag_46:\n      mload(0x40)\n      dup1\n      swap2\n      sub\n      swap1\n      return\n        /* \"Calculator.sol\":1661:1776  function multiplier2(uint256 num1_) public checkPositiveNumber(num1_){... */\n    tag_10:\n      tag_47\n      0x04\n      dup1\n      calldatasize\n      sub\n      dup2\n      add\n      swap1\n      tag_48\n      swap2\n      swap1\n      tag_18\n      jump\t// in\n    tag_48:\n      tag_49\n      jump\t// in\n    tag_47:\n      stop\n        /* \"Calculator.sol\":1031:1188  function sum(uint256 num1_, uint256 num2_) public returns(uint256 result_){... */\n    tag_11:\n      tag_50\n      0x04\n      dup1\n      calldatasize\n      sub\n      dup2\n      add\n      swap1\n      tag_51\n      swap2\n      swap1\n      tag_22\n      jump\t// in\n    tag_51:\n      tag_52\n      jump\t// in\n    tag_50:\n      mload(0x40)\n      tag_53\n      swap2\n      swap1\n      tag_25\n      jump\t// in\n    tag_53:\n      mload(0x40)\n      dup1\n      swap2\n      sub\n      swap1\n      return\n        /* \"Calculator.sol\":2677:2893  function maximum(uint256 num1_, uint256 num2_) public checkPositiveNumbers(num1_,num2_) returns(uint256 result_){... */\n    tag_12:\n      tag_54\n      0x04\n      dup1\n      calldatasize\n      sub\n      dup2\n      add\n      swap1\n      tag_55\n      swap2\n      swap1\n      tag_22\n      jump\t// in\n    tag_55:\n      tag_56\n      jump\t// in\n    tag_54:\n      mload(0x40)\n      tag_57\n      swap2\n      swap1\n      tag_25\n      jump\t// in\n    tag_57:\n      mload(0x40)\n      dup1\n      swap2\n      sub\n      swap1\n      return\n        /* \"Calculator.sol\":1196:1393  function substraction(uint256 num1_, uint256 num2_) public  returns(uint256 result_){... */\n    tag_13:\n      tag_58\n      0x04\n      dup1\n      calldatasize\n      sub\n      dup2\n      add\n      swap1\n      tag_59\n      swap2\n      swap1\n      tag_22\n      jump\t// in\n    tag_59:\n      tag_60\n      jump\t// in\n    tag_58:\n      mload(0x40)\n      tag_61\n      swap2\n      swap1\n      tag_25\n      jump\t// in\n    tag_61:\n      mload(0x40)\n      dup1\n      swap2\n      sub\n      swap1\n      return\n        /* \"Calculator.sol\":1784:1989  function division(uint256 num1_, uint256 num2_) public checkPositiveNumbers(num1_,num2_) returns(uint256 result_){... */\n    tag_14:\n      tag_62\n      0x04\n      dup1\n      calldatasize\n      sub\n      dup2\n      add\n      swap1\n      tag_63\n      swap2\n      swap1\n      tag_22\n      jump\t// in\n    tag_63:\n      tag_64\n      jump\t// in\n    tag_62:\n      mload(0x40)\n      tag_65\n      swap2\n      swap1\n      tag_25\n      jump\t// in\n    tag_65:\n      mload(0x40)\n      dup1\n      swap2\n      sub\n      swap1\n      return\n        /* \"Calculator.sol\":1564:1653  function multiplier(uint256 num1_) public{... */\n    tag_19:\n        /* \"Calculator.sol\":1636:1641  num1_ */\n      dup1\n        /* \"Calculator.sol\":1627:1633  result */\n      sload(0x00)\n        /* \"Calculator.sol\":1627:1641  result * num1_ */\n      tag_67\n      swap2\n      swap1\n      tag_68\n      jump\t// in\n    tag_67:\n        /* \"Calculator.sol\":1618:1624  result */\n      0x00\n        /* \"Calculator.sol\":1618:1641  result = result * num1_ */\n      dup2\n      swap1\n      sstore\n      pop\n        /* \"Calculator.sol\":1564:1653  function multiplier(uint256 num1_) public{... */\n      pop\n      jump\t// out\n        /* \"Calculator.sol\":2901:3072  function average(uint256 num1_, uint256 num2_) public checkPositiveNumbers(num1_,num2_) returns(uint256 result_){... */\n    tag_23:\n        /* \"Calculator.sol\":2997:3012  uint256 result_ */\n      0x00\n        /* \"Calculator.sol\":2976:2981  num1_ */\n      dup3\n        /* \"Calculator.sol\":2982:2987  num2_ */\n      dup3\n        /* \"Calculator.sol\":436:437  0 */\n      0x00\n        /* \"Calculator.sol\":428:433  num1_ */\n      dup3\n        /* \"Calculator.sol\":428:437  num1_ <=0 */\n      gt\n      iszero\n        /* \"Calculator.sol\":428:450  num1_ <=0 || num2_ <=0 */\n      dup1\n      tag_70\n      jumpi\n      pop\n        /* \"Calculator.sol\":449:450  0 */\n      0x00\n        /* \"Calculator.sol\":441:446  num2_ */\n      dup2\n        /* \"Calculator.sol\":441:450  num2_ <=0 */\n      gt\n      iszero\n        /* \"Calculator.sol\":428:450  num1_ <=0 || num2_ <=0 */\n    tag_70:\n        /* \"Calculator.sol\":425:460  if(num1_ <=0 || num2_ <=0) revert() */\n      iszero\n      tag_71\n      jumpi\n        /* \"Calculator.sol\":452:460  revert() */\n      0x00\n      dup1\n      revert\n        /* \"Calculator.sol\":425:460  if(num1_ <=0 || num2_ <=0) revert() */\n    tag_71:\n        /* \"Calculator.sol\":3036:3062  average_logic(num1_,num2_) */\n      tag_73\n        /* \"Calculator.sol\":3050:3055  num1_ */\n      dup6\n        /* \"Calculator.sol\":3056:3061  num2_ */\n      dup6\n        /* \"Calculator.sol\":3036:3049  average_logic */\n      tag_74\n        /* \"Calculator.sol\":3036:3062  average_logic(num1_,num2_) */\n      jump\t// in\n    tag_73:\n        /* \"Calculator.sol\":3026:3062  result_ = average_logic(num1_,num2_) */\n      swap3\n      pop\n        /* \"Calculator.sol\":2901:3072  function average(uint256 num1_, uint256 num2_) public checkPositiveNumbers(num1_,num2_) returns(uint256 result_){... */\n      pop\n      pop\n      swap3\n      swap2\n      pop\n      pop\n      jump\t// out\n        /* \"Calculator.sol\":1401:1556  function substraction2(int256 num1_, int256 num2_) public pure returns(int256 result_){... */\n    tag_29:\n        /* \"Calculator.sol\":1472:1486  int256 result_ */\n      0x00\n        /* \"Calculator.sol\":1510:1542  substraction_logic2(num1_,num2_) */\n      tag_76\n        /* \"Calculator.sol\":1530:1535  num1_ */\n      dup4\n        /* \"Calculator.sol\":1536:1541  num2_ */\n      dup4\n        /* \"Calculator.sol\":1510:1529  substraction_logic2 */\n      tag_77\n        /* \"Calculator.sol\":1510:1542  substraction_logic2(num1_,num2_) */\n      jump\t// in\n    tag_76:\n        /* \"Calculator.sol\":1500:1542  result_ = substraction_logic2(num1_,num2_) */\n      swap1\n      pop\n        /* \"Calculator.sol\":1401:1556  function substraction2(int256 num1_, int256 num2_) public pure returns(int256 result_){... */\n      swap3\n      swap2\n      pop\n      pop\n      jump\t// out\n        /* \"Calculator.sol\":1997:2273  function exponent(uint256 num1_, uint256 num2_) public checkPositiveNumbers(num1_,num2_) returns(uint256 result_){... */\n    tag_34:\n        /* \"Calculator.sol\":2094:2109  uint256 result_ */\n      0x00\n        /* \"Calculator.sol\":2073:2078  num1_ */\n      dup3\n        /* \"Calculator.sol\":2079:2084  num2_ */\n      dup3\n        /* \"Calculator.sol\":436:437  0 */\n      0x00\n        /* \"Calculator.sol\":428:433  num1_ */\n      dup3\n        /* \"Calculator.sol\":428:437  num1_ <=0 */\n      gt\n      iszero\n        /* \"Calculator.sol\":428:450  num1_ <=0 || num2_ <=0 */\n      dup1\n      tag_79\n      jumpi\n      pop\n        /* \"Calculator.sol\":449:450  0 */\n      0x00\n        /* \"Calculator.sol\":441:446  num2_ */\n      dup2\n        /* \"Calculator.sol\":441:450  num2_ <=0 */\n      gt\n      iszero\n        /* \"Calculator.sol\":428:450  num1_ <=0 || num2_ <=0 */\n    tag_79:\n        /* \"Calculator.sol\":425:460  if(num1_ <=0 || num2_ <=0) revert() */\n      iszero\n      tag_80\n      jumpi\n        /* \"Calculator.sol\":452:460  revert() */\n      0x00\n      dup1\n      revert\n        /* \"Calculator.sol\":425:460  if(num1_ <=0 || num2_ <=0) revert() */\n    tag_80:\n        /* \"Calculator.sol\":2133:2134  1 */\n      0x01\n        /* \"Calculator.sol\":2123:2134  result_ = 1 */\n      swap3\n      pop\n        /* \"Calculator.sol\":2151:2160  uint256 i */\n      0x00\n        /* \"Calculator.sol\":2146:2222  for (uint256 i = 0; i < num2_; i++) {... */\n    tag_82:\n        /* \"Calculator.sol\":2170:2175  num2_ */\n      dup5\n        /* \"Calculator.sol\":2166:2167  i */\n      dup2\n        /* \"Calculator.sol\":2166:2175  i < num2_ */\n      lt\n        /* \"Calculator.sol\":2146:2222  for (uint256 i = 0; i < num2_; i++) {... */\n      iszero\n      tag_83\n      jumpi\n        /* \"Calculator.sol\":2204:2209  num1_ */\n      dup6\n        /* \"Calculator.sol\":2193:2209  result_ *= num1_ */\n      dup5\n      tag_85\n      swap2\n      swap1\n      tag_68\n      jump\t// in\n    tag_85:\n      swap4\n      pop\n        /* \"Calculator.sol\":2177:2180  i++ */\n      dup1\n      dup1\n      0x01\n      add\n      swap2\n      pop\n      pop\n        /* \"Calculator.sol\":2146:2222  for (uint256 i = 0; i < num2_; i++) {... */\n      jump(tag_82)\n    tag_83:\n      pop\n        /* \"Calculator.sol\":2233:2263  Exponent(num1_, num2_, result) */\n      0x8f88adbfbd9fac1a93415da25ad2a978a2ed5ecf0179be666a5c0aa82f8df265\n        /* \"Calculator.sol\":2242:2247  num1_ */\n      dup6\n        /* \"Calculator.sol\":2249:2254  num2_ */\n      dup6\n        /* \"Calculator.sol\":2256:2262  result */\n      sload(0x00)\n        /* \"Calculator.sol\":2233:2263  Exponent(num1_, num2_, result) */\n      mload(0x40)\n      tag_86\n      swap4\n      swap3\n      swap2\n      swap1\n      tag_87\n      jump\t// in\n    tag_86:\n      mload(0x40)\n      dup1\n      swap2\n      sub\n      swap1\n      log1\n        /* \"Calculator.sol\":1997:2273  function exponent(uint256 num1_, uint256 num2_) public checkPositiveNumbers(num1_,num2_) returns(uint256 result_){... */\n      pop\n      pop\n      swap3\n      swap2\n      pop\n      pop\n      jump\t// out\n        /* \"Calculator.sol\":2468:2669  function module(uint256 num1_, uint256 num2_) public checkPositiveNumbers(num1_,num2_) returns(uint256 result_){... */\n    tag_38:\n        /* \"Calculator.sol\":2563:2578  uint256 result_ */\n      0x00\n        /* \"Calculator.sol\":2542:2547  num1_ */\n      dup3\n        /* \"Calculator.sol\":2548:2553  num2_ */\n      dup3\n        /* \"Calculator.sol\":436:437  0 */\n      0x00\n        /* \"Calculator.sol\":428:433  num1_ */\n      dup3\n        /* \"Calculator.sol\":428:437  num1_ <=0 */\n      gt\n      iszero\n        /* \"Calculator.sol\":428:450  num1_ <=0 || num2_ <=0 */\n      dup1\n      tag_89\n      jumpi\n      pop\n        /* \"Calculator.sol\":449:450  0 */\n      0x00\n        /* \"Calculator.sol\":441:446  num2_ */\n      dup2\n        /* \"Calculator.sol\":441:450  num2_ <=0 */\n      gt\n      iszero\n        /* \"Calculator.sol\":428:450  num1_ <=0 || num2_ <=0 */\n    tag_89:\n        /* \"Calculator.sol\":425:460  if(num1_ <=0 || num2_ <=0) revert() */\n      iszero\n      tag_90\n      jumpi\n        /* \"Calculator.sol\":452:460  revert() */\n      0x00\n      dup1\n      revert\n        /* \"Calculator.sol\":425:460  if(num1_ <=0 || num2_ <=0) revert() */\n    tag_90:\n        /* \"Calculator.sol\":2610:2615  num2_ */\n      dup4\n        /* \"Calculator.sol\":2602:2607  num1_ */\n      dup6\n        /* \"Calculator.sol\":2602:2615  num1_ % num2_ */\n      tag_92\n      swap2\n      swap1\n      tag_93\n      jump\t// in\n    tag_92:\n        /* \"Calculator.sol\":2592:2615  result_ = num1_ % num2_ */\n      swap3\n      pop\n        /* \"Calculator.sol\":2631:2659  Module(num1_, num2_, result) */\n      0xcfee31662af25188f47f9d61b42c3c6d09562d047aeb60b7d5734902f09a9dab\n        /* \"Calculator.sol\":2638:2643  num1_ */\n      dup6\n        /* \"Calculator.sol\":2645:2650  num2_ */\n      dup6\n        /* \"Calculator.sol\":2652:2658  result */\n      sload(0x00)\n        /* \"Calculator.sol\":2631:2659  Module(num1_, num2_, result) */\n      mload(0x40)\n      tag_94\n      swap4\n      swap3\n      swap2\n      swap1\n      tag_87\n      jump\t// in\n    tag_94:\n      mload(0x40)\n      dup1\n      swap2\n      sub\n      swap1\n      log1\n        /* \"Calculator.sol\":2468:2669  function module(uint256 num1_, uint256 num2_) public checkPositiveNumbers(num1_,num2_) returns(uint256 result_){... */\n      pop\n      pop\n      swap3\n      swap2\n      pop\n      pop\n      jump\t// out\n        /* \"Calculator.sol\":183:208  uint256 public result = 1 */\n    tag_41:\n      sload(0x00)\n      dup2\n      jump\t// out\n        /* \"Calculator.sol\":2281:2453  function sqrt(uint256 num1_) public checkPositiveNumber(num1_) returns(uint256 result_){... */\n    tag_45:\n        /* \"Calculator.sol\":2352:2367  uint256 result_ */\n      0x00\n        /* \"Calculator.sol\":2337:2342  num1_ */\n      dup2\n        /* \"Calculator.sol\":315:316  0 */\n      0x00\n        /* \"Calculator.sol\":306:311  num1_ */\n      dup2\n        /* \"Calculator.sol\":306:316  num1_ <= 0 */\n      gt\n        /* \"Calculator.sol\":303:326  if(num1_ <= 0) revert() */\n      tag_96\n      jumpi\n        /* \"Calculator.sol\":318:326  revert() */\n      0x00\n      dup1\n      revert\n        /* \"Calculator.sol\":303:326  if(num1_ <= 0) revert() */\n    tag_96:\n        /* \"Calculator.sol\":2391:2408  sqrt_logic(num1_) */\n      tag_98\n        /* \"Calculator.sol\":2402:2407  num1_ */\n      dup4\n        /* \"Calculator.sol\":2391:2401  sqrt_logic */\n      tag_99\n        /* \"Calculator.sol\":2391:2408  sqrt_logic(num1_) */\n      jump\t// in\n    tag_98:\n        /* \"Calculator.sol\":2381:2408  result_ = sqrt_logic(num1_) */\n      swap2\n      pop\n        /* \"Calculator.sol\":2424:2443  Sqrt(num1_, result) */\n      0x26a1b23e060f39984a0f8126724012d0e30d422d48168fd724ca09b04bce02e0\n        /* \"Calculator.sol\":2429:2434  num1_ */\n      dup4\n        /* \"Calculator.sol\":2436:2442  result */\n      sload(0x00)\n        /* \"Calculator.sol\":2424:2443  Sqrt(num1_, result) */\n      mload(0x40)\n      tag_100\n      swap3\n      swap2\n      swap1\n      tag_101\n      jump\t// in\n    tag_100:\n      mload(0x40)\n      dup1\n      swap2\n      sub\n      swap1\n      log1\n        /* \"Calculator.sol\":2281:2453  function sqrt(uint256 num1_) public checkPositiveNumber(num1_) returns(uint256 result_){... */\n      pop\n      swap2\n      swap1\n      pop\n      jump\t// out\n        /* \"Calculator.sol\":1661:1776  function multiplier2(uint256 num1_) public checkPositiveNumber(num1_){... */\n    tag_49:\n        /* \"Calculator.sol\":1724:1729  num1_ */\n      dup1\n        /* \"Calculator.sol\":315:316  0 */\n      0x00\n        /* \"Calculator.sol\":306:311  num1_ */\n      dup2\n        /* \"Calculator.sol\":306:316  num1_ <= 0 */\n      gt\n        /* \"Calculator.sol\":303:326  if(num1_ <= 0) revert() */\n      tag_103\n      jumpi\n        /* \"Calculator.sol\":318:326  revert() */\n      0x00\n      dup1\n      revert\n        /* \"Calculator.sol\":303:326  if(num1_ <= 0) revert() */\n    tag_103:\n        /* \"Calculator.sol\":1761:1766  num1_ */\n      dup2\n        /* \"Calculator.sol\":1752:1758  result */\n      sload(0x00)\n        /* \"Calculator.sol\":1752:1766  result * num1_ */\n      tag_105\n      swap2\n      swap1\n      tag_68\n      jump\t// in\n    tag_105:\n        /* \"Calculator.sol\":1743:1749  result */\n      0x00\n        /* \"Calculator.sol\":1743:1766  result = result * num1_ */\n      dup2\n      swap1\n      sstore\n      pop\n        /* \"Calculator.sol\":1661:1776  function multiplier2(uint256 num1_) public checkPositiveNumber(num1_){... */\n      pop\n      pop\n      jump\t// out\n        /* \"Calculator.sol\":1031:1188  function sum(uint256 num1_, uint256 num2_) public returns(uint256 result_){... */\n    tag_52:\n        /* \"Calculator.sol\":1089:1104  uint256 result_ */\n      0x00\n        /* \"Calculator.sol\":1136:1141  num2_ */\n      dup2\n        /* \"Calculator.sol\":1128:1133  num1_ */\n      dup4\n        /* \"Calculator.sol\":1128:1141  num1_ + num2_ */\n      tag_107\n      swap2\n      swap1\n      tag_108\n      jump\t// in\n    tag_107:\n        /* \"Calculator.sol\":1118:1141  result_ = num1_ + num2_ */\n      swap1\n      pop\n        /* \"Calculator.sol\":1157:1180  Sum(num1_,num2_,result) */\n      0xed389495059e3255c7a92671d5719bf4fd25064cd6bbbe911affd790ed681541\n        /* \"Calculator.sol\":1161:1166  num1_ */\n      dup4\n        /* \"Calculator.sol\":1167:1172  num2_ */\n      dup4\n        /* \"Calculator.sol\":1173:1179  result */\n      sload(0x00)\n        /* \"Calculator.sol\":1157:1180  Sum(num1_,num2_,result) */\n      mload(0x40)\n      tag_109\n      swap4\n      swap3\n      swap2\n      swap1\n      tag_87\n      jump\t// in\n    tag_109:\n      mload(0x40)\n      dup1\n      swap2\n      sub\n      swap1\n      log1\n        /* \"Calculator.sol\":1031:1188  function sum(uint256 num1_, uint256 num2_) public returns(uint256 result_){... */\n      swap3\n      swap2\n      pop\n      pop\n      jump\t// out\n        /* \"Calculator.sol\":2677:2893  function maximum(uint256 num1_, uint256 num2_) public checkPositiveNumbers(num1_,num2_) returns(uint256 result_){... */\n    tag_56:\n        /* \"Calculator.sol\":2773:2788  uint256 result_ */\n      0x00\n        /* \"Calculator.sol\":2752:2757  num1_ */\n      dup3\n        /* \"Calculator.sol\":2758:2763  num2_ */\n      dup3\n        /* \"Calculator.sol\":436:437  0 */\n      0x00\n        /* \"Calculator.sol\":428:433  num1_ */\n      dup3\n        /* \"Calculator.sol\":428:437  num1_ <=0 */\n      gt\n      iszero\n        /* \"Calculator.sol\":428:450  num1_ <=0 || num2_ <=0 */\n      dup1\n      tag_111\n      jumpi\n      pop\n        /* \"Calculator.sol\":449:450  0 */\n      0x00\n        /* \"Calculator.sol\":441:446  num2_ */\n      dup2\n        /* \"Calculator.sol\":441:450  num2_ <=0 */\n      gt\n      iszero\n        /* \"Calculator.sol\":428:450  num1_ <=0 || num2_ <=0 */\n    tag_111:\n        /* \"Calculator.sol\":425:460  if(num1_ <=0 || num2_ <=0) revert() */\n      iszero\n      tag_112\n      jumpi\n        /* \"Calculator.sol\":452:460  revert() */\n      0x00\n      dup1\n      revert\n        /* \"Calculator.sol\":425:460  if(num1_ <=0 || num2_ <=0) revert() */\n    tag_112:\n        /* \"Calculator.sol\":2812:2838  maximum_logic(num1_,num2_) */\n      tag_114\n        /* \"Calculator.sol\":2826:2831  num1_ */\n      dup6\n        /* \"Calculator.sol\":2832:2837  num2_ */\n      dup6\n        /* \"Calculator.sol\":2812:2825  maximum_logic */\n      tag_115\n        /* \"Calculator.sol\":2812:2838  maximum_logic(num1_,num2_) */\n      jump\t// in\n    tag_114:\n        /* \"Calculator.sol\":2802:2838  result_ = maximum_logic(num1_,num2_) */\n      swap3\n      pop\n        /* \"Calculator.sol\":2854:2883  Maximum(num1_, num2_, result) */\n      0xae92cff874140cbe97e7efc6ffd3c3dd667ee2b4c69fa357765af8fcf4d804\n        /* \"Calculator.sol\":2862:2867  num1_ */\n      dup6\n        /* \"Calculator.sol\":2869:2874  num2_ */\n      dup6\n        /* \"Calculator.sol\":2876:2882  result */\n      sload(0x00)\n        /* \"Calculator.sol\":2854:2883  Maximum(num1_, num2_, result) */\n      mload(0x40)\n      tag_116\n      swap4\n      swap3\n      swap2\n      swap1\n      tag_87\n      jump\t// in\n    tag_116:\n      mload(0x40)\n      dup1\n      swap2\n      sub\n      swap1\n      log1\n        /* \"Calculator.sol\":2677:2893  function maximum(uint256 num1_, uint256 num2_) public checkPositiveNumbers(num1_,num2_) returns(uint256 result_){... */\n      pop\n      pop\n      swap3\n      swap2\n      pop\n      pop\n      jump\t// out\n        /* \"Calculator.sol\":1196:1393  function substraction(uint256 num1_, uint256 num2_) public  returns(uint256 result_){... */\n    tag_60:\n        /* \"Calculator.sol\":1264:1279  uint256 result_ */\n      0x00\n        /* \"Calculator.sol\":1303:1334  substraction_logic(num1_,num2_) */\n      tag_118\n        /* \"Calculator.sol\":1322:1327  num1_ */\n      dup4\n        /* \"Calculator.sol\":1328:1333  num2_ */\n      dup4\n        /* \"Calculator.sol\":1303:1321  substraction_logic */\n      tag_119\n        /* \"Calculator.sol\":1303:1334  substraction_logic(num1_,num2_) */\n      jump\t// in\n    tag_118:\n        /* \"Calculator.sol\":1293:1334  result_ = substraction_logic(num1_,num2_) */\n      swap1\n      pop\n        /* \"Calculator.sol\":1350:1383  Substraction(num1_,num2_,result_) */\n      0x02325f53408b10d20290d06f069ad56eb7ecae5db225e14d71cda2c523652c5b\n        /* \"Calculator.sol\":1363:1368  num1_ */\n      dup4\n        /* \"Calculator.sol\":1369:1374  num2_ */\n      dup4\n        /* \"Calculator.sol\":1375:1382  result_ */\n      dup4\n        /* \"Calculator.sol\":1350:1383  Substraction(num1_,num2_,result_) */\n      mload(0x40)\n      tag_120\n      swap4\n      swap3\n      swap2\n      swap1\n      tag_87\n      jump\t// in\n    tag_120:\n      mload(0x40)\n      dup1\n      swap2\n      sub\n      swap1\n      log1\n        /* \"Calculator.sol\":1196:1393  function substraction(uint256 num1_, uint256 num2_) public  returns(uint256 result_){... */\n      swap3\n      swap2\n      pop\n      pop\n      jump\t// out\n        /* \"Calculator.sol\":1784:1989  function division(uint256 num1_, uint256 num2_) public checkPositiveNumbers(num1_,num2_) returns(uint256 result_){... */\n    tag_64:\n        /* \"Calculator.sol\":1881:1896  uint256 result_ */\n      0x00\n        /* \"Calculator.sol\":1860:1865  num1_ */\n      dup3\n        /* \"Calculator.sol\":1866:1871  num2_ */\n      dup3\n        /* \"Calculator.sol\":436:437  0 */\n      0x00\n        /* \"Calculator.sol\":428:433  num1_ */\n      dup3\n        /* \"Calculator.sol\":428:437  num1_ <=0 */\n      gt\n      iszero\n        /* \"Calculator.sol\":428:450  num1_ <=0 || num2_ <=0 */\n      dup1\n      tag_122\n      jumpi\n      pop\n        /* \"Calculator.sol\":449:450  0 */\n      0x00\n        /* \"Calculator.sol\":441:446  num2_ */\n      dup2\n        /* \"Calculator.sol\":441:450  num2_ <=0 */\n      gt\n      iszero\n        /* \"Calculator.sol\":428:450  num1_ <=0 || num2_ <=0 */\n    tag_122:\n        /* \"Calculator.sol\":425:460  if(num1_ <=0 || num2_ <=0) revert() */\n      iszero\n      tag_123\n      jumpi\n        /* \"Calculator.sol\":452:460  revert() */\n      0x00\n      dup1\n      revert\n        /* \"Calculator.sol\":425:460  if(num1_ <=0 || num2_ <=0) revert() */\n    tag_123:\n        /* \"Calculator.sol\":1928:1933  num2_ */\n      dup4\n        /* \"Calculator.sol\":1920:1925  num1_ */\n      dup6\n        /* \"Calculator.sol\":1920:1933  num1_ / num2_ */\n      tag_125\n      swap2\n      swap1\n      tag_126\n      jump\t// in\n    tag_125:\n        /* \"Calculator.sol\":1910:1933  result_ = num1_ / num2_ */\n      swap3\n      pop\n        /* \"Calculator.sol\":1949:1979  Division(num1_, num2_, result) */\n      0xd8ef84f712e41d28f98fe74cd153013023d849514d0a40ee61834f3c385055ce\n        /* \"Calculator.sol\":1958:1963  num1_ */\n      dup6\n        /* \"Calculator.sol\":1965:1970  num2_ */\n      dup6\n        /* \"Calculator.sol\":1972:1978  result */\n      sload(0x00)\n        /* \"Calculator.sol\":1949:1979  Division(num1_, num2_, result) */\n      mload(0x40)\n      tag_127\n      swap4\n      swap3\n      swap2\n      swap1\n      tag_87\n      jump\t// in\n    tag_127:\n      mload(0x40)\n      dup1\n      swap2\n      sub\n      swap1\n      log1\n        /* \"Calculator.sol\":1784:1989  function division(uint256 num1_, uint256 num2_) public checkPositiveNumbers(num1_,num2_) returns(uint256 result_){... */\n      pop\n      pop\n      swap3\n      swap2\n      pop\n      pop\n      jump\t// out\n        /* \"Calculator.sol\":4020:4203  function average_logic(uint256 num1_, uint256 num2_) internal returns(uint256 result_){... */\n    tag_74:\n        /* \"Calculator.sol\":4090:4105  uint256 result_ */\n      0x00\n        /* \"Calculator.sol\":4145:4146  2 */\n      0x02\n        /* \"Calculator.sol\":4138:4143  num2_ */\n      dup3\n        /* \"Calculator.sol\":4130:4135  num1_ */\n      dup5\n        /* \"Calculator.sol\":4130:4143  num1_ + num2_ */\n      tag_129\n      swap2\n      swap1\n      tag_108\n      jump\t// in\n    tag_129:\n        /* \"Calculator.sol\":4129:4146  (num1_ + num2_)/2 */\n      tag_130\n      swap2\n      swap1\n      tag_126\n      jump\t// in\n    tag_130:\n        /* \"Calculator.sol\":4119:4146  result_ = (num1_ + num2_)/2 */\n      swap1\n      pop\n        /* \"Calculator.sol\":4162:4191  Average(num1_, num2_, result) */\n      0x71f9bbe40e9c99d1bc6b2a11e8a7b97bceb63804cdea6bc30f96f2a0eb12ecd4\n        /* \"Calculator.sol\":4170:4175  num1_ */\n      dup4\n        /* \"Calculator.sol\":4177:4182  num2_ */\n      dup4\n        /* \"Calculator.sol\":4184:4190  result */\n      sload(0x00)\n        /* \"Calculator.sol\":4162:4191  Average(num1_, num2_, result) */\n      mload(0x40)\n      tag_131\n      swap4\n      swap3\n      swap2\n      swap1\n      tag_87\n      jump\t// in\n    tag_131:\n      mload(0x40)\n      dup1\n      swap2\n      sub\n      swap1\n      log1\n        /* \"Calculator.sol\":4020:4203  function average_logic(uint256 num1_, uint256 num2_) internal returns(uint256 result_){... */\n      swap3\n      swap2\n      pop\n      pop\n      jump\t// out\n        /* \"Calculator.sol\":3259:3401  function substraction_logic2(int256 num1_, int256 num2_) internal pure returns(int256 result_){... */\n    tag_77:\n        /* \"Calculator.sol\":3338:3352  int256 result_ */\n      0x00\n        /* \"Calculator.sol\":3384:3389  num2_ */\n      dup2\n        /* \"Calculator.sol\":3376:3381  num1_ */\n      dup4\n        /* \"Calculator.sol\":3376:3389  num1_ - num2_ */\n      tag_133\n      swap2\n      swap1\n      tag_134\n      jump\t// in\n    tag_133:\n        /* \"Calculator.sol\":3366:3389  result_ = num1_ - num2_ */\n      swap1\n      pop\n        /* \"Calculator.sol\":3259:3401  function substraction_logic2(int256 num1_, int256 num2_) internal pure returns(int256 result_){... */\n      swap3\n      swap2\n      pop\n      pop\n      jump\t// out\n        /* \"Calculator.sol\":3409:3794  function sqrt_logic(uint num1_) internal pure returns (uint result_) {... */\n    tag_99:\n        /* \"Calculator.sol\":3464:3476  uint result_ */\n      0x00\n        /* \"Calculator.sol\":3511:3512  3 */\n      0x03\n        /* \"Calculator.sol\":3503:3508  num1_ */\n      dup3\n        /* \"Calculator.sol\":3503:3512  num1_ > 3 */\n      gt\n        /* \"Calculator.sol\":3499:3787  if (num1_ > 3) {... */\n      iszero\n      tag_136\n      jumpi\n        /* \"Calculator.sol\":3539:3544  num1_ */\n      dup2\n        /* \"Calculator.sol\":3529:3544  result_ = num1_ */\n      swap1\n      pop\n        /* \"Calculator.sol\":3559:3567  uint aux */\n      0x00\n        /* \"Calculator.sol\":3582:3583  1 */\n      0x01\n        /* \"Calculator.sol\":3578:3579  2 */\n      0x02\n        /* \"Calculator.sol\":3570:3575  num1_ */\n      dup5\n        /* \"Calculator.sol\":3570:3579  num1_ / 2 */\n      tag_137\n      swap2\n      swap1\n      tag_126\n      jump\t// in\n    tag_137:\n        /* \"Calculator.sol\":3570:3583  num1_ / 2 + 1 */\n      tag_138\n      swap2\n      swap1\n      tag_108\n      jump\t// in\n    tag_138:\n        /* \"Calculator.sol\":3559:3583  uint aux = num1_ / 2 + 1 */\n      swap1\n      pop\n        /* \"Calculator.sol\":3598:3716  while (aux < result_) {... */\n    tag_139:\n        /* \"Calculator.sol\":3611:3618  result_ */\n      dup2\n        /* \"Calculator.sol\":3605:3608  aux */\n      dup2\n        /* \"Calculator.sol\":3605:3618  aux < result_ */\n      lt\n        /* \"Calculator.sol\":3598:3716  while (aux < result_) {... */\n      iszero\n      tag_140\n      jumpi\n        /* \"Calculator.sol\":3649:3652  aux */\n      dup1\n        /* \"Calculator.sol\":3639:3652  result_ = aux */\n      swap2\n      pop\n        /* \"Calculator.sol\":3699:3700  2 */\n      0x02\n        /* \"Calculator.sol\":3692:3695  aux */\n      dup2\n        /* \"Calculator.sol\":3686:3689  aux */\n      dup3\n        /* \"Calculator.sol\":3678:3683  num1_ */\n      dup6\n        /* \"Calculator.sol\":3678:3689  num1_ / aux */\n      tag_141\n      swap2\n      swap1\n      tag_126\n      jump\t// in\n    tag_141:\n        /* \"Calculator.sol\":3678:3695  num1_ / aux + aux */\n      tag_142\n      swap2\n      swap1\n      tag_108\n      jump\t// in\n    tag_142:\n        /* \"Calculator.sol\":3677:3700  (num1_ / aux + aux) / 2 */\n      tag_143\n      swap2\n      swap1\n      tag_126\n      jump\t// in\n    tag_143:\n        /* \"Calculator.sol\":3671:3700  aux = (num1_ / aux + aux) / 2 */\n      swap1\n      pop\n        /* \"Calculator.sol\":3598:3716  while (aux < result_) {... */\n      jump(tag_139)\n    tag_140:\n        /* \"Calculator.sol\":3514:3727  {... */\n      pop\n        /* \"Calculator.sol\":3499:3787  if (num1_ > 3) {... */\n      jump(tag_144)\n    tag_136:\n        /* \"Calculator.sol\":3746:3747  0 */\n      0x00\n        /* \"Calculator.sol\":3737:3742  num1_ */\n      dup3\n        /* \"Calculator.sol\":3737:3747  num1_ != 0 */\n      eq\n        /* \"Calculator.sol\":3733:3787  if (num1_ != 0) {... */\n      tag_145\n      jumpi\n        /* \"Calculator.sol\":3774:3775  1 */\n      0x01\n        /* \"Calculator.sol\":3764:3775  result_ = 1 */\n      swap1\n      pop\n        /* \"Calculator.sol\":3733:3787  if (num1_ != 0) {... */\n    tag_145:\n        /* \"Calculator.sol\":3499:3787  if (num1_ > 3) {... */\n    tag_144:\n        /* \"Calculator.sol\":3409:3794  function sqrt_logic(uint num1_) internal pure returns (uint result_) {... */\n      swap2\n      swap1\n      pop\n      jump\t// out\n        /* \"Calculator.sol\":3804:4012  function maximum_logic(uint256 num1_, uint256 num2_) internal pure returns(uint256 result_){... */\n    tag_115:\n        /* \"Calculator.sol\":3879:3894  uint256 result_ */\n      0x00\n        /* \"Calculator.sol\":3921:3926  num2_ */\n      dup2\n        /* \"Calculator.sol\":3912:3917  num1_ */\n      dup4\n        /* \"Calculator.sol\":3912:3926  num1_ >= num2_ */\n      lt\n        /* \"Calculator.sol\":3908:4000  if (num1_ >= num2_)... */\n      tag_147\n      jumpi\n        /* \"Calculator.sol\":3951:3956  num1_ */\n      dup3\n        /* \"Calculator.sol\":3941:3956  result_ = num1_ */\n      swap1\n      pop\n        /* \"Calculator.sol\":3908:4000  if (num1_ >= num2_)... */\n      jump(tag_148)\n    tag_147:\n        /* \"Calculator.sol\":3995:4000  num2_ */\n      dup2\n        /* \"Calculator.sol\":3985:4000  result_ = num2_ */\n      swap1\n      pop\n        /* \"Calculator.sol\":3908:4000  if (num1_ >= num2_)... */\n    tag_148:\n        /* \"Calculator.sol\":3804:4012  function maximum_logic(uint256 num1_, uint256 num2_) internal pure returns(uint256 result_){... */\n      swap3\n      swap2\n      pop\n      pop\n      jump\t// out\n        /* \"Calculator.sol\":3107:3251  function substraction_logic(uint256 num1_, uint256 num2_) internal pure returns(uint256 result_){... */\n    tag_119:\n        /* \"Calculator.sol\":3187:3202  uint256 result_ */\n      0x00\n        /* \"Calculator.sol\":3234:3239  num2_ */\n      dup2\n        /* \"Calculator.sol\":3226:3231  num1_ */\n      dup4\n        /* \"Calculator.sol\":3226:3239  num1_ - num2_ */\n      tag_150\n      swap2\n      swap1\n      tag_151\n      jump\t// in\n    tag_150:\n        /* \"Calculator.sol\":3216:3239  result_ = num1_ - num2_ */\n      swap1\n      pop\n        /* \"Calculator.sol\":3107:3251  function substraction_logic(uint256 num1_, uint256 num2_) internal pure returns(uint256 result_){... */\n      swap3\n      swap2\n      pop\n      pop\n      jump\t// out\n        /* \"#utility.yul\":88:205   */\n    tag_153:\n        /* \"#utility.yul\":197:198   */\n      0x00\n        /* \"#utility.yul\":194:195   */\n      dup1\n        /* \"#utility.yul\":187:199   */\n      revert\n        /* \"#utility.yul\":334:411   */\n    tag_155:\n        /* \"#utility.yul\":371:378   */\n      0x00\n        /* \"#utility.yul\":400:405   */\n      dup2\n        /* \"#utility.yul\":389:405   */\n      swap1\n      pop\n        /* \"#utility.yul\":334:411   */\n      swap2\n      swap1\n      pop\n      jump\t// out\n        /* \"#utility.yul\":417:539   */\n    tag_156:\n        /* \"#utility.yul\":490:514   */\n      tag_171\n        /* \"#utility.yul\":508:513   */\n      dup2\n        /* \"#utility.yul\":490:514   */\n      tag_155\n      jump\t// in\n    tag_171:\n        /* \"#utility.yul\":483:488   */\n      dup2\n        /* \"#utility.yul\":480:515   */\n      eq\n        /* \"#utility.yul\":470:533   */\n      tag_172\n      jumpi\n        /* \"#utility.yul\":529:530   */\n      0x00\n        /* \"#utility.yul\":526:527   */\n      dup1\n        /* \"#utility.yul\":519:531   */\n      revert\n        /* \"#utility.yul\":470:533   */\n    tag_172:\n        /* \"#utility.yul\":417:539   */\n      pop\n      jump\t// out\n        /* \"#utility.yul\":545:684   */\n    tag_157:\n        /* \"#utility.yul\":591:596   */\n      0x00\n        /* \"#utility.yul\":629:635   */\n      dup2\n        /* \"#utility.yul\":616:636   */\n      calldataload\n        /* \"#utility.yul\":607:636   */\n      swap1\n      pop\n        /* \"#utility.yul\":645:678   */\n      tag_174\n        /* \"#utility.yul\":672:677   */\n      dup2\n        /* \"#utility.yul\":645:678   */\n      tag_156\n      jump\t// in\n    tag_174:\n        /* \"#utility.yul\":545:684   */\n      swap3\n      swap2\n      pop\n      pop\n      jump\t// out\n        /* \"#utility.yul\":690:1019   */\n    tag_18:\n        /* \"#utility.yul\":749:755   */\n      0x00\n        /* \"#utility.yul\":798:800   */\n      0x20\n        /* \"#utility.yul\":786:795   */\n      dup3\n        /* \"#utility.yul\":777:784   */\n      dup5\n        /* \"#utility.yul\":773:796   */\n      sub\n        /* \"#utility.yul\":769:801   */\n      slt\n        /* \"#utility.yul\":766:885   */\n      iszero\n      tag_176\n      jumpi\n        /* \"#utility.yul\":804:883   */\n      tag_177\n      tag_153\n      jump\t// in\n    tag_177:\n        /* \"#utility.yul\":766:885   */\n    tag_176:\n        /* \"#utility.yul\":924:925   */\n      0x00\n        /* \"#utility.yul\":949:1002   */\n      tag_178\n        /* \"#utility.yul\":994:1001   */\n      dup5\n        /* \"#utility.yul\":985:991   */\n      dup3\n        /* \"#utility.yul\":974:983   */\n      dup6\n        /* \"#utility.yul\":970:992   */\n      add\n        /* \"#utility.yul\":949:1002   */\n      tag_157\n      jump\t// in\n    tag_178:\n        /* \"#utility.yul\":939:1002   */\n      swap2\n      pop\n        /* \"#utility.yul\":895:1012   */\n      pop\n        /* \"#utility.yul\":690:1019   */\n      swap3\n      swap2\n      pop\n      pop\n      jump\t// out\n        /* \"#utility.yul\":1025:1499   */\n    tag_22:\n        /* \"#utility.yul\":1093:1099   */\n      0x00\n        /* \"#utility.yul\":1101:1107   */\n      dup1\n        /* \"#utility.yul\":1150:1152   */\n      0x40\n        /* \"#utility.yul\":1138:1147   */\n      dup4\n        /* \"#utility.yul\":1129:1136   */\n      dup6\n        /* \"#utility.yul\":1125:1148   */\n      sub\n        /* \"#utility.yul\":1121:1153   */\n      slt\n        /* \"#utility.yul\":1118:1237   */\n      iszero\n      tag_180\n      jumpi\n        /* \"#utility.yul\":1156:1235   */\n      tag_181\n      tag_153\n      jump\t// in\n    tag_181:\n        /* \"#utility.yul\":1118:1237   */\n    tag_180:\n        /* \"#utility.yul\":1276:1277   */\n      0x00\n        /* \"#utility.yul\":1301:1354   */\n      tag_182\n        /* \"#utility.yul\":1346:1353   */\n      dup6\n        /* \"#utility.yul\":1337:1343   */\n      dup3\n        /* \"#utility.yul\":1326:1335   */\n      dup7\n        /* \"#utility.yul\":1322:1344   */\n      add\n        /* \"#utility.yul\":1301:1354   */\n      tag_157\n      jump\t// in\n    tag_182:\n        /* \"#utility.yul\":1291:1354   */\n      swap3\n      pop\n        /* \"#utility.yul\":1247:1364   */\n      pop\n        /* \"#utility.yul\":1403:1405   */\n      0x20\n        /* \"#utility.yul\":1429:1482   */\n      tag_183\n        /* \"#utility.yul\":1474:1481   */\n      dup6\n        /* \"#utility.yul\":1465:1471   */\n      dup3\n        /* \"#utility.yul\":1454:1463   */\n      dup7\n        /* \"#utility.yul\":1450:1472   */\n      add\n        /* \"#utility.yul\":1429:1482   */\n      tag_157\n      jump\t// in\n    tag_183:\n        /* \"#utility.yul\":1419:1482   */\n      swap2\n      pop\n        /* \"#utility.yul\":1374:1492   */\n      pop\n        /* \"#utility.yul\":1025:1499   */\n      swap3\n      pop\n      swap3\n      swap1\n      pop\n      jump\t// out\n        /* \"#utility.yul\":1505:1623   */\n    tag_158:\n        /* \"#utility.yul\":1592:1616   */\n      tag_185\n        /* \"#utility.yul\":1610:1615   */\n      dup2\n        /* \"#utility.yul\":1592:1616   */\n      tag_155\n      jump\t// in\n    tag_185:\n        /* \"#utility.yul\":1587:1590   */\n      dup3\n        /* \"#utility.yul\":1580:1617   */\n      mstore\n        /* \"#utility.yul\":1505:1623   */\n      pop\n      pop\n      jump\t// out\n        /* \"#utility.yul\":1629:1851   */\n    tag_25:\n        /* \"#utility.yul\":1722:1726   */\n      0x00\n        /* \"#utility.yul\":1760:1762   */\n      0x20\n        /* \"#utility.yul\":1749:1758   */\n      dup3\n        /* \"#utility.yul\":1745:1763   */\n      add\n        /* \"#utility.yul\":1737:1763   */\n      swap1\n      pop\n        /* \"#utility.yul\":1773:1844   */\n      tag_187\n        /* \"#utility.yul\":1841:1842   */\n      0x00\n        /* \"#utility.yul\":1830:1839   */\n      dup4\n        /* \"#utility.yul\":1826:1843   */\n      add\n        /* \"#utility.yul\":1817:1823   */\n      dup5\n        /* \"#utility.yul\":1773:1844   */\n      tag_158\n      jump\t// in\n    tag_187:\n        /* \"#utility.yul\":1629:1851   */\n      swap3\n      swap2\n      pop\n      pop\n      jump\t// out\n        /* \"#utility.yul\":1857:1933   */\n    tag_159:\n        /* \"#utility.yul\":1893:1900   */\n      0x00\n        /* \"#utility.yul\":1922:1927   */\n      dup2\n        /* \"#utility.yul\":1911:1927   */\n      swap1\n      pop\n        /* \"#utility.yul\":1857:1933   */\n      swap2\n      swap1\n      pop\n      jump\t// out\n        /* \"#utility.yul\":1939:2059   */\n    tag_160:\n        /* \"#utility.yul\":2011:2034   */\n      tag_190\n        /* \"#utility.yul\":2028:2033   */\n      dup2\n        /* \"#utility.yul\":2011:2034   */\n      tag_159\n      jump\t// in\n    tag_190:\n        /* \"#utility.yul\":2004:2009   */\n      dup2\n        /* \"#utility.yul\":2001:2035   */\n      eq\n        /* \"#utility.yul\":1991:2053   */\n      tag_191\n      jumpi\n        /* \"#utility.yul\":2049:2050   */\n      0x00\n        /* \"#utility.yul\":2046:2047   */\n      dup1\n        /* \"#utility.yul\":2039:2051   */\n      revert\n        /* \"#utility.yul\":1991:2053   */\n    tag_191:\n        /* \"#utility.yul\":1939:2059   */\n      pop\n      jump\t// out\n        /* \"#utility.yul\":2065:2202   */\n    tag_161:\n        /* \"#utility.yul\":2110:2115   */\n      0x00\n        /* \"#utility.yul\":2148:2154   */\n      dup2\n        /* \"#utility.yul\":2135:2155   */\n      calldataload\n        /* \"#utility.yul\":2126:2155   */\n      swap1\n      pop\n        /* \"#utility.yul\":2164:2196   */\n      tag_193\n        /* \"#utility.yul\":2190:2195   */\n      dup2\n        /* \"#utility.yul\":2164:2196   */\n      tag_160\n      jump\t// in\n    tag_193:\n        /* \"#utility.yul\":2065:2202   */\n      swap3\n      swap2\n      pop\n      pop\n      jump\t// out\n        /* \"#utility.yul\":2208:2678   */\n    tag_28:\n        /* \"#utility.yul\":2274:2280   */\n      0x00\n        /* \"#utility.yul\":2282:2288   */\n      dup1\n        /* \"#utility.yul\":2331:2333   */\n      0x40\n        /* \"#utility.yul\":2319:2328   */\n      dup4\n        /* \"#utility.yul\":2310:2317   */\n      dup6\n        /* \"#utility.yul\":2306:2329   */\n      sub\n        /* \"#utility.yul\":2302:2334   */\n      slt\n        /* \"#utility.yul\":2299:2418   */\n      iszero\n      tag_195\n      jumpi\n        /* \"#utility.yul\":2337:2416   */\n      tag_196\n      tag_153\n      jump\t// in\n    tag_196:\n        /* \"#utility.yul\":2299:2418   */\n    tag_195:\n        /* \"#utility.yul\":2457:2458   */\n      0x00\n        /* \"#utility.yul\":2482:2534   */\n      tag_197\n        /* \"#utility.yul\":2526:2533   */\n      dup6\n        /* \"#utility.yul\":2517:2523   */\n      dup3\n        /* \"#utility.yul\":2506:2515   */\n      dup7\n        /* \"#utility.yul\":2502:2524   */\n      add\n        /* \"#utility.yul\":2482:2534   */\n      tag_161\n      jump\t// in\n    tag_197:\n        /* \"#utility.yul\":2472:2534   */\n      swap3\n      pop\n        /* \"#utility.yul\":2428:2544   */\n      pop\n        /* \"#utility.yul\":2583:2585   */\n      0x20\n        /* \"#utility.yul\":2609:2661   */\n      tag_198\n        /* \"#utility.yul\":2653:2660   */\n      dup6\n        /* \"#utility.yul\":2644:2650   */\n      dup3\n        /* \"#utility.yul\":2633:2642   */\n      dup7\n        /* \"#utility.yul\":2629:2651   */\n      add\n        /* \"#utility.yul\":2609:2661   */\n      tag_161\n      jump\t// in\n    tag_198:\n        /* \"#utility.yul\":2599:2661   */\n      swap2\n      pop\n        /* \"#utility.yul\":2554:2671   */\n      pop\n        /* \"#utility.yul\":2208:2678   */\n      swap3\n      pop\n      swap3\n      swap1\n      pop\n      jump\t// out\n        /* \"#utility.yul\":2684:2799   */\n    tag_162:\n        /* \"#utility.yul\":2769:2792   */\n      tag_200\n        /* \"#utility.yul\":2786:2791   */\n      dup2\n        /* \"#utility.yul\":2769:2792   */\n      tag_159\n      jump\t// in\n    tag_200:\n        /* \"#utility.yul\":2764:2767   */\n      dup3\n        /* \"#utility.yul\":2757:2793   */\n      mstore\n        /* \"#utility.yul\":2684:2799   */\n      pop\n      pop\n      jump\t// out\n        /* \"#utility.yul\":2805:3023   */\n    tag_31:\n        /* \"#utility.yul\":2896:2900   */\n      0x00\n        /* \"#utility.yul\":2934:2936   */\n      0x20\n        /* \"#utility.yul\":2923:2932   */\n      dup3\n        /* \"#utility.yul\":2919:2937   */\n      add\n        /* \"#utility.yul\":2911:2937   */\n      swap1\n      pop\n        /* \"#utility.yul\":2947:3016   */\n      tag_202\n        /* \"#utility.yul\":3013:3014   */\n      0x00\n        /* \"#utility.yul\":3002:3011   */\n      dup4\n        /* \"#utility.yul\":2998:3015   */\n      add\n        /* \"#utility.yul\":2989:2995   */\n      dup5\n        /* \"#utility.yul\":2947:3016   */\n      tag_162\n      jump\t// in\n    tag_202:\n        /* \"#utility.yul\":2805:3023   */\n      swap3\n      swap2\n      pop\n      pop\n      jump\t// out\n        /* \"#utility.yul\":3029:3209   */\n    tag_163:\n        /* \"#utility.yul\":3077:3154   */\n      0x4e487b7100000000000000000000000000000000000000000000000000000000\n        /* \"#utility.yul\":3074:3075   */\n      0x00\n        /* \"#utility.yul\":3067:3155   */\n      mstore\n        /* \"#utility.yul\":3174:3178   */\n      0x11\n        /* \"#utility.yul\":3171:3172   */\n      0x04\n        /* \"#utility.yul\":3164:3179   */\n      mstore\n        /* \"#utility.yul\":3198:3202   */\n      0x24\n        /* \"#utility.yul\":3195:3196   */\n      0x00\n        /* \"#utility.yul\":3188:3203   */\n      revert\n        /* \"#utility.yul\":3215:3625   */\n    tag_68:\n        /* \"#utility.yul\":3255:3262   */\n      0x00\n        /* \"#utility.yul\":3278:3298   */\n      tag_205\n        /* \"#utility.yul\":3296:3297   */\n      dup3\n        /* \"#utility.yul\":3278:3298   */\n      tag_155\n      jump\t// in\n    tag_205:\n        /* \"#utility.yul\":3273:3298   */\n      swap2\n      pop\n        /* \"#utility.yul\":3312:3332   */\n      tag_206\n        /* \"#utility.yul\":3330:3331   */\n      dup4\n        /* \"#utility.yul\":3312:3332   */\n      tag_155\n      jump\t// in\n    tag_206:\n        /* \"#utility.yul\":3307:3332   */\n      swap3\n      pop\n        /* \"#utility.yul\":3367:3368   */\n      dup3\n        /* \"#utility.yul\":3364:3365   */\n      dup3\n        /* \"#utility.yul\":3360:3369   */\n      mul\n        /* \"#utility.yul\":3389:3419   */\n      tag_207\n        /* \"#utility.yul\":3407:3418   */\n      dup2\n        /* \"#utility.yul\":3389:3419   */\n      tag_155\n      jump\t// in\n    tag_207:\n        /* \"#utility.yul\":3378:3419   */\n      swap2\n      pop\n        /* \"#utility.yul\":3568:3569   */\n      dup3\n        /* \"#utility.yul\":3559:3566   */\n      dup3\n        /* \"#utility.yul\":3555:3570   */\n      div\n        /* \"#utility.yul\":3552:3553   */\n      dup5\n        /* \"#utility.yul\":3549:3571   */\n      eq\n        /* \"#utility.yul\":3529:3530   */\n      dup4\n        /* \"#utility.yul\":3522:3531   */\n      iszero\n        /* \"#utility.yul\":3502:3585   */\n      or\n        /* \"#utility.yul\":3479:3618   */\n      tag_208\n      jumpi\n        /* \"#utility.yul\":3598:3616   */\n      tag_209\n      tag_163\n      jump\t// in\n    tag_209:\n        /* \"#utility.yul\":3479:3618   */\n    tag_208:\n        /* \"#utility.yul\":3263:3625   */\n      pop\n        /* \"#utility.yul\":3215:3625   */\n      swap3\n      swap2\n      pop\n      pop\n      jump\t// out\n        /* \"#utility.yul\":3631:4073   */\n    tag_87:\n        /* \"#utility.yul\":3780:3784   */\n      0x00\n        /* \"#utility.yul\":3818:3820   */\n      0x60\n        /* \"#utility.yul\":3807:3816   */\n      dup3\n        /* \"#utility.yul\":3803:3821   */\n      add\n        /* \"#utility.yul\":3795:3821   */\n      swap1\n      pop\n        /* \"#utility.yul\":3831:3902   */\n      tag_211\n        /* \"#utility.yul\":3899:3900   */\n      0x00\n        /* \"#utility.yul\":3888:3897   */\n      dup4\n        /* \"#utility.yul\":3884:3901   */\n      add\n        /* \"#utility.yul\":3875:3881   */\n      dup7\n        /* \"#utility.yul\":3831:3902   */\n      tag_158\n      jump\t// in\n    tag_211:\n        /* \"#utility.yul\":3912:3984   */\n      tag_212\n        /* \"#utility.yul\":3980:3982   */\n      0x20\n        /* \"#utility.yul\":3969:3978   */\n      dup4\n        /* \"#utility.yul\":3965:3983   */\n      add\n        /* \"#utility.yul\":3956:3962   */\n      dup6\n        /* \"#utility.yul\":3912:3984   */\n      tag_158\n      jump\t// in\n    tag_212:\n        /* \"#utility.yul\":3994:4066   */\n      tag_213\n        /* \"#utility.yul\":4062:4064   */\n      0x40\n        /* \"#utility.yul\":4051:4060   */\n      dup4\n        /* \"#utility.yul\":4047:4065   */\n      add\n        /* \"#utility.yul\":4038:4044   */\n      dup5\n        /* \"#utility.yul\":3994:4066   */\n      tag_158\n      jump\t// in\n    tag_213:\n        /* \"#utility.yul\":3631:4073   */\n      swap5\n      swap4\n      pop\n      pop\n      pop\n      pop\n      jump\t// out\n        /* \"#utility.yul\":4079:4259   */\n    tag_164:\n        /* \"#utility.yul\":4127:4204   */\n      0x4e487b7100000000000000000000000000000000000000000000000000000000\n        /* \"#utility.yul\":4124:4125   */\n      0x00\n        /* \"#utility.yul\":4117:4205   */\n      mstore\n        /* \"#utility.yul\":4224:4228   */\n      0x12\n        /* \"#utility.yul\":4221:4222   */\n      0x04\n        /* \"#utility.yul\":4214:4229   */\n      mstore\n        /* \"#utility.yul\":4248:4252   */\n      0x24\n        /* \"#utility.yul\":4245:4246   */\n      0x00\n        /* \"#utility.yul\":4238:4253   */\n      revert\n        /* \"#utility.yul\":4265:4441   */\n    tag_93:\n        /* \"#utility.yul\":4297:4298   */\n      0x00\n        /* \"#utility.yul\":4314:4334   */\n      tag_216\n        /* \"#utility.yul\":4332:4333   */\n      dup3\n        /* \"#utility.yul\":4314:4334   */\n      tag_155\n      jump\t// in\n    tag_216:\n        /* \"#utility.yul\":4309:4334   */\n      swap2\n      pop\n        /* \"#utility.yul\":4348:4368   */\n      tag_217\n        /* \"#utility.yul\":4366:4367   */\n      dup4\n        /* \"#utility.yul\":4348:4368   */\n      tag_155\n      jump\t// in\n    tag_217:\n        /* \"#utility.yul\":4343:4368   */\n      swap3\n      pop\n        /* \"#utility.yul\":4387:4388   */\n      dup3\n        /* \"#utility.yul\":4377:4412   */\n      tag_218\n      jumpi\n        /* \"#utility.yul\":4392:4410   */\n      tag_219\n      tag_164\n      jump\t// in\n    tag_219:\n        /* \"#utility.yul\":4377:4412   */\n    tag_218:\n        /* \"#utility.yul\":4433:4434   */\n      dup3\n        /* \"#utility.yul\":4430:4431   */\n      dup3\n        /* \"#utility.yul\":4426:4435   */\n      mod\n        /* \"#utility.yul\":4421:4435   */\n      swap1\n      pop\n        /* \"#utility.yul\":4265:4441   */\n      swap3\n      swap2\n      pop\n      pop\n      jump\t// out\n        /* \"#utility.yul\":4447:4779   */\n    tag_101:\n        /* \"#utility.yul\":4568:4572   */\n      0x00\n        /* \"#utility.yul\":4606:4608   */\n      0x40\n        /* \"#utility.yul\":4595:4604   */\n      dup3\n        /* \"#utility.yul\":4591:4609   */\n      add\n        /* \"#utility.yul\":4583:4609   */\n      swap1\n      pop\n        /* \"#utility.yul\":4619:4690   */\n      tag_221\n        /* \"#utility.yul\":4687:4688   */\n      0x00\n        /* \"#utility.yul\":4676:4685   */\n      dup4\n        /* \"#utility.yul\":4672:4689   */\n      add\n        /* \"#utility.yul\":4663:4669   */\n      dup6\n        /* \"#utility.yul\":4619:4690   */\n      tag_158\n      jump\t// in\n    tag_221:\n        /* \"#utility.yul\":4700:4772   */\n      tag_222\n        /* \"#utility.yul\":4768:4770   */\n      0x20\n        /* \"#utility.yul\":4757:4766   */\n      dup4\n        /* \"#utility.yul\":4753:4771   */\n      add\n        /* \"#utility.yul\":4744:4750   */\n      dup5\n        /* \"#utility.yul\":4700:4772   */\n      tag_158\n      jump\t// in\n    tag_222:\n        /* \"#utility.yul\":4447:4779   */\n      swap4\n      swap3\n      pop\n      pop\n      pop\n      jump\t// out\n        /* \"#utility.yul\":4785:4976   */\n    tag_108:\n        /* \"#utility.yul\":4825:4828   */\n      0x00\n        /* \"#utility.yul\":4844:4864   */\n      tag_224\n        /* \"#utility.yul\":4862:4863   */\n      dup3\n        /* \"#utility.yul\":4844:4864   */\n      tag_155\n      jump\t// in\n    tag_224:\n        /* \"#utility.yul\":4839:4864   */\n      swap2\n      pop\n        /* \"#utility.yul\":4878:4898   */\n      tag_225\n        /* \"#utility.yul\":4896:4897   */\n      dup4\n        /* \"#utility.yul\":4878:4898   */\n      tag_155\n      jump\t// in\n    tag_225:\n        /* \"#utility.yul\":4873:4898   */\n      swap3\n      pop\n        /* \"#utility.yul\":4921:4922   */\n      dup3\n        /* \"#utility.yul\":4918:4919   */\n      dup3\n        /* \"#utility.yul\":4914:4923   */\n      add\n        /* \"#utility.yul\":4907:4923   */\n      swap1\n      pop\n        /* \"#utility.yul\":4942:4945   */\n      dup1\n        /* \"#utility.yul\":4939:4940   */\n      dup3\n        /* \"#utility.yul\":4936:4946   */\n      gt\n        /* \"#utility.yul\":4933:4969   */\n      iszero\n      tag_226\n      jumpi\n        /* \"#utility.yul\":4949:4967   */\n      tag_227\n      tag_163\n      jump\t// in\n    tag_227:\n        /* \"#utility.yul\":4933:4969   */\n    tag_226:\n        /* \"#utility.yul\":4785:4976   */\n      swap3\n      swap2\n      pop\n      pop\n      jump\t// out\n        /* \"#utility.yul\":4982:5167   */\n    tag_126:\n        /* \"#utility.yul\":5022:5023   */\n      0x00\n        /* \"#utility.yul\":5039:5059   */\n      tag_229\n        /* \"#utility.yul\":5057:5058   */\n      dup3\n        /* \"#utility.yul\":5039:5059   */\n      tag_155\n      jump\t// in\n    tag_229:\n        /* \"#utility.yul\":5034:5059   */\n      swap2\n      pop\n        /* \"#utility.yul\":5073:5093   */\n      tag_230\n        /* \"#utility.yul\":5091:5092   */\n      dup4\n        /* \"#utility.yul\":5073:5093   */\n      tag_155\n      jump\t// in\n    tag_230:\n        /* \"#utility.yul\":5068:5093   */\n      swap3\n      pop\n        /* \"#utility.yul\":5112:5113   */\n      dup3\n        /* \"#utility.yul\":5102:5137   */\n      tag_231\n      jumpi\n        /* \"#utility.yul\":5117:5135   */\n      tag_232\n      tag_164\n      jump\t// in\n    tag_232:\n        /* \"#utility.yul\":5102:5137   */\n    tag_231:\n        /* \"#utility.yul\":5159:5160   */\n      dup3\n        /* \"#utility.yul\":5156:5157   */\n      dup3\n        /* \"#utility.yul\":5152:5161   */\n      div\n        /* \"#utility.yul\":5147:5161   */\n      swap1\n      pop\n        /* \"#utility.yul\":4982:5167   */\n      swap3\n      swap2\n      pop\n      pop\n      jump\t// out\n        /* \"#utility.yul\":5173:5545   */\n    tag_134:\n        /* \"#utility.yul\":5212:5216   */\n      0x00\n        /* \"#utility.yul\":5232:5251   */\n      tag_234\n        /* \"#utility.yul\":5249:5250   */\n      dup3\n        /* \"#utility.yul\":5232:5251   */\n      tag_159\n      jump\t// in\n    tag_234:\n        /* \"#utility.yul\":5227:5251   */\n      swap2\n      pop\n        /* \"#utility.yul\":5265:5284   */\n      tag_235\n        /* \"#utility.yul\":5282:5283   */\n      dup4\n        /* \"#utility.yul\":5265:5284   */\n      tag_159\n      jump\t// in\n    tag_235:\n        /* \"#utility.yul\":5260:5284   */\n      swap3\n      pop\n        /* \"#utility.yul\":5308:5309   */\n      dup3\n        /* \"#utility.yul\":5305:5306   */\n      dup3\n        /* \"#utility.yul\":5301:5310   */\n      sub\n        /* \"#utility.yul\":5293:5310   */\n      swap1\n      pop\n        /* \"#utility.yul\":5502:5503   */\n      dup2\n        /* \"#utility.yul\":5496:5500   */\n      dup2\n        /* \"#utility.yul\":5492:5504   */\n      slt\n        /* \"#utility.yul\":5488:5489   */\n      0x00\n        /* \"#utility.yul\":5485:5486   */\n      dup5\n        /* \"#utility.yul\":5481:5490   */\n      slt\n        /* \"#utility.yul\":5477:5505   */\n      and\n        /* \"#utility.yul\":5460:5461   */\n      dup3\n        /* \"#utility.yul\":5454:5458   */\n      dup3\n        /* \"#utility.yul\":5450:5462   */\n      sgt\n        /* \"#utility.yul\":5445:5446   */\n      0x00\n        /* \"#utility.yul\":5442:5443   */\n      dup6\n        /* \"#utility.yul\":5438:5447   */\n      slt\n        /* \"#utility.yul\":5431:5448   */\n      iszero\n        /* \"#utility.yul\":5427:5463   */\n      and\n        /* \"#utility.yul\":5411:5515   */\n      or\n        /* \"#utility.yul\":5408:5538   */\n      iszero\n      tag_236\n      jumpi\n        /* \"#utility.yul\":5518:5536   */\n      tag_237\n      tag_163\n      jump\t// in\n    tag_237:\n        /* \"#utility.yul\":5408:5538   */\n    tag_236:\n        /* \"#utility.yul\":5173:5545   */\n      swap3\n      swap2\n      pop\n      pop\n      jump\t// out\n        /* \"#utility.yul\":5551:5745   */\n    tag_151:\n        /* \"#utility.yul\":5591:5595   */\n      0x00\n        /* \"#utility.yul\":5611:5631   */\n      tag_239\n        /* \"#utility.yul\":5629:5630   */\n      dup3\n        /* \"#utility.yul\":5611:5631   */\n      tag_155\n      jump\t// in\n    tag_239:\n        /* \"#utility.yul\":5606:5631   */\n      swap2\n      pop\n        /* \"#utility.yul\":5645:5665   */\n      tag_240\n        /* \"#utility.yul\":5663:5664   */\n      dup4\n        /* \"#utility.yul\":5645:5665   */\n      tag_155\n      jump\t// in\n    tag_240:\n        /* \"#utility.yul\":5640:5665   */\n      swap3\n      pop\n        /* \"#utility.yul\":5689:5690   */\n      dup3\n        /* \"#utility.yul\":5686:5687   */\n      dup3\n        /* \"#utility.yul\":5682:5691   */\n      sub\n        /* \"#utility.yul\":5674:5691   */\n      swap1\n      pop\n        /* \"#utility.yul\":5713:5714   */\n      dup2\n        /* \"#utility.yul\":5707:5711   */\n      dup2\n        /* \"#utility.yul\":5704:5715   */\n      gt\n        /* \"#utility.yul\":5701:5738   */\n      iszero\n      tag_241\n      jumpi\n        /* \"#utility.yul\":5718:5736   */\n      tag_242\n      tag_163\n      jump\t// in\n    tag_242:\n        /* \"#utility.yul\":5701:5738   */\n    tag_241:\n        /* \"#utility.yul\":5551:5745   */\n      swap3\n      swap2\n      pop\n      pop\n      jump\t// out\n\n    auxdata: 0xa26469706673582212208495f3d5a455372cabe72b76785f77900a9b6842c64feb7c137bf844e5d969b064736f6c63430008180033\n}\n",
				"bytecode": {
					"linkReferences": {},
					"object": "608060405260015f55348015610013575f80fd5b50610aaa806100215f395ff3fe608060405234801561000f575f80fd5b50600436106100b2575f3560e01c8063677342ce1161006f578063677342ce146101b0578063a1623dce146101e0578063cad0899b146101fc578063cba5477c1461022c578063cdeb33141461025c578063e00680521461028c576100b2565b806305e30f51146100b65780632b7423ab146100d25780632efad609146101025780632f8cd8b11461013257806349175e4b146101625780636537214714610192575b5f80fd5b6100d060048036038101906100cb919061074d565b6102bc565b005b6100ec60048036038101906100e79190610778565b6102d1565b6040516100f991906107c5565b60405180910390f35b61011c60048036038101906101179190610811565b610300565b604051610129919061085e565b60405180910390f35b61014c60048036038101906101479190610778565b610313565b60405161015991906107c5565b60405180910390f35b61017c60048036038101906101779190610778565b61039c565b60405161018991906107c5565b60405180910390f35b61019a610409565b6040516101a791906107c5565b60405180910390f35b6101ca60048036038101906101c5919061074d565b61040e565b6040516101d791906107c5565b60405180910390f35b6101fa60048036038101906101f5919061074d565b610466565b005b61021660048036038101906102119190610778565b610488565b60405161022391906107c5565b60405180910390f35b61024660048036038101906102419190610778565b6104d9565b60405161025391906107c5565b60405180910390f35b61027660048036038101906102719190610778565b610543565b60405161028391906107c5565b60405180910390f35b6102a660048036038101906102a19190610778565b610591565b6040516102b391906107c5565b60405180910390f35b805f546102c991906108a4565b5f8190555050565b5f82825f821115806102e357505f8111155b156102ec575f80fd5b6102f685856105fe565b9250505092915050565b5f61030b838361065b565b905092915050565b5f82825f8211158061032557505f8111155b1561032e575f80fd5b600192505f5b8481101561035757858461034891906108a4565b93508080600101915050610334565b507f8f88adbfbd9fac1a93415da25ad2a978a2ed5ecf0179be666a5c0aa82f8df26585855f5460405161038c939291906108e5565b60405180910390a1505092915050565b5f82825f821115806103ae57505f8111155b156103b7575f80fd5b83856103c39190610947565b92507fcfee31662af25188f47f9d61b42c3c6d09562d047aeb60b7d5734902f09a9dab85855f546040516103f9939291906108e5565b60405180910390a1505092915050565b5f5481565b5f815f811161041b575f80fd5b61042483610670565b91507f26a1b23e060f39984a0f8126724012d0e30d422d48168fd724ca09b04bce02e0835f54604051610458929190610977565b60405180910390a150919050565b805f8111610472575f80fd5b815f5461047f91906108a4565b5f819055505050565b5f8183610495919061099e565b90507fed389495059e3255c7a92671d5719bf4fd25064cd6bbbe911affd790ed68154183835f546040516104cb939291906108e5565b60405180910390a192915050565b5f82825f821115806104eb57505f8111155b156104f4575f80fd5b6104fe85856106e7565b92507eae92cff874140cbe97e7efc6ffd3c3dd667ee2b4c69fa357765af8fcf4d80485855f54604051610533939291906108e5565b60405180910390a1505092915050565b5f61054e8383610701565b90507f02325f53408b10d20290d06f069ad56eb7ecae5db225e14d71cda2c523652c5b838383604051610583939291906108e5565b60405180910390a192915050565b5f82825f821115806105a357505f8111155b156105ac575f80fd5b83856105b891906109d1565b92507fd8ef84f712e41d28f98fe74cd153013023d849514d0a40ee61834f3c385055ce85855f546040516105ee939291906108e5565b60405180910390a1505092915050565b5f6002828461060d919061099e565b61061791906109d1565b90507f71f9bbe40e9c99d1bc6b2a11e8a7b97bceb63804cdea6bc30f96f2a0eb12ecd483835f5460405161064d939291906108e5565b60405180910390a192915050565b5f81836106689190610a01565b905092915050565b5f60038211156106d5578190505f600160028461068d91906109d1565b610697919061099e565b90505b818110156106cf5780915060028182856106b491906109d1565b6106be919061099e565b6106c891906109d1565b905061069a565b506106e2565b5f82146106e157600190505b5b919050565b5f8183106106f7578290506106fb565b8190505b92915050565b5f818361070e9190610a41565b905092915050565b5f80fd5b5f819050919050565b61072c8161071a565b8114610736575f80fd5b50565b5f8135905061074781610723565b92915050565b5f6020828403121561076257610761610716565b5b5f61076f84828501610739565b91505092915050565b5f806040838503121561078e5761078d610716565b5b5f61079b85828601610739565b92505060206107ac85828601610739565b9150509250929050565b6107bf8161071a565b82525050565b5f6020820190506107d85f8301846107b6565b92915050565b5f819050919050565b6107f0816107de565b81146107fa575f80fd5b50565b5f8135905061080b816107e7565b92915050565b5f806040838503121561082757610826610716565b5b5f610834858286016107fd565b9250506020610845858286016107fd565b9150509250929050565b610858816107de565b82525050565b5f6020820190506108715f83018461084f565b92915050565b7f4e487b71000000000000000000000000000000000000000000000000000000005f52601160045260245ffd5b5f6108ae8261071a565b91506108b98361071a565b92508282026108c78161071a565b915082820484148315176108de576108dd610877565b5b5092915050565b5f6060820190506108f85f8301866107b6565b61090560208301856107b6565b61091260408301846107b6565b949350505050565b7f4e487b71000000000000000000000000000000000000000000000000000000005f52601260045260245ffd5b5f6109518261071a565b915061095c8361071a565b92508261096c5761096b61091a565b5b828206905092915050565b5f60408201905061098a5f8301856107b6565b61099760208301846107b6565b9392505050565b5f6109a88261071a565b91506109b38361071a565b92508282019050808211156109cb576109ca610877565b5b92915050565b5f6109db8261071a565b91506109e68361071a565b9250826109f6576109f561091a565b5b828204905092915050565b5f610a0b826107de565b9150610a16836107de565b925082820390508181125f8412168282135f851215161715610a3b57610a3a610877565b5b92915050565b5f610a4b8261071a565b9150610a568361071a565b9250828203905081811115610a6e57610a6d610877565b5b9291505056fea26469706673582212208495f3d5a455372cabe72b76785f77900a9b6842c64feb7c137bf844e5d969b064736f6c63430008180033",
					"opcodes": "PUSH1 0x80 PUSH1 0x40 MSTORE PUSH1 0x1 PUSH0 SSTORE CALLVALUE DUP1 ISZERO PUSH2 0x13 JUMPI PUSH0 DUP1 REVERT JUMPDEST POP PUSH2 0xAAA DUP1 PUSH2 0x21 PUSH0 CODECOPY PUSH0 RETURN INVALID PUSH1 0x80 PUSH1 0x40 MSTORE CALLVALUE DUP1 ISZERO PUSH2 0xF JUMPI PUSH0 DUP1 REVERT JUMPDEST POP PUSH1 0x4 CALLDATASIZE LT PUSH2 0xB2 JUMPI PUSH0 CALLDATALOAD PUSH1 0xE0 SHR DUP1 PUSH4 0x677342CE GT PUSH2 0x6F JUMPI DUP1 PUSH4 0x677342CE EQ PUSH2 0x1B0 JUMPI DUP1 PUSH4 0xA1623DCE EQ PUSH2 0x1E0 JUMPI DUP1 PUSH4 0xCAD0899B EQ PUSH2 0x1FC JUMPI DUP1 PUSH4 0xCBA5477C EQ PUSH2 0x22C JUMPI DUP1 PUSH4 0xCDEB3314 EQ PUSH2 0x25C JUMPI DUP1 PUSH4 0xE0068052 EQ PUSH2 0x28C JUMPI PUSH2 0xB2 JUMP JUMPDEST DUP1 PUSH4 0x5E30F51 EQ PUSH2 0xB6 JUMPI DUP1 PUSH4 0x2B7423AB EQ PUSH2 0xD2 JUMPI DUP1 PUSH4 0x2EFAD609 EQ PUSH2 0x102 JUMPI DUP1 PUSH4 0x2F8CD8B1 EQ PUSH2 0x132 JUMPI DUP1 PUSH4 0x49175E4B EQ PUSH2 0x162 JUMPI DUP1 PUSH4 0x65372147 EQ PUSH2 0x192 JUMPI JUMPDEST PUSH0 DUP1 REVERT JUMPDEST PUSH2 0xD0 PUSH1 0x4 DUP1 CALLDATASIZE SUB DUP2 ADD SWAP1 PUSH2 0xCB SWAP2 SWAP1 PUSH2 0x74D JUMP JUMPDEST PUSH2 0x2BC JUMP JUMPDEST STOP JUMPDEST PUSH2 0xEC PUSH1 0x4 DUP1 CALLDATASIZE SUB DUP2 ADD SWAP1 PUSH2 0xE7 SWAP2 SWAP1 PUSH2 0x778 JUMP JUMPDEST PUSH2 0x2D1 JUMP JUMPDEST PUSH1 0x40 MLOAD PUSH2 0xF9 SWAP2 SWAP1 PUSH2 0x7C5 JUMP JUMPDEST PUSH1 0x40 MLOAD DUP1 SWAP2 SUB SWAP1 RETURN JUMPDEST PUSH2 0x11C PUSH1 0x4 DUP1 CALLDATASIZE SUB DUP2 ADD SWAP1 PUSH2 0x117 SWAP2 SWAP1 PUSH2 0x811 JUMP JUMPDEST PUSH2 0x300 JUMP JUMPDEST PUSH1 0x40 MLOAD PUSH2 0x129 SWAP2 SWAP1 PUSH2 0x85E JUMP JUMPDEST PUSH1 0x40 MLOAD DUP1 SWAP2 SUB SWAP1 RETURN JUMPDEST PUSH2 0x14C PUSH1 0x4 DUP1 CALLDATASIZE SUB DUP2 ADD SWAP1 PUSH2 0x147 SWAP2 SWAP1 PUSH2 0x778 JUMP JUMPDEST PUSH2 0x313 JUMP JUMPDEST PUSH1 0x40 MLOAD PUSH2 0x159 SWAP2 SWAP1 PUSH2 0x7C5 JUMP JUMPDEST PUSH1 0x40 MLOAD DUP1 SWAP2 SUB SWAP1 RETURN JUMPDEST PUSH2 0x17C PUSH1 0x4 DUP1 CALLDATASIZE SUB DUP2 ADD SWAP1 PUSH2 0x177 SWAP2 SWAP1 PUSH2 0x778 JUMP JUMPDEST PUSH2 0x39C JUMP JUMPDEST PUSH1 0x40 MLOAD PUSH2 0x189 SWAP2 SWAP1 PUSH2 0x7C5 JUMP JUMPDEST PUSH1 0x40 MLOAD DUP1 SWAP2 SUB SWAP1 RETURN JUMPDEST PUSH2 0x19A PUSH2 0x409 JUMP JUMPDEST PUSH1 0x40 MLOAD PUSH2 0x1A7 SWAP2 SWAP1 PUSH2 0x7C5 JUMP JUMPDEST PUSH1 0x40 MLOAD DUP1 SWAP2 SUB SWAP1 RETURN JUMPDEST PUSH2 0x1CA PUSH1 0x4 DUP1 CALLDATASIZE SUB DUP2 ADD SWAP1 PUSH2 0x1C5 SWAP2 SWAP1 PUSH2 0x74D JUMP JUMPDEST PUSH2 0x40E JUMP JUMPDEST PUSH1 0x40 MLOAD PUSH2 0x1D7 SWAP2 SWAP1 PUSH2 0x7C5 JUMP JUMPDEST PUSH1 0x40 MLOAD DUP1 SWAP2 SUB SWAP1 RETURN JUMPDEST PUSH2 0x1FA PUSH1 0x4 DUP1 CALLDATASIZE SUB DUP2 ADD SWAP1 PUSH2 0x1F5 SWAP2 SWAP1 PUSH2 0x74D JUMP JUMPDEST PUSH2 0x466 JUMP JUMPDEST STOP JUMPDEST PUSH2 0x216 PUSH1 0x4 DUP1 CALLDATASIZE SUB DUP2 ADD SWAP1 PUSH2 0x211 SWAP2 SWAP1 PUSH2 0x778 JUMP JUMPDEST PUSH2 0x488 JUMP JUMPDEST PUSH1 0x40 MLOAD PUSH2 0x223 SWAP2 SWAP1 PUSH2 0x7C5 JUMP JUMPDEST PUSH1 0x40 MLOAD DUP1 SWAP2 SUB SWAP1 RETURN JUMPDEST PUSH2 0x246 PUSH1 0x4 DUP1 CALLDATASIZE SUB DUP2 ADD SWAP1 PUSH2 0x241 SWAP2 SWAP1 PUSH2 0x778 JUMP JUMPDEST PUSH2 0x4D9 JUMP JUMPDEST PUSH1 0x40 MLOAD PUSH2 0x253 SWAP2 SWAP1 PUSH2 0x7C5 JUMP JUMPDEST PUSH1 0x40 MLOAD DUP1 SWAP2 SUB SWAP1 RETURN JUMPDEST PUSH2 0x276 PUSH1 0x4 DUP1 CALLDATASIZE SUB DUP2 ADD SWAP1 PUSH2 0x271 SWAP2 SWAP1 PUSH2 0x778 JUMP JUMPDEST PUSH2 0x543 JUMP JUMPDEST PUSH1 0x40 MLOAD PUSH2 0x283 SWAP2 SWAP1 PUSH2 0x7C5 JUMP JUMPDEST PUSH1 0x40 MLOAD DUP1 SWAP2 SUB SWAP1 RETURN JUMPDEST PUSH2 0x2A6 PUSH1 0x4 DUP1 CALLDATASIZE SUB DUP2 ADD SWAP1 PUSH2 0x2A1 SWAP2 SWAP1 PUSH2 0x778 JUMP JUMPDEST PUSH2 0x591 JUMP JUMPDEST PUSH1 0x40 MLOAD PUSH2 0x2B3 SWAP2 SWAP1 PUSH2 0x7C5 JUMP JUMPDEST PUSH1 0x40 MLOAD DUP1 SWAP2 SUB SWAP1 RETURN JUMPDEST DUP1 PUSH0 SLOAD PUSH2 0x2C9 SWAP2 SWAP1 PUSH2 0x8A4 JUMP JUMPDEST PUSH0 DUP2 SWAP1 SSTORE POP POP JUMP JUMPDEST PUSH0 DUP3 DUP3 PUSH0 DUP3 GT ISZERO DUP1 PUSH2 0x2E3 JUMPI POP PUSH0 DUP2 GT ISZERO JUMPDEST ISZERO PUSH2 0x2EC JUMPI PUSH0 DUP1 REVERT JUMPDEST PUSH2 0x2F6 DUP6 DUP6 PUSH2 0x5FE JUMP JUMPDEST SWAP3 POP POP POP SWAP3 SWAP2 POP POP JUMP JUMPDEST PUSH0 PUSH2 0x30B DUP4 DUP4 PUSH2 0x65B JUMP JUMPDEST SWAP1 POP SWAP3 SWAP2 POP POP JUMP JUMPDEST PUSH0 DUP3 DUP3 PUSH0 DUP3 GT ISZERO DUP1 PUSH2 0x325 JUMPI POP PUSH0 DUP2 GT ISZERO JUMPDEST ISZERO PUSH2 0x32E JUMPI PUSH0 DUP1 REVERT JUMPDEST PUSH1 0x1 SWAP3 POP PUSH0 JUMPDEST DUP5 DUP2 LT ISZERO PUSH2 0x357 JUMPI DUP6 DUP5 PUSH2 0x348 SWAP2 SWAP1 PUSH2 0x8A4 JUMP JUMPDEST SWAP4 POP DUP1 DUP1 PUSH1 0x1 ADD SWAP2 POP POP PUSH2 0x334 JUMP JUMPDEST POP PUSH32 0x8F88ADBFBD9FAC1A93415DA25AD2A978A2ED5ECF0179BE666A5C0AA82F8DF265 DUP6 DUP6 PUSH0 SLOAD PUSH1 0x40 MLOAD PUSH2 0x38C SWAP4 SWAP3 SWAP2 SWAP1 PUSH2 0x8E5 JUMP JUMPDEST PUSH1 0x40 MLOAD DUP1 SWAP2 SUB SWAP1 LOG1 POP POP SWAP3 SWAP2 POP POP JUMP JUMPDEST PUSH0 DUP3 DUP3 PUSH0 DUP3 GT ISZERO DUP1 PUSH2 0x3AE JUMPI POP PUSH0 DUP2 GT ISZERO JUMPDEST ISZERO PUSH2 0x3B7 JUMPI PUSH0 DUP1 REVERT JUMPDEST DUP4 DUP6 PUSH2 0x3C3 SWAP2 SWAP1 PUSH2 0x947 JUMP JUMPDEST SWAP3 POP PUSH32 0xCFEE31662AF25188F47F9D61B42C3C6D09562D047AEB60B7D5734902F09A9DAB DUP6 DUP6 PUSH0 SLOAD PUSH1 0x40 MLOAD PUSH2 0x3F9 SWAP4 SWAP3 SWAP2 SWAP1 PUSH2 0x8E5 JUMP JUMPDEST PUSH1 0x40 MLOAD DUP1 SWAP2 SUB SWAP1 LOG1 POP POP SWAP3 SWAP2 POP POP JUMP JUMPDEST PUSH0 SLOAD DUP2 JUMP JUMPDEST PUSH0 DUP2 PUSH0 DUP2 GT PUSH2 0x41B JUMPI PUSH0 DUP1 REVERT JUMPDEST PUSH2 0x424 DUP4 PUSH2 0x670 JUMP JUMPDEST SWAP2 POP PUSH32 0x26A1B23E060F39984A0F8126724012D0E30D422D48168FD724CA09B04BCE02E0 DUP4 PUSH0 SLOAD PUSH1 0x40 MLOAD PUSH2 0x458 SWAP3 SWAP2 SWAP1 PUSH2 0x977 JUMP JUMPDEST PUSH1 0x40 MLOAD DUP1 SWAP2 SUB SWAP1 LOG1 POP SWAP2 SWAP1 POP JUMP JUMPDEST DUP1 PUSH0 DUP2 GT PUSH2 0x472 JUMPI PUSH0 DUP1 REVERT JUMPDEST DUP2 PUSH0 SLOAD PUSH2 0x47F SWAP2 SWAP1 PUSH2 0x8A4 JUMP JUMPDEST PUSH0 DUP2 SWAP1 SSTORE POP POP POP JUMP JUMPDEST PUSH0 DUP2 DUP4 PUSH2 0x495 SWAP2 SWAP1 PUSH2 0x99E JUMP JUMPDEST SWAP1 POP PUSH32 0xED389495059E3255C7A92671D5719BF4FD25064CD6BBBE911AFFD790ED681541 DUP4 DUP4 PUSH0 SLOAD PUSH1 0x40 MLOAD PUSH2 0x4CB SWAP4 SWAP3 SWAP2 SWAP1 PUSH2 0x8E5 JUMP JUMPDEST PUSH1 0x40 MLOAD DUP1 SWAP2 SUB SWAP1 LOG1 SWAP3 SWAP2 POP POP JUMP JUMPDEST PUSH0 DUP3 DUP3 PUSH0 DUP3 GT ISZERO DUP1 PUSH2 0x4EB JUMPI POP PUSH0 DUP2 GT ISZERO JUMPDEST ISZERO PUSH2 0x4F4 JUMPI PUSH0 DUP1 REVERT JUMPDEST PUSH2 0x4FE DUP6 DUP6 PUSH2 0x6E7 JUMP JUMPDEST SWAP3 POP PUSH31 0xAE92CFF874140CBE97E7EFC6FFD3C3DD667EE2B4C69FA357765AF8FCF4D804 DUP6 DUP6 PUSH0 SLOAD PUSH1 0x40 MLOAD PUSH2 0x533 SWAP4 SWAP3 SWAP2 SWAP1 PUSH2 0x8E5 JUMP JUMPDEST PUSH1 0x40 MLOAD DUP1 SWAP2 SUB SWAP1 LOG1 POP POP SWAP3 SWAP2 POP POP JUMP JUMPDEST PUSH0 PUSH2 0x54E DUP4 DUP4 PUSH2 0x701 JUMP JUMPDEST SWAP1 POP PUSH32 0x2325F53408B10D20290D06F069AD56EB7ECAE5DB225E14D71CDA2C523652C5B DUP4 DUP4 DUP4 PUSH1 0x40 MLOAD PUSH2 0x583 SWAP4 SWAP3 SWAP2 SWAP1 PUSH2 0x8E5 JUMP JUMPDEST PUSH1 0x40 MLOAD DUP1 SWAP2 SUB SWAP1 LOG1 SWAP3 SWAP2 POP POP JUMP JUMPDEST PUSH0 DUP3 DUP3 PUSH0 DUP3 GT ISZERO DUP1 PUSH2 0x5A3 JUMPI POP PUSH0 DUP2 GT ISZERO JUMPDEST ISZERO PUSH2 0x5AC JUMPI PUSH0 DUP1 REVERT JUMPDEST DUP4 DUP6 PUSH2 0x5B8 SWAP2 SWAP1 PUSH2 0x9D1 JUMP JUMPDEST SWAP3 POP PUSH32 0xD8EF84F712E41D28F98FE74CD153013023D849514D0A40EE61834F3C385055CE DUP6 DUP6 PUSH0 SLOAD PUSH1 0x40 MLOAD PUSH2 0x5EE SWAP4 SWAP3 SWAP2 SWAP1 PUSH2 0x8E5 JUMP JUMPDEST PUSH1 0x40 MLOAD DUP1 SWAP2 SUB SWAP1 LOG1 POP POP SWAP3 SWAP2 POP POP JUMP JUMPDEST PUSH0 PUSH1 0x2 DUP3 DUP5 PUSH2 0x60D SWAP2 SWAP1 PUSH2 0x99E JUMP JUMPDEST PUSH2 0x617 SWAP2 SWAP1 PUSH2 0x9D1 JUMP JUMPDEST SWAP1 POP PUSH32 0x71F9BBE40E9C99D1BC6B2A11E8A7B97BCEB63804CDEA6BC30F96F2A0EB12ECD4 DUP4 DUP4 PUSH0 SLOAD PUSH1 0x40 MLOAD PUSH2 0x64D SWAP4 SWAP3 SWAP2 SWAP1 PUSH2 0x8E5 JUMP JUMPDEST PUSH1 0x40 MLOAD DUP1 SWAP2 SUB SWAP1 LOG1 SWAP3 SWAP2 POP POP JUMP JUMPDEST PUSH0 DUP2 DUP4 PUSH2 0x668 SWAP2 SWAP1 PUSH2 0xA01 JUMP JUMPDEST SWAP1 POP SWAP3 SWAP2 POP POP JUMP JUMPDEST PUSH0 PUSH1 0x3 DUP3 GT ISZERO PUSH2 0x6D5 JUMPI DUP2 SWAP1 POP PUSH0 PUSH1 0x1 PUSH1 0x2 DUP5 PUSH2 0x68D SWAP2 SWAP1 PUSH2 0x9D1 JUMP JUMPDEST PUSH2 0x697 SWAP2 SWAP1 PUSH2 0x99E JUMP JUMPDEST SWAP1 POP JUMPDEST DUP2 DUP2 LT ISZERO PUSH2 0x6CF JUMPI DUP1 SWAP2 POP PUSH1 0x2 DUP2 DUP3 DUP6 PUSH2 0x6B4 SWAP2 SWAP1 PUSH2 0x9D1 JUMP JUMPDEST PUSH2 0x6BE SWAP2 SWAP1 PUSH2 0x99E JUMP JUMPDEST PUSH2 0x6C8 SWAP2 SWAP1 PUSH2 0x9D1 JUMP JUMPDEST SWAP1 POP PUSH2 0x69A JUMP JUMPDEST POP PUSH2 0x6E2 JUMP JUMPDEST PUSH0 DUP3 EQ PUSH2 0x6E1 JUMPI PUSH1 0x1 SWAP1 POP JUMPDEST JUMPDEST SWAP2 SWAP1 POP JUMP JUMPDEST PUSH0 DUP2 DUP4 LT PUSH2 0x6F7 JUMPI DUP3 SWAP1 POP PUSH2 0x6FB JUMP JUMPDEST DUP2 SWAP1 POP JUMPDEST SWAP3 SWAP2 POP POP JUMP JUMPDEST PUSH0 DUP2 DUP4 PUSH2 0x70E SWAP2 SWAP1 PUSH2 0xA41 JUMP JUMPDEST SWAP1 POP SWAP3 SWAP2 POP POP JUMP JUMPDEST PUSH0 DUP1 REVERT JUMPDEST PUSH0 DUP2 SWAP1 POP SWAP2 SWAP1 POP JUMP JUMPDEST PUSH2 0x72C DUP2 PUSH2 0x71A JUMP JUMPDEST DUP2 EQ PUSH2 0x736 JUMPI PUSH0 DUP1 REVERT JUMPDEST POP JUMP JUMPDEST PUSH0 DUP2 CALLDATALOAD SWAP1 POP PUSH2 0x747 DUP2 PUSH2 0x723 JUMP JUMPDEST SWAP3 SWAP2 POP POP JUMP JUMPDEST PUSH0 PUSH1 0x20 DUP3 DUP5 SUB SLT ISZERO PUSH2 0x762 JUMPI PUSH2 0x761 PUSH2 0x716 JUMP JUMPDEST JUMPDEST PUSH0 PUSH2 0x76F DUP5 DUP3 DUP6 ADD PUSH2 0x739 JUMP JUMPDEST SWAP2 POP POP SWAP3 SWAP2 POP POP JUMP JUMPDEST PUSH0 DUP1 PUSH1 0x40 DUP4 DUP6 SUB SLT ISZERO PUSH2 0x78E JUMPI PUSH2 0x78D PUSH2 0x716 JUMP JUMPDEST JUMPDEST PUSH0 PUSH2 0x79B DUP6 DUP3 DUP7 ADD PUSH2 0x739 JUMP JUMPDEST SWAP3 POP POP PUSH1 0x20 PUSH2 0x7AC DUP6 DUP3 DUP7 ADD PUSH2 0x739 JUMP JUMPDEST SWAP2 POP POP SWAP3 POP SWAP3 SWAP1 POP JUMP JUMPDEST PUSH2 0x7BF DUP2 PUSH2 0x71A JUMP JUMPDEST DUP3 MSTORE POP POP JUMP JUMPDEST PUSH0 PUSH1 0x20 DUP3 ADD SWAP1 POP PUSH2 0x7D8 PUSH0 DUP4 ADD DUP5 PUSH2 0x7B6 JUMP JUMPDEST SWAP3 SWAP2 POP POP JUMP JUMPDEST PUSH0 DUP2 SWAP1 POP SWAP2 SWAP1 POP JUMP JUMPDEST PUSH2 0x7F0 DUP2 PUSH2 0x7DE JUMP JUMPDEST DUP2 EQ PUSH2 0x7FA JUMPI PUSH0 DUP1 REVERT JUMPDEST POP JUMP JUMPDEST PUSH0 DUP2 CALLDATALOAD SWAP1 POP PUSH2 0x80B DUP2 PUSH2 0x7E7 JUMP JUMPDEST SWAP3 SWAP2 POP POP JUMP JUMPDEST PUSH0 DUP1 PUSH1 0x40 DUP4 DUP6 SUB SLT ISZERO PUSH2 0x827 JUMPI PUSH2 0x826 PUSH2 0x716 JUMP JUMPDEST JUMPDEST PUSH0 PUSH2 0x834 DUP6 DUP3 DUP7 ADD PUSH2 0x7FD JUMP JUMPDEST SWAP3 POP POP PUSH1 0x20 PUSH2 0x845 DUP6 DUP3 DUP7 ADD PUSH2 0x7FD JUMP JUMPDEST SWAP2 POP POP SWAP3 POP SWAP3 SWAP1 POP JUMP JUMPDEST PUSH2 0x858 DUP2 PUSH2 0x7DE JUMP JUMPDEST DUP3 MSTORE POP POP JUMP JUMPDEST PUSH0 PUSH1 0x20 DUP3 ADD SWAP1 POP PUSH2 0x871 PUSH0 DUP4 ADD DUP5 PUSH2 0x84F JUMP JUMPDEST SWAP3 SWAP2 POP POP JUMP JUMPDEST PUSH32 0x4E487B7100000000000000000000000000000000000000000000000000000000 PUSH0 MSTORE PUSH1 0x11 PUSH1 0x4 MSTORE PUSH1 0x24 PUSH0 REVERT JUMPDEST PUSH0 PUSH2 0x8AE DUP3 PUSH2 0x71A JUMP JUMPDEST SWAP2 POP PUSH2 0x8B9 DUP4 PUSH2 0x71A JUMP JUMPDEST SWAP3 POP DUP3 DUP3 MUL PUSH2 0x8C7 DUP2 PUSH2 0x71A JUMP JUMPDEST SWAP2 POP DUP3 DUP3 DIV DUP5 EQ DUP4 ISZERO OR PUSH2 0x8DE JUMPI PUSH2 0x8DD PUSH2 0x877 JUMP JUMPDEST JUMPDEST POP SWAP3 SWAP2 POP POP JUMP JUMPDEST PUSH0 PUSH1 0x60 DUP3 ADD SWAP1 POP PUSH2 0x8F8 PUSH0 DUP4 ADD DUP7 PUSH2 0x7B6 JUMP JUMPDEST PUSH2 0x905 PUSH1 0x20 DUP4 ADD DUP6 PUSH2 0x7B6 JUMP JUMPDEST PUSH2 0x912 PUSH1 0x40 DUP4 ADD DUP5 PUSH2 0x7B6 JUMP JUMPDEST SWAP5 SWAP4 POP POP POP POP JUMP JUMPDEST PUSH32 0x4E487B7100000000000000000000000000000000000000000000000000000000 PUSH0 MSTORE PUSH1 0x12 PUSH1 0x4 MSTORE PUSH1 0x24 PUSH0 REVERT JUMPDEST PUSH0 PUSH2 0x951 DUP3 PUSH2 0x71A JUMP JUMPDEST SWAP2 POP PUSH2 0x95C DUP4 PUSH2 0x71A JUMP JUMPDEST SWAP3 POP DUP3 PUSH2 0x96C JUMPI PUSH2 0x96B PUSH2 0x91A JUMP JUMPDEST JUMPDEST DUP3 DUP3 MOD SWAP1 POP SWAP3 SWAP2 POP POP JUMP JUMPDEST PUSH0 PUSH1 0x40 DUP3 ADD SWAP1 POP PUSH2 0x98A PUSH0 DUP4 ADD DUP6 PUSH2 0x7B6 JUMP JUMPDEST PUSH2 0x997 PUSH1 0x20 DUP4 ADD DUP5 PUSH2 0x7B6 JUMP JUMPDEST SWAP4 SWAP3 POP POP POP JUMP JUMPDEST PUSH0 PUSH2 0x9A8 DUP3 PUSH2 0x71A JUMP JUMPDEST SWAP2 POP PUSH2 0x9B3 DUP4 PUSH2 0x71A JUMP JUMPDEST SWAP3 POP DUP3 DUP3 ADD SWAP1 POP DUP1 DUP3 GT ISZERO PUSH2 0x9CB JUMPI PUSH2 0x9CA PUSH2 0x877 JUMP JUMPDEST JUMPDEST SWAP3 SWAP2 POP POP JUMP JUMPDEST PUSH0 PUSH2 0x9DB DUP3 PUSH2 0x71A JUMP JUMPDEST SWAP2 POP PUSH2 0x9E6 DUP4 PUSH2 0x71A JUMP JUMPDEST SWAP3 POP DUP3 PUSH2 0x9F6 JUMPI PUSH2 0x9F5 PUSH2 0x91A JUMP JUMPDEST JUMPDEST DUP3 DUP3 DIV SWAP1 POP SWAP3 SWAP2 POP POP JUMP JUMPDEST PUSH0 PUSH2 0xA0B DUP3 PUSH2 0x7DE JUMP JUMPDEST SWAP2 POP PUSH2 0xA16 DUP4 PUSH2 0x7DE JUMP JUMPDEST SWAP3 POP DUP3 DUP3 SUB SWAP1 POP DUP2 DUP2 SLT PUSH0 DUP5 SLT AND DUP3 DUP3 SGT PUSH0 DUP6 SLT ISZERO AND OR ISZERO PUSH2 0xA3B JUMPI PUSH2 0xA3A PUSH2 0x877 JUMP JUMPDEST JUMPDEST SWAP3 SWAP2 POP POP JUMP JUMPDEST PUSH0 PUSH2 0xA4B DUP3 PUSH2 0x71A JUMP JUMPDEST SWAP2 POP PUSH2 0xA56 DUP4 PUSH2 0x71A JUMP JUMPDEST SWAP3 POP DUP3 DUP3 SUB SWAP1 POP DUP2 DUP2 GT ISZERO PUSH2 0xA6E JUMPI PUSH2 0xA6D PUSH2 0x877 JUMP JUMPDEST JUMPDEST SWAP3 SWAP2 POP POP JUMP INVALID LOG2 PUSH5 0x6970667358 0x22 SLT KECCAK256 DUP5 SWAP6 RETURN 0xD5 LOG4 SSTORE CALLDATACOPY 0x2C 0xAB 0xE7 0x2B PUSH23 0x785F77900A9B6842C64FEB7C137BF844E5D969B064736F PUSH13 0x63430008180033000000000000 "
				},
				"gasEstimates": {
					"creation": {
						"codeDepositCost": "546000",
						"executionCost": "22684",
						"totalCost": "568684"
					},
					"external": {
						"average(uint256,uint256)": "infinite",
						"division(uint256,uint256)": "infinite",
						"exponent(uint256,uint256)": "infinite",
						"maximum(uint256,uint256)": "infinite",
						"module(uint256,uint256)": "infinite",
						"multiplier(uint256)": "infinite",
						"multiplier2(uint256)": "infinite",
						"result()": "2535",
						"sqrt(uint256)": "infinite",
						"substraction(uint256,uint256)": "infinite",
						"substraction2(int256,int256)": "infinite",
						"sum(uint256,uint256)": "infinite"
					},
					"internal": {
						"average_logic(uint256,uint256)": "infinite",
						"maximum_logic(uint256,uint256)": "63",
						"sqrt_logic(uint256)": "infinite",
						"substraction_logic(uint256,uint256)": "infinite",
						"substraction_logic2(int256,int256)": "infinite"
					}
				},
				"methodIdentifiers": {
					"average(uint256,uint256)": "2b7423ab",
					"division(uint256,uint256)": "e0068052",
					"exponent(uint256,uint256)": "2f8cd8b1",
					"maximum(uint256,uint256)": "cba5477c",
					"module(uint256,uint256)": "49175e4b",
					"multiplier(uint256)": "05e30f51",
					"multiplier2(uint256)": "a1623dce",
					"result()": "65372147",
					"sqrt(uint256)": "677342ce",
					"substraction(uint256,uint256)": "cdeb3314",
					"substraction2(int256,int256)": "2efad609",
					"sum(uint256,uint256)": "cad0899b"
				}
			},
			"storageLayout": {
				"storage": [
					{
						"astId": 4,
						"contract": "Calculator.sol:Calculator",
						"label": "result",
						"offset": 0,
						"slot": "0",
						"type": "t_uint256"
					}
				],
				"types": {
					"t_uint256": {
						"encoding": "inplace",
						"label": "uint256",
						"numberOfBytes": "32"
					}
				}
			},
			"userdoc": {
				"kind": "user",
				"methods": {},
				"version": 1
			}
		}
	}
}