{
	"data": {
		"bytecode": {
			"linkReferences": {},
			"object": "608060405260015f55348015610013575f80fd5b50610aaa806100215f395ff3fe608060405234801561000f575f80fd5b50600436106100b2575f3560e01c8063677342ce1161006f578063677342ce146101b0578063a1623dce146101e0578063cad0899b146101fc578063cba5477c1461022c578063cdeb33141461025c578063e00680521461028c576100b2565b806305e30f51146100b65780632b7423ab146100d25780632efad609146101025780632f8cd8b11461013257806349175e4b146101625780636537214714610192575b5f80fd5b6100d060048036038101906100cb919061074d565b6102bc565b005b6100ec60048036038101906100e79190610778565b6102d1565b6040516100f991906107c5565b60405180910390f35b61011c60048036038101906101179190610811565b610300565b604051610129919061085e565b60405180910390f35b61014c60048036038101906101479190610778565b610313565b60405161015991906107c5565b60405180910390f35b61017c60048036038101906101779190610778565b61039c565b60405161018991906107c5565b60405180910390f35b61019a610409565b6040516101a791906107c5565b60405180910390f35b6101ca60048036038101906101c5919061074d565b61040e565b6040516101d791906107c5565b60405180910390f35b6101fa60048036038101906101f5919061074d565b610466565b005b61021660048036038101906102119190610778565b610488565b60405161022391906107c5565b60405180910390f35b61024660048036038101906102419190610778565b6104d9565b60405161025391906107c5565b60405180910390f35b61027660048036038101906102719190610778565b610543565b60405161028391906107c5565b60405180910390f35b6102a660048036038101906102a19190610778565b610591565b6040516102b391906107c5565b60405180910390f35b805f546102c991906108a4565b5f8190555050565b5f82825f821115806102e357505f8111155b156102ec575f80fd5b6102f685856105fe565b9250505092915050565b5f61030b838361065b565b905092915050565b5f82825f8211158061032557505f8111155b1561032e575f80fd5b600192505f5b8481101561035757858461034891906108a4565b93508080600101915050610334565b507f8f88adbfbd9fac1a93415da25ad2a978a2ed5ecf0179be666a5c0aa82f8df26585855f5460405161038c939291906108e5565b60405180910390a1505092915050565b5f82825f821115806103ae57505f8111155b156103b7575f80fd5b83856103c39190610947565b92507fcfee31662af25188f47f9d61b42c3c6d09562d047aeb60b7d5734902f09a9dab85855f546040516103f9939291906108e5565b60405180910390a1505092915050565b5f5481565b5f815f811161041b575f80fd5b61042483610670565b91507f26a1b23e060f39984a0f8126724012d0e30d422d48168fd724ca09b04bce02e0835f54604051610458929190610977565b60405180910390a150919050565b805f8111610472575f80fd5b815f5461047f91906108a4565b5f819055505050565b5f8183610495919061099e565b90507fed389495059e3255c7a92671d5719bf4fd25064cd6bbbe911affd790ed68154183835f546040516104cb939291906108e5565b60405180910390a192915050565b5f82825f821115806104eb57505f8111155b156104f4575f80fd5b6104fe85856106e7565b92507eae92cff874140cbe97e7efc6ffd3c3dd667ee2b4c69fa357765af8fcf4d80485855f54604051610533939291906108e5565b60405180910390a1505092915050565b5f61054e8383610701565b90507f02325f53408b10d20290d06f069ad56eb7ecae5db225e14d71cda2c523652c5b838383604051610583939291906108e5565b60405180910390a192915050565b5f82825f821115806105a357505f8111155b156105ac575f80fd5b83856105b891906109d1565b92507fd8ef84f712e41d28f98fe74cd153013023d849514d0a40ee61834f3c385055ce85855f546040516105ee939291906108e5565b60405180910390a1505092915050565b5f6002828461060d919061099e565b61061791906109d1565b90507f71f9bbe40e9c99d1bc6b2a11e8a7b97bceb63804cdea6bc30f96f2a0eb12ecd483835f5460405161064d939291906108e5565b60405180910390a192915050565b5f81836106689190610a01565b905092915050565b5f60038211156106d5578190505f600160028461068d91906109d1565b610697919061099e565b90505b818110156106cf5780915060028182856106b491906109d1565b6106be919061099e565b6106c891906109d1565b905061069a565b506106e2565b5f82146106e157600190505b5b919050565b5f8183106106f7578290506106fb565b8190505b92915050565b5f818361070e9190610a41565b905092915050565b5f80fd5b5f819050919050565b61072c8161071a565b8114610736575f80fd5b50565b5f8135905061074781610723565b92915050565b5f6020828403121561076257610761610716565b5b5f61076f84828501610739565b91505092915050565b5f806040838503121561078e5761078d610716565b5b5f61079b85828601610739565b92505060206107ac85828601610739565b9150509250929050565b6107bf8161071a565b82525050565b5f6020820190506107d85f8301846107b6565b92915050565b5f819050919050565b6107f0816107de565b81146107fa575f80fd5b50565b5f8135905061080b816107e7565b92915050565b5f806040838503121561082757610826610716565b5b5f610834858286016107fd565b9250506020610845858286016107fd565b9150509250929050565b610858816107de565b82525050565b5f6020820190506108715f83018461084f565b92915050565b7f4e487b71000000000000000000000000000000000000000000000000000000005f52601160045260245ffd5b5f6108ae8261071a565b91506108b98361071a565b92508282026108c78161071a565b915082820484148315176108de576108dd610877565b5b5092915050565b5f6060820190506108f85f8301866107b6565b61090560208301856107b6565b61091260408301846107b6565b949350505050565b7f4e487b71000000000000000000000000000000000000000000000000000000005f52601260045260245ffd5b5f6109518261071a565b915061095c8361071a565b92508261096c5761096b61091a565b5b828206905092915050565b5f60408201905061098a5f8301856107b6565b61099760208301846107b6565b9392505050565b5f6109a88261071a565b91506109b38361071a565b92508282019050808211156109cb576109ca610877565b5b92915050565b5f6109db8261071a565b91506109e68361071a565b9250826109f6576109f561091a565b5b828204905092915050565b5f610a0b826107de565b9150610a16836107de565b925082820390508181125f8412168282135f851215161715610a3b57610a3a610877565b5b92915050565b5f610a4b8261071a565b9150610a568361071a565b9250828203905081811115610a6e57610a6d610877565b5b9291505056fea26469706673582212208495f3d5a455372cabe72b76785f77900a9b6842c64feb7c137bf844e5d969b064736f6c63430008180033",
			"opcodes": "PUSH1 0x80 PUSH1 0x40 MSTORE PUSH1 0x1 PUSH0 SSTORE CALLVALUE DUP1 ISZERO PUSH2 0x13 JUMPI PUSH0 DUP1 REVERT JUMPDEST POP PUSH2 0xAAA DUP1 PUSH2 0x21 PUSH0 CODECOPY PUSH0 RETURN INVALID PUSH1 0x80 PUSH1 0x40 MSTORE CALLVALUE DUP1 ISZERO PUSH2 0xF JUMPI PUSH0 DUP1 REVERT JUMPDEST POP PUSH1 0x4 CALLDATASIZE LT PUSH2 0xB2 JUMPI PUSH0 CALLDATALOAD PUSH1 0xE0 SHR DUP1 PUSH4 0x677342CE GT PUSH2 0x6F JUMPI DUP1 PUSH4 0x677342CE EQ PUSH2 0x1B0 JUMPI DUP1 PUSH4 0xA1623DCE EQ PUSH2 0x1E0 JUMPI DUP1 PUSH4 0xCAD0899B EQ PUSH2 0x1FC JUMPI DUP1 PUSH4 0xCBA5477C EQ PUSH2 0x22C JUMPI DUP1 PUSH4 0xCDEB3314 EQ PUSH2 0x25C JUMPI DUP1 PUSH4 0xE0068052 EQ PUSH2 0x28C JUMPI PUSH2 0xB2 JUMP JUMPDEST DUP1 PUSH4 0x5E30F51 EQ PUSH2 0xB6 JUMPI DUP1 PUSH4 0x2B7423AB EQ PUSH2 0xD2 JUMPI DUP1 PUSH4 0x2EFAD609 EQ PUSH2 0x102 JUMPI DUP1 PUSH4 0x2F8CD8B1 EQ PUSH2 0x132 JUMPI DUP1 PUSH4 0x49175E4B EQ PUSH2 0x162 JUMPI DUP1 PUSH4 0x65372147 EQ PUSH2 0x192 JUMPI JUMPDEST PUSH0 DUP1 REVERT JUMPDEST PUSH2 0xD0 PUSH1 0x4 DUP1 CALLDATASIZE SUB DUP2 ADD SWAP1 PUSH2 0xCB SWAP2 SWAP1 PUSH2 0x74D JUMP JUMPDEST PUSH2 0x2BC JUMP JUMPDEST STOP JUMPDEST PUSH2 0xEC PUSH1 0x4 DUP1 CALLDATASIZE SUB DUP2 ADD SWAP1 PUSH2 0xE7 SWAP2 SWAP1 PUSH2 0x778 JUMP JUMPDEST PUSH2 0x2D1 JUMP JUMPDEST PUSH1 0x40 MLOAD PUSH2 0xF9 SWAP2 SWAP1 PUSH2 0x7C5 JUMP JUMPDEST PUSH1 0x40 MLOAD DUP1 SWAP2 SUB SWAP1 RETURN JUMPDEST PUSH2 0x11C PUSH1 0x4 DUP1 CALLDATASIZE SUB DUP2 ADD SWAP1 PUSH2 0x117 SWAP2 SWAP1 PUSH2 0x811 JUMP JUMPDEST PUSH2 0x300 JUMP JUMPDEST PUSH1 0x40 MLOAD PUSH2 0x129 SWAP2 SWAP1 PUSH2 0x85E JUMP JUMPDEST PUSH1 0x40 MLOAD DUP1 SWAP2 SUB SWAP1 RETURN JUMPDEST PUSH2 0x14C PUSH1 0x4 DUP1 CALLDATASIZE SUB DUP2 ADD SWAP1 PUSH2 0x147 SWAP2 SWAP1 PUSH2 0x778 JUMP JUMPDEST PUSH2 0x313 JUMP JUMPDEST PUSH1 0x40 MLOAD PUSH2 0x159 SWAP2 SWAP1 PUSH2 0x7C5 JUMP JUMPDEST PUSH1 0x40 MLOAD DUP1 SWAP2 SUB SWAP1 RETURN JUMPDEST PUSH2 0x17C PUSH1 0x4 DUP1 CALLDATASIZE SUB DUP2 ADD SWAP1 PUSH2 0x177 SWAP2 SWAP1 PUSH2 0x778 JUMP JUMPDEST PUSH2 0x39C JUMP JUMPDEST PUSH1 0x40 MLOAD PUSH2 0x189 SWAP2 SWAP1 PUSH2 0x7C5 JUMP JUMPDEST PUSH1 0x40 MLOAD DUP1 SWAP2 SUB SWAP1 RETURN JUMPDEST PUSH2 0x19A PUSH2 0x409 JUMP JUMPDEST PUSH1 0x40 MLOAD PUSH2 0x1A7 SWAP2 SWAP1 PUSH2 0x7C5 JUMP JUMPDEST PUSH1 0x40 MLOAD DUP1 SWAP2 SUB SWAP1 RETURN JUMPDEST PUSH2 0x1CA PUSH1 0x4 DUP1 CALLDATASIZE SUB DUP2 ADD SWAP1 PUSH2 0x1C5 SWAP2 SWAP1 PUSH2 0x74D JUMP JUMPDEST PUSH2 0x40E JUMP JUMPDEST PUSH1 0x40 MLOAD PUSH2 0x1D7 SWAP2 SWAP1 PUSH2 0x7C5 JUMP JUMPDEST PUSH1 0x40 MLOAD DUP1 SWAP2 SUB SWAP1 RETURN JUMPDEST PUSH2 0x1FA PUSH1 0x4 DUP1 CALLDATASIZE SUB DUP2 ADD SWAP1 PUSH2 0x1F5 SWAP2 SWAP1 PUSH2 0x74D JUMP JUMPDEST PUSH2 0x466 JUMP JUMPDEST STOP JUMPDEST PUSH2 0x216 PUSH1 0x4 DUP1 CALLDATASIZE SUB DUP2 ADD SWAP1 PUSH2 0x211 SWAP2 SWAP1 PUSH2 0x778 JUMP JUMPDEST PUSH2 0x488 JUMP JUMPDEST PUSH1 0x40 MLOAD PUSH2 0x223 SWAP2 SWAP1 PUSH2 0x7C5 JUMP JUMPDEST PUSH1 0x40 MLOAD DUP1 SWAP2 SUB SWAP1 RETURN JUMPDEST PUSH2 0x246 PUSH1 0x4 DUP1 CALLDATASIZE SUB DUP2 ADD SWAP1 PUSH2 0x241 SWAP2 SWAP1 PUSH2 0x778 JUMP JUMPDEST PUSH2 0x4D9 JUMP JUMPDEST PUSH1 0x40 MLOAD PUSH2 0x253 SWAP2 SWAP1 PUSH2 0x7C5 JUMP JUMPDEST PUSH1 0x40 MLOAD DUP1 SWAP2 SUB SWAP1 RETURN JUMPDEST PUSH2 0x276 PUSH1 0x4 DUP1 CALLDATASIZE SUB DUP2 ADD SWAP1 PUSH2 0x271 SWAP2 SWAP1 PUSH2 0x778 JUMP JUMPDEST PUSH2 0x543 JUMP JUMPDEST PUSH1 0x40 MLOAD PUSH2 0x283 SWAP2 SWAP1 PUSH2 0x7C5 JUMP JUMPDEST PUSH1 0x40 MLOAD DUP1 SWAP2 SUB SWAP1 RETURN JUMPDEST PUSH2 0x2A6 PUSH1 0x4 DUP1 CALLDATASIZE SUB DUP2 ADD SWAP1 PUSH2 0x2A1 SWAP2 SWAP1 PUSH2 0x778 JUMP JUMPDEST PUSH2 0x591 JUMP JUMPDEST PUSH1 0x40 MLOAD PUSH2 0x2B3 SWAP2 SWAP1 PUSH2 0x7C5 JUMP JUMPDEST PUSH1 0x40 MLOAD DUP1 SWAP2 SUB SWAP1 RETURN JUMPDEST DUP1 PUSH0 SLOAD PUSH2 0x2C9 SWAP2 SWAP1 PUSH2 0x8A4 JUMP JUMPDEST PUSH0 DUP2 SWAP1 SSTORE POP POP JUMP JUMPDEST PUSH0 DUP3 DUP3 PUSH0 DUP3 GT ISZERO DUP1 PUSH2 0x2E3 JUMPI POP PUSH0 DUP2 GT ISZERO JUMPDEST ISZERO PUSH2 0x2EC JUMPI PUSH0 DUP1 REVERT JUMPDEST PUSH2 0x2F6 DUP6 DUP6 PUSH2 0x5FE JUMP JUMPDEST SWAP3 POP POP POP SWAP3 SWAP2 POP POP JUMP JUMPDEST PUSH0 PUSH2 0x30B DUP4 DUP4 PUSH2 0x65B JUMP JUMPDEST SWAP1 POP SWAP3 SWAP2 POP POP JUMP JUMPDEST PUSH0 DUP3 DUP3 PUSH0 DUP3 GT ISZERO DUP1 PUSH2 0x325 JUMPI POP PUSH0 DUP2 GT ISZERO JUMPDEST ISZERO PUSH2 0x32E JUMPI PUSH0 DUP1 REVERT JUMPDEST PUSH1 0x1 SWAP3 POP PUSH0 JUMPDEST DUP5 DUP2 LT ISZERO PUSH2 0x357 JUMPI DUP6 DUP5 PUSH2 0x348 SWAP2 SWAP1 PUSH2 0x8A4 JUMP JUMPDEST SWAP4 POP DUP1 DUP1 PUSH1 0x1 ADD SWAP2 POP POP PUSH2 0x334 JUMP JUMPDEST POP PUSH32 0x8F88ADBFBD9FAC1A93415DA25AD2A978A2ED5ECF0179BE666A5C0AA82F8DF265 DUP6 DUP6 PUSH0 SLOAD PUSH1 0x40 MLOAD PUSH2 0x38C SWAP4 SWAP3 SWAP2 SWAP1 PUSH2 0x8E5 JUMP JUMPDEST PUSH1 0x40 MLOAD DUP1 SWAP2 SUB SWAP1 LOG1 POP POP SWAP3 SWAP2 POP POP JUMP JUMPDEST PUSH0 DUP3 DUP3 PUSH0 DUP3 GT ISZERO DUP1 PUSH2 0x3AE JUMPI POP PUSH0 DUP2 GT ISZERO JUMPDEST ISZERO PUSH2 0x3B7 JUMPI PUSH0 DUP1 REVERT JUMPDEST DUP4 DUP6 PUSH2 0x3C3 SWAP2 SWAP1 PUSH2 0x947 JUMP JUMPDEST SWAP3 POP PUSH32 0xCFEE31662AF25188F47F9D61B42C3C6D09562D047AEB60B7D5734902F09A9DAB DUP6 DUP6 PUSH0 SLOAD PUSH1 0x40 MLOAD PUSH2 0x3F9 SWAP4 SWAP3 SWAP2 SWAP1 PUSH2 0x8E5 JUMP JUMPDEST PUSH1 0x40 MLOAD DUP1 SWAP2 SUB SWAP1 LOG1 POP POP SWAP3 SWAP2 POP POP JUMP JUMPDEST PUSH0 SLOAD DUP2 JUMP JUMPDEST PUSH0 DUP2 PUSH0 DUP2 GT PUSH2 0x41B JUMPI PUSH0 DUP1 REVERT JUMPDEST PUSH2 0x424 DUP4 PUSH2 0x670 JUMP JUMPDEST SWAP2 POP PUSH32 0x26A1B23E060F39984A0F8126724012D0E30D422D48168FD724CA09B04BCE02E0 DUP4 PUSH0 SLOAD PUSH1 0x40 MLOAD PUSH2 0x458 SWAP3 SWAP2 SWAP1 PUSH2 0x977 JUMP JUMPDEST PUSH1 0x40 MLOAD DUP1 SWAP2 SUB SWAP1 LOG1 POP SWAP2 SWAP1 POP JUMP JUMPDEST DUP1 PUSH0 DUP2 GT PUSH2 0x472 JUMPI PUSH0 DUP1 REVERT JUMPDEST DUP2 PUSH0 SLOAD PUSH2 0x47F SWAP2 SWAP1 PUSH2 0x8A4 JUMP JUMPDEST PUSH0 DUP2 SWAP1 SSTORE POP POP POP JUMP JUMPDEST PUSH0 DUP2 DUP4 PUSH2 0x495 SWAP2 SWAP1 PUSH2 0x99E JUMP JUMPDEST SWAP1 POP PUSH32 0xED389495059E3255C7A92671D5719BF4FD25064CD6BBBE911AFFD790ED681541 DUP4 DUP4 PUSH0 SLOAD PUSH1 0x40 MLOAD PUSH2 0x4CB SWAP4 SWAP3 SWAP2 SWAP1 PUSH2 0x8E5 JUMP JUMPDEST PUSH1 0x40 MLOAD DUP1 SWAP2 SUB SWAP1 LOG1 SWAP3 SWAP2 POP POP JUMP JUMPDEST PUSH0 DUP3 DUP3 PUSH0 DUP3 GT ISZERO DUP1 PUSH2 0x4EB JUMPI POP PUSH0 DUP2 GT ISZERO JUMPDEST ISZERO PUSH2 0x4F4 JUMPI PUSH0 DUP1 REVERT JUMPDEST PUSH2 0x4FE DUP6 DUP6 PUSH2 0x6E7 JUMP JUMPDEST SWAP3 POP PUSH31 0xAE92CFF874140CBE97E7EFC6FFD3C3DD667EE2B4C69FA357765AF8FCF4D804 DUP6 DUP6 PUSH0 SLOAD PUSH1 0x40 MLOAD PUSH2 0x533 SWAP4 SWAP3 SWAP2 SWAP1 PUSH2 0x8E5 JUMP JUMPDEST PUSH1 0x40 MLOAD DUP1 SWAP2 SUB SWAP1 LOG1 POP POP SWAP3 SWAP2 POP POP JUMP JUMPDEST PUSH0 PUSH2 0x54E DUP4 DUP4 PUSH2 0x701 JUMP JUMPDEST SWAP1 POP PUSH32 0x2325F53408B10D20290D06F069AD56EB7ECAE5DB225E14D71CDA2C523652C5B DUP4 DUP4 DUP4 PUSH1 0x40 MLOAD PUSH2 0x583 SWAP4 SWAP3 SWAP2 SWAP1 PUSH2 0x8E5 JUMP JUMPDEST PUSH1 0x40 MLOAD DUP1 SWAP2 SUB SWAP1 LOG1 SWAP3 SWAP2 POP POP JUMP JUMPDEST PUSH0 DUP3 DUP3 PUSH0 DUP3 GT ISZERO DUP1 PUSH2 0x5A3 JUMPI POP PUSH0 DUP2 GT ISZERO JUMPDEST ISZERO PUSH2 0x5AC JUMPI PUSH0 DUP1 REVERT JUMPDEST DUP4 DUP6 PUSH2 0x5B8 SWAP2 SWAP1 PUSH2 0x9D1 JUMP JUMPDEST SWAP3 POP PUSH32 0xD8EF84F712E41D28F98FE74CD153013023D849514D0A40EE61834F3C385055CE DUP6 DUP6 PUSH0 SLOAD PUSH1 0x40 MLOAD PUSH2 0x5EE SWAP4 SWAP3 SWAP2 SWAP1 PUSH2 0x8E5 JUMP JUMPDEST PUSH1 0x40 MLOAD DUP1 SWAP2 SUB SWAP1 LOG1 POP POP SWAP3 SWAP2 POP POP JUMP JUMPDEST PUSH0 PUSH1 0x2 DUP3 DUP5 PUSH2 0x60D SWAP2 SWAP1 PUSH2 0x99E JUMP JUMPDEST PUSH2 0x617 SWAP2 SWAP1 PUSH2 0x9D1 JUMP JUMPDEST SWAP1 POP PUSH32 0x71F9BBE40E9C99D1BC6B2A11E8A7B97BCEB63804CDEA6BC30F96F2A0EB12ECD4 DUP4 DUP4 PUSH0 SLOAD PUSH1 0x40 MLOAD PUSH2 0x64D SWAP4 SWAP3 SWAP2 SWAP1 PUSH2 0x8E5 JUMP JUMPDEST PUSH1 0x40 MLOAD DUP1 SWAP2 SUB SWAP1 LOG1 SWAP3 SWAP2 POP POP JUMP JUMPDEST PUSH0 DUP2 DUP4 PUSH2 0x668 SWAP2 SWAP1 PUSH2 0xA01 JUMP JUMPDEST SWAP1 POP SWAP3 SWAP2 POP POP JUMP JUMPDEST PUSH0 PUSH1 0x3 DUP3 GT ISZERO PUSH2 0x6D5 JUMPI DUP2 SWAP1 POP PUSH0 PUSH1 0x1 PUSH1 0x2 DUP5 PUSH2 0x68D SWAP2 SWAP1 PUSH2 0x9D1 JUMP JUMPDEST PUSH2 0x697 SWAP2 SWAP1 PUSH2 0x99E JUMP JUMPDEST SWAP1 POP JUMPDEST DUP2 DUP2 LT ISZERO PUSH2 0x6CF JUMPI DUP1 SWAP2 POP PUSH1 0x2 DUP2 DUP3 DUP6 PUSH2 0x6B4 SWAP2 SWAP1 PUSH2 0x9D1 JUMP JUMPDEST PUSH2 0x6BE SWAP2 SWAP1 PUSH2 0x99E JUMP JUMPDEST PUSH2 0x6C8 SWAP2 SWAP1 PUSH2 0x9D1 JUMP JUMPDEST SWAP1 POP PUSH2 0x69A JUMP JUMPDEST POP PUSH2 0x6E2 JUMP JUMPDEST PUSH0 DUP3 EQ PUSH2 0x6E1 JUMPI PUSH1 0x1 SWAP1 POP JUMPDEST JUMPDEST SWAP2 SWAP1 POP JUMP JUMPDEST PUSH0 DUP2 DUP4 LT PUSH2 0x6F7 JUMPI DUP3 SWAP1 POP PUSH2 0x6FB JUMP JUMPDEST DUP2 SWAP1 POP JUMPDEST SWAP3 SWAP2 POP POP JUMP JUMPDEST PUSH0 DUP2 DUP4 PUSH2 0x70E SWAP2 SWAP1 PUSH2 0xA41 JUMP JUMPDEST SWAP1 POP SWAP3 SWAP2 POP POP JUMP JUMPDEST PUSH0 DUP1 REVERT JUMPDEST PUSH0 DUP2 SWAP1 POP SWAP2 SWAP1 POP JUMP JUMPDEST PUSH2 0x72C DUP2 PUSH2 0x71A JUMP JUMPDEST DUP2 EQ PUSH2 0x736 JUMPI PUSH0 DUP1 REVERT JUMPDEST POP JUMP JUMPDEST PUSH0 DUP2 CALLDATALOAD SWAP1 POP PUSH2 0x747 DUP2 PUSH2 0x723 JUMP JUMPDEST SWAP3 SWAP2 POP POP JUMP JUMPDEST PUSH0 PUSH1 0x20 DUP3 DUP5 SUB SLT ISZERO PUSH2 0x762 JUMPI PUSH2 0x761 PUSH2 0x716 JUMP JUMPDEST JUMPDEST PUSH0 PUSH2 0x76F DUP5 DUP3 DUP6 ADD PUSH2 0x739 JUMP JUMPDEST SWAP2 POP POP SWAP3 SWAP2 POP POP JUMP JUMPDEST PUSH0 DUP1 PUSH1 0x40 DUP4 DUP6 SUB SLT ISZERO PUSH2 0x78E JUMPI PUSH2 0x78D PUSH2 0x716 JUMP JUMPDEST JUMPDEST PUSH0 PUSH2 0x79B DUP6 DUP3 DUP7 ADD PUSH2 0x739 JUMP JUMPDEST SWAP3 POP POP PUSH1 0x20 PUSH2 0x7AC DUP6 DUP3 DUP7 ADD PUSH2 0x739 JUMP JUMPDEST SWAP2 POP POP SWAP3 POP SWAP3 SWAP1 POP JUMP JUMPDEST PUSH2 0x7BF DUP2 PUSH2 0x71A JUMP JUMPDEST DUP3 MSTORE POP POP JUMP JUMPDEST PUSH0 PUSH1 0x20 DUP3 ADD SWAP1 POP PUSH2 0x7D8 PUSH0 DUP4 ADD DUP5 PUSH2 0x7B6 JUMP JUMPDEST SWAP3 SWAP2 POP POP JUMP JUMPDEST PUSH0 DUP2 SWAP1 POP SWAP2 SWAP1 POP JUMP JUMPDEST PUSH2 0x7F0 DUP2 PUSH2 0x7DE JUMP JUMPDEST DUP2 EQ PUSH2 0x7FA JUMPI PUSH0 DUP1 REVERT JUMPDEST POP JUMP JUMPDEST PUSH0 DUP2 CALLDATALOAD SWAP1 POP PUSH2 0x80B DUP2 PUSH2 0x7E7 JUMP JUMPDEST SWAP3 SWAP2 POP POP JUMP JUMPDEST PUSH0 DUP1 PUSH1 0x40 DUP4 DUP6 SUB SLT ISZERO PUSH2 0x827 JUMPI PUSH2 0x826 PUSH2 0x716 JUMP JUMPDEST JUMPDEST PUSH0 PUSH2 0x834 DUP6 DUP3 DUP7 ADD PUSH2 0x7FD JUMP JUMPDEST SWAP3 POP POP PUSH1 0x20 PUSH2 0x845 DUP6 DUP3 DUP7 ADD PUSH2 0x7FD JUMP JUMPDEST SWAP2 POP POP SWAP3 POP SWAP3 SWAP1 POP JUMP JUMPDEST PUSH2 0x858 DUP2 PUSH2 0x7DE JUMP JUMPDEST DUP3 MSTORE POP POP JUMP JUMPDEST PUSH0 PUSH1 0x20 DUP3 ADD SWAP1 POP PUSH2 0x871 PUSH0 DUP4 ADD DUP5 PUSH2 0x84F JUMP JUMPDEST SWAP3 SWAP2 POP POP JUMP JUMPDEST PUSH32 0x4E487B7100000000000000000000000000000000000000000000000000000000 PUSH0 MSTORE PUSH1 0x11 PUSH1 0x4 MSTORE PUSH1 0x24 PUSH0 REVERT JUMPDEST PUSH0 PUSH2 0x8AE DUP3 PUSH2 0x71A JUMP JUMPDEST SWAP2 POP PUSH2 0x8B9 DUP4 PUSH2 0x71A JUMP JUMPDEST SWAP3 POP DUP3 DUP3 MUL PUSH2 0x8C7 DUP2 PUSH2 0x71A JUMP JUMPDEST SWAP2 POP DUP3 DUP3 DIV DUP5 EQ DUP4 ISZERO OR PUSH2 0x8DE JUMPI PUSH2 0x8DD PUSH2 0x877 JUMP JUMPDEST JUMPDEST POP SWAP3 SWAP2 POP POP JUMP JUMPDEST PUSH0 PUSH1 0x60 DUP3 ADD SWAP1 POP PUSH2 0x8F8 PUSH0 DUP4 ADD DUP7 PUSH2 0x7B6 JUMP JUMPDEST PUSH2 0x905 PUSH1 0x20 DUP4 ADD DUP6 PUSH2 0x7B6 JUMP JUMPDEST PUSH2 0x912 PUSH1 0x40 DUP4 ADD DUP5 PUSH2 0x7B6 JUMP JUMPDEST SWAP5 SWAP4 POP POP POP POP JUMP JUMPDEST PUSH32 0x4E487B7100000000000000000000000000000000000000000000000000000000 PUSH0 MSTORE PUSH1 0x12 PUSH1 0x4 MSTORE PUSH1 0x24 PUSH0 REVERT JUMPDEST PUSH0 PUSH2 0x951 DUP3 PUSH2 0x71A JUMP JUMPDEST SWAP2 POP PUSH2 0x95C DUP4 PUSH2 0x71A JUMP JUMPDEST SWAP3 POP DUP3 PUSH2 0x96C JUMPI PUSH2 0x96B PUSH2 0x91A JUMP JUMPDEST JUMPDEST DUP3 DUP3 MOD SWAP1 POP SWAP3 SWAP2 POP POP JUMP JUMPDEST PUSH0 PUSH1 0x40 DUP3 ADD SWAP1 POP PUSH2 0x98A PUSH0 DUP4 ADD DUP6 PUSH2 0x7B6 JUMP JUMPDEST PUSH2 0x997 PUSH1 0x20 DUP4 ADD DUP5 PUSH2 0x7B6 JUMP JUMPDEST SWAP4 SWAP3 POP POP POP JUMP JUMPDEST PUSH0 PUSH2 0x9A8 DUP3 PUSH2 0x71A JUMP JUMPDEST SWAP2 POP PUSH2 0x9B3 DUP4 PUSH2 0x71A JUMP JUMPDEST SWAP3 POP DUP3 DUP3 ADD SWAP1 POP DUP1 DUP3 GT ISZERO PUSH2 0x9CB JUMPI PUSH2 0x9CA PUSH2 0x877 JUMP JUMPDEST JUMPDEST SWAP3 SWAP2 POP POP JUMP JUMPDEST PUSH0 PUSH2 0x9DB DUP3 PUSH2 0x71A JUMP JUMPDEST SWAP2 POP PUSH2 0x9E6 DUP4 PUSH2 0x71A JUMP JUMPDEST SWAP3 POP DUP3 PUSH2 0x9F6 JUMPI PUSH2 0x9F5 PUSH2 0x91A JUMP JUMPDEST JUMPDEST DUP3 DUP3 DIV SWAP1 POP SWAP3 SWAP2 POP POP JUMP JUMPDEST PUSH0 PUSH2 0xA0B DUP3 PUSH2 0x7DE JUMP JUMPDEST SWAP2 POP PUSH2 0xA16 DUP4 PUSH2 0x7DE JUMP JUMPDEST SWAP3 POP DUP3 DUP3 SUB SWAP1 POP DUP2 DUP2 SLT PUSH0 DUP5 SLT AND DUP3 DUP3 SGT PUSH0 DUP6 SLT ISZERO AND OR ISZERO PUSH2 0xA3B JUMPI PUSH2 0xA3A PUSH2 0x877 JUMP JUMPDEST JUMPDEST SWAP3 SWAP2 POP POP JUMP JUMPDEST PUSH0 PUSH2 0xA4B DUP3 PUSH2 0x71A JUMP JUMPDEST SWAP2 POP PUSH2 0xA56 DUP4 PUSH2 0x71A JUMP JUMPDEST SWAP3 POP DUP3 DUP3 SUB SWAP1 POP DUP2 DUP2 GT ISZERO PUSH2 0xA6E JUMPI PUSH2 0xA6D PUSH2 0x877 JUMP JUMPDEST JUMPDEST SWAP3 SWAP2 POP POP JUMP INVALID LOG2 PUSH5 0x6970667358 0x22 SLT KECCAK256 DUP5 SWAP6 RETURN 0xD5 LOG4 SSTORE CALLDATACOPY 0x2C 0xAB 0xE7 0x2B PUSH23 0x785F77900A9B6842C64FEB7C137BF844E5D969B064736F PUSH13 0x63430008180033000000000000 "
		},
		"gasEstimates": {
			"creation": {
				"codeDepositCost": "546000",
				"executionCost": "22684",
				"totalCost": "568684"
			},
			"external": {
				"average(uint256,uint256)": "infinite",
				"division(uint256,uint256)": "infinite",
				"exponent(uint256,uint256)": "infinite",
				"maximum(uint256,uint256)": "infinite",
				"module(uint256,uint256)": "infinite",
				"multiplier(uint256)": "infinite",
				"multiplier2(uint256)": "infinite",
				"result()": "2535",
				"sqrt(uint256)": "infinite",
				"substraction(uint256,uint256)": "infinite",
				"substraction2(int256,int256)": "infinite",
				"sum(uint256,uint256)": "infinite"
			},
			"internal": {
				"average_logic(uint256,uint256)": "infinite",
				"maximum_logic(uint256,uint256)": "63",
				"sqrt_logic(uint256)": "infinite",
				"substraction_logic(uint256,uint256)": "infinite",
				"substraction_logic2(int256,int256)": "infinite"
			}
		},
		"methodIdentifiers": {
			"average(uint256,uint256)": "2b7423ab",
			"division(uint256,uint256)": "e0068052",
			"exponent(uint256,uint256)": "2f8cd8b1",
			"maximum(uint256,uint256)": "cba5477c",
			"module(uint256,uint256)": "49175e4b",
			"multiplier(uint256)": "05e30f51",
			"multiplier2(uint256)": "a1623dce",
			"result()": "65372147",
			"sqrt(uint256)": "677342ce",
			"substraction(uint256,uint256)": "cdeb3314",
			"substraction2(int256,int256)": "2efad609",
			"sum(uint256,uint256)": "cad0899b"
		}
	},
	"abi": [
		{
			"anonymous": false,
			"inputs": [
				{
					"indexed": false,
					"internalType": "uint256",
					"name": "num1",
					"type": "uint256"
				},
				{
					"indexed": false,
					"internalType": "uint256",
					"name": "num2",
					"type": "uint256"
				},
				{
					"indexed": false,
					"internalType": "uint256",
					"name": "result",
					"type": "uint256"
				}
			],
			"name": "Average",
			"type": "event"
		},
		{
			"anonymous": false,
			"inputs": [
				{
					"indexed": false,
					"internalType": "uint256",
					"name": "num1",
					"type": "uint256"
				},
				{
					"indexed": false,
					"internalType": "uint256",
					"name": "num2",
					"type": "uint256"
				},
				{
					"indexed": false,
					"internalType": "uint256",
					"name": "result",
					"type": "uint256"
				}
			],
			"name": "Division",
			"type": "event"
		},
		{
			"anonymous": false,
			"inputs": [
				{
					"indexed": false,
					"internalType": "uint256",
					"name": "num1",
					"type": "uint256"
				},
				{
					"indexed": false,
					"internalType": "uint256",
					"name": "num2",
					"type": "uint256"
				},
				{
					"indexed": false,
					"internalType": "uint256",
					"name": "result",
					"type": "uint256"
				}
			],
			"name": "Exponent",
			"type": "event"
		},
		{
			"anonymous": false,
			"inputs": [
				{
					"indexed": false,
					"internalType": "uint256",
					"name": "num1",
					"type": "uint256"
				},
				{
					"indexed": false,
					"internalType": "uint256",
					"name": "num2",
					"type": "uint256"
				},
				{
					"indexed": false,
					"internalType": "uint256",
					"name": "result",
					"type": "uint256"
				}
			],
			"name": "Maximum",
			"type": "event"
		},
		{
			"anonymous": false,
			"inputs": [
				{
					"indexed": false,
					"internalType": "uint256",
					"name": "num1",
					"type": "uint256"
				},
				{
					"indexed": false,
					"internalType": "uint256",
					"name": "num2",
					"type": "uint256"
				},
				{
					"indexed": false,
					"internalType": "uint256",
					"name": "result",
					"type": "uint256"
				}
			],
			"name": "Module",
			"type": "event"
		},
		{
			"anonymous": false,
			"inputs": [
				{
					"indexed": false,
					"internalType": "uint256",
					"name": "num1",
					"type": "uint256"
				},
				{
					"indexed": false,
					"internalType": "uint256",
					"name": "result",
					"type": "uint256"
				}
			],
			"name": "Sqrt",
			"type": "event"
		},
		{
			"anonymous": false,
			"inputs": [
				{
					"indexed": false,
					"internalType": "uint256",
					"name": "num1",
					"type": "uint256"
				},
				{
					"indexed": false,
					"internalType": "uint256",
					"name": "num2",
					"type": "uint256"
				},
				{
					"indexed": false,
					"internalType": "uint256",
					"name": "result",
					"type": "uint256"
				}
			],
			"name": "Substraction",
			"type": "event"
		},
		{
			"anonymous": false,
			"inputs": [
				{
					"indexed": false,
					"internalType": "uint256",
					"name": "num1",
					"type": "uint256"
				},
				{
					"indexed": false,
					"internalType": "uint256",
					"name": "num2",
					"type": "uint256"
				},
				{
					"indexed": false,
					"internalType": "uint256",
					"name": "result",
					"type": "uint256"
				}
			],
			"name": "Sum",
			"type": "event"
		},
		{
			"inputs": [
				{
					"internalType": "uint256",
					"name": "num1_",
					"type": "uint256"
				},
				{
					"internalType": "uint256",
					"name": "num2_",
					"type": "uint256"
				}
			],
			"name": "average",
			"outputs": [
				{
					"internalType": "uint256",
					"name": "result_",
					"type": "uint256"
				}
			],
			"stateMutability": "nonpayable",
			"type": "function"
		},
		{
			"inputs": [
				{
					"internalType": "uint256",
					"name": "num1_",
					"type": "uint256"
				},
				{
					"internalType": "uint256",
					"name": "num2_",
					"type": "uint256"
				}
			],
			"name": "division",
			"outputs": [
				{
					"internalType": "uint256",
					"name": "result_",
					"type": "uint256"
				}
			],
			"stateMutability": "nonpayable",
			"type": "function"
		},
		{
			"inputs": [
				{
					"internalType": "uint256",
					"name": "num1_",
					"type": "uint256"
				},
				{
					"internalType": "uint256",
					"name": "num2_",
					"type": "uint256"
				}
			],
			"name": "exponent",
			"outputs": [
				{
					"internalType": "uint256",
					"name": "result_",
					"type": "uint256"
				}
			],
			"stateMutability": "nonpayable",
			"type": "function"
		},
		{
			"inputs": [
				{
					"internalType": "uint256",
					"name": "num1_",
					"type": "uint256"
				},
				{
					"internalType": "uint256",
					"name": "num2_",
					"type": "uint256"
				}
			],
			"name": "maximum",
			"outputs": [
				{
					"internalType": "uint256",
					"name": "result_",
					"type": "uint256"
				}
			],
			"stateMutability": "nonpayable",
			"type": "function"
		},
		{
			"inputs": [
				{
					"internalType": "uint256",
					"name": "num1_",
					"type": "uint256"
				},
				{
					"internalType": "uint256",
					"name": "num2_",
					"type": "uint256"
				}
			],
			"name": "module",
			"outputs": [
				{
					"internalType": "uint256",
					"name": "result_",
					"type": "uint256"
				}
			],
			"stateMutability": "nonpayable",
			"type": "function"
		},
		{
			"inputs": [
				{
					"internalType": "uint256",
					"name": "num1_",
					"type": "uint256"
				}
			],
			"name": "multiplier",
			"outputs": [],
			"stateMutability": "nonpayable",
			"type": "function"
		},
		{
			"inputs": [
				{
					"internalType": "uint256",
					"name": "num1_",
					"type": "uint256"
				}
			],
			"name": "multiplier2",
			"outputs": [],
			"stateMutability": "nonpayable",
			"type": "function"
		},
		{
			"inputs": [],
			"name": "result",
			"outputs": [
				{
					"internalType": "uint256",
					"name": "",
					"type": "uint256"
				}
			],
			"stateMutability": "view",
			"type": "function"
		},
		{
			"inputs": [
				{
					"internalType": "uint256",
					"name": "num1_",
					"type": "uint256"
				}
			],
			"name": "sqrt",
			"outputs": [
				{
					"internalType": "uint256",
					"name": "result_",
					"type": "uint256"
				}
			],
			"stateMutability": "nonpayable",
			"type": "function"
		},
		{
			"inputs": [
				{
					"internalType": "uint256",
					"name": "num1_",
					"type": "uint256"
				},
				{
					"internalType": "uint256",
					"name": "num2_",
					"type": "uint256"
				}
			],
			"name": "substraction",
			"outputs": [
				{
					"internalType": "uint256",
					"name": "result_",
					"type": "uint256"
				}
			],
			"stateMutability": "nonpayable",
			"type": "function"
		},
		{
			"inputs": [
				{
					"internalType": "int256",
					"name": "num1_",
					"type": "int256"
				},
				{
					"internalType": "int256",
					"name": "num2_",
					"type": "int256"
				}
			],
			"name": "substraction2",
			"outputs": [
				{
					"internalType": "int256",
					"name": "result_",
					"type": "int256"
				}
			],
			"stateMutability": "pure",
			"type": "function"
		},
		{
			"inputs": [
				{
					"internalType": "uint256",
					"name": "num1_",
					"type": "uint256"
				},
				{
					"internalType": "uint256",
					"name": "num2_",
					"type": "uint256"
				}
			],
			"name": "sum",
			"outputs": [
				{
					"internalType": "uint256",
					"name": "result_",
					"type": "uint256"
				}
			],
			"stateMutability": "nonpayable",
			"type": "function"
		}
	]
}