{
	"data": {
		"bytecode": {
			"linkReferences": {},
			"object": "608060405260015f55348015610013575f80fd5b50610543806100215f395ff3fe608060405234801561000f575f80fd5b5060043610610060575f3560e01c806305e30f51146100645780632efad6091461008057806365372147146100b0578063a1623dce146100ce578063cad0899b146100ea578063cdeb33141461011a575b5f80fd5b61007e6004803603810190610079919061029a565b61014a565b005b61009a600480360381019061009591906102f8565b61015f565b6040516100a79190610345565b60405180910390f35b6100b8610172565b6040516100c5919061036d565b60405180910390f35b6100e860048036038101906100e3919061029a565b610177565b005b61010460048036038101906100ff9190610386565b61019a565b604051610111919061036d565b60405180910390f35b610134600480360381019061012f9190610386565b6101eb565b604051610141919061036d565b60405180910390f35b805f5461015791906103f1565b5f8190555050565b5f61016a8383610239565b905092915050565b5f5481565b8060018114610184575f80fd5b815f5461019191906103f1565b5f819055505050565b5f81836101a79190610432565b90507fed389495059e3255c7a92671d5719bf4fd25064cd6bbbe911affd790ed68154183835f546040516101dd93929190610465565b60405180910390a192915050565b5f6101f6838361024e565b90507f02325f53408b10d20290d06f069ad56eb7ecae5db225e14d71cda2c523652c5b83838360405161022b93929190610465565b60405180910390a192915050565b5f8183610246919061049a565b905092915050565b5f818361025b91906104da565b905092915050565b5f80fd5b5f819050919050565b61027981610267565b8114610283575f80fd5b50565b5f8135905061029481610270565b92915050565b5f602082840312156102af576102ae610263565b5b5f6102bc84828501610286565b91505092915050565b5f819050919050565b6102d7816102c5565b81146102e1575f80fd5b50565b5f813590506102f2816102ce565b92915050565b5f806040838503121561030e5761030d610263565b5b5f61031b858286016102e4565b925050602061032c858286016102e4565b9150509250929050565b61033f816102c5565b82525050565b5f6020820190506103585f830184610336565b92915050565b61036781610267565b82525050565b5f6020820190506103805f83018461035e565b92915050565b5f806040838503121561039c5761039b610263565b5b5f6103a985828601610286565b92505060206103ba85828601610286565b9150509250929050565b7f4e487b71000000000000000000000000000000000000000000000000000000005f52601160045260245ffd5b5f6103fb82610267565b915061040683610267565b925082820261041481610267565b9150828204841483151761042b5761042a6103c4565b5b5092915050565b5f61043c82610267565b915061044783610267565b925082820190508082111561045f5761045e6103c4565b5b92915050565b5f6060820190506104785f83018661035e565b610485602083018561035e565b610492604083018461035e565b949350505050565b5f6104a4826102c5565b91506104af836102c5565b925082820390508181125f8412168282135f8512151617156104d4576104d36103c4565b5b92915050565b5f6104e482610267565b91506104ef83610267565b9250828203905081811115610507576105066103c4565b5b9291505056fea264697066735822122043776a1d927fa51e1bcb27dad7e812c70788f35723b3f8cb584be5d3754b691664736f6c63430008180033",
			"opcodes": "PUSH1 0x80 PUSH1 0x40 MSTORE PUSH1 0x1 PUSH0 SSTORE CALLVALUE DUP1 ISZERO PUSH2 0x13 JUMPI PUSH0 DUP1 REVERT JUMPDEST POP PUSH2 0x543 DUP1 PUSH2 0x21 PUSH0 CODECOPY PUSH0 RETURN INVALID PUSH1 0x80 PUSH1 0x40 MSTORE CALLVALUE DUP1 ISZERO PUSH2 0xF JUMPI PUSH0 DUP1 REVERT JUMPDEST POP PUSH1 0x4 CALLDATASIZE LT PUSH2 0x60 JUMPI PUSH0 CALLDATALOAD PUSH1 0xE0 SHR DUP1 PUSH4 0x5E30F51 EQ PUSH2 0x64 JUMPI DUP1 PUSH4 0x2EFAD609 EQ PUSH2 0x80 JUMPI DUP1 PUSH4 0x65372147 EQ PUSH2 0xB0 JUMPI DUP1 PUSH4 0xA1623DCE EQ PUSH2 0xCE JUMPI DUP1 PUSH4 0xCAD0899B EQ PUSH2 0xEA JUMPI DUP1 PUSH4 0xCDEB3314 EQ PUSH2 0x11A JUMPI JUMPDEST PUSH0 DUP1 REVERT JUMPDEST PUSH2 0x7E PUSH1 0x4 DUP1 CALLDATASIZE SUB DUP2 ADD SWAP1 PUSH2 0x79 SWAP2 SWAP1 PUSH2 0x29A JUMP JUMPDEST PUSH2 0x14A JUMP JUMPDEST STOP JUMPDEST PUSH2 0x9A PUSH1 0x4 DUP1 CALLDATASIZE SUB DUP2 ADD SWAP1 PUSH2 0x95 SWAP2 SWAP1 PUSH2 0x2F8 JUMP JUMPDEST PUSH2 0x15F JUMP JUMPDEST PUSH1 0x40 MLOAD PUSH2 0xA7 SWAP2 SWAP1 PUSH2 0x345 JUMP JUMPDEST PUSH1 0x40 MLOAD DUP1 SWAP2 SUB SWAP1 RETURN JUMPDEST PUSH2 0xB8 PUSH2 0x172 JUMP JUMPDEST PUSH1 0x40 MLOAD PUSH2 0xC5 SWAP2 SWAP1 PUSH2 0x36D JUMP JUMPDEST PUSH1 0x40 MLOAD DUP1 SWAP2 SUB SWAP1 RETURN JUMPDEST PUSH2 0xE8 PUSH1 0x4 DUP1 CALLDATASIZE SUB DUP2 ADD SWAP1 PUSH2 0xE3 SWAP2 SWAP1 PUSH2 0x29A JUMP JUMPDEST PUSH2 0x177 JUMP JUMPDEST STOP JUMPDEST PUSH2 0x104 PUSH1 0x4 DUP1 CALLDATASIZE SUB DUP2 ADD SWAP1 PUSH2 0xFF SWAP2 SWAP1 PUSH2 0x386 JUMP JUMPDEST PUSH2 0x19A JUMP JUMPDEST PUSH1 0x40 MLOAD PUSH2 0x111 SWAP2 SWAP1 PUSH2 0x36D JUMP JUMPDEST PUSH1 0x40 MLOAD DUP1 SWAP2 SUB SWAP1 RETURN JUMPDEST PUSH2 0x134 PUSH1 0x4 DUP1 CALLDATASIZE SUB DUP2 ADD SWAP1 PUSH2 0x12F SWAP2 SWAP1 PUSH2 0x386 JUMP JUMPDEST PUSH2 0x1EB JUMP JUMPDEST PUSH1 0x40 MLOAD PUSH2 0x141 SWAP2 SWAP1 PUSH2 0x36D JUMP JUMPDEST PUSH1 0x40 MLOAD DUP1 SWAP2 SUB SWAP1 RETURN JUMPDEST DUP1 PUSH0 SLOAD PUSH2 0x157 SWAP2 SWAP1 PUSH2 0x3F1 JUMP JUMPDEST PUSH0 DUP2 SWAP1 SSTORE POP POP JUMP JUMPDEST PUSH0 PUSH2 0x16A DUP4 DUP4 PUSH2 0x239 JUMP JUMPDEST SWAP1 POP SWAP3 SWAP2 POP POP JUMP JUMPDEST PUSH0 SLOAD DUP2 JUMP JUMPDEST DUP1 PUSH1 0x1 DUP2 EQ PUSH2 0x184 JUMPI PUSH0 DUP1 REVERT JUMPDEST DUP2 PUSH0 SLOAD PUSH2 0x191 SWAP2 SWAP1 PUSH2 0x3F1 JUMP JUMPDEST PUSH0 DUP2 SWAP1 SSTORE POP POP POP JUMP JUMPDEST PUSH0 DUP2 DUP4 PUSH2 0x1A7 SWAP2 SWAP1 PUSH2 0x432 JUMP JUMPDEST SWAP1 POP PUSH32 0xED389495059E3255C7A92671D5719BF4FD25064CD6BBBE911AFFD790ED681541 DUP4 DUP4 PUSH0 SLOAD PUSH1 0x40 MLOAD PUSH2 0x1DD SWAP4 SWAP3 SWAP2 SWAP1 PUSH2 0x465 JUMP JUMPDEST PUSH1 0x40 MLOAD DUP1 SWAP2 SUB SWAP1 LOG1 SWAP3 SWAP2 POP POP JUMP JUMPDEST PUSH0 PUSH2 0x1F6 DUP4 DUP4 PUSH2 0x24E JUMP JUMPDEST SWAP1 POP PUSH32 0x2325F53408B10D20290D06F069AD56EB7ECAE5DB225E14D71CDA2C523652C5B DUP4 DUP4 DUP4 PUSH1 0x40 MLOAD PUSH2 0x22B SWAP4 SWAP3 SWAP2 SWAP1 PUSH2 0x465 JUMP JUMPDEST PUSH1 0x40 MLOAD DUP1 SWAP2 SUB SWAP1 LOG1 SWAP3 SWAP2 POP POP JUMP JUMPDEST PUSH0 DUP2 DUP4 PUSH2 0x246 SWAP2 SWAP1 PUSH2 0x49A JUMP JUMPDEST SWAP1 POP SWAP3 SWAP2 POP POP JUMP JUMPDEST PUSH0 DUP2 DUP4 PUSH2 0x25B SWAP2 SWAP1 PUSH2 0x4DA JUMP JUMPDEST SWAP1 POP SWAP3 SWAP2 POP POP JUMP JUMPDEST PUSH0 DUP1 REVERT JUMPDEST PUSH0 DUP2 SWAP1 POP SWAP2 SWAP1 POP JUMP JUMPDEST PUSH2 0x279 DUP2 PUSH2 0x267 JUMP JUMPDEST DUP2 EQ PUSH2 0x283 JUMPI PUSH0 DUP1 REVERT JUMPDEST POP JUMP JUMPDEST PUSH0 DUP2 CALLDATALOAD SWAP1 POP PUSH2 0x294 DUP2 PUSH2 0x270 JUMP JUMPDEST SWAP3 SWAP2 POP POP JUMP JUMPDEST PUSH0 PUSH1 0x20 DUP3 DUP5 SUB SLT ISZERO PUSH2 0x2AF JUMPI PUSH2 0x2AE PUSH2 0x263 JUMP JUMPDEST JUMPDEST PUSH0 PUSH2 0x2BC DUP5 DUP3 DUP6 ADD PUSH2 0x286 JUMP JUMPDEST SWAP2 POP POP SWAP3 SWAP2 POP POP JUMP JUMPDEST PUSH0 DUP2 SWAP1 POP SWAP2 SWAP1 POP JUMP JUMPDEST PUSH2 0x2D7 DUP2 PUSH2 0x2C5 JUMP JUMPDEST DUP2 EQ PUSH2 0x2E1 JUMPI PUSH0 DUP1 REVERT JUMPDEST POP JUMP JUMPDEST PUSH0 DUP2 CALLDATALOAD SWAP1 POP PUSH2 0x2F2 DUP2 PUSH2 0x2CE JUMP JUMPDEST SWAP3 SWAP2 POP POP JUMP JUMPDEST PUSH0 DUP1 PUSH1 0x40 DUP4 DUP6 SUB SLT ISZERO PUSH2 0x30E JUMPI PUSH2 0x30D PUSH2 0x263 JUMP JUMPDEST JUMPDEST PUSH0 PUSH2 0x31B DUP6 DUP3 DUP7 ADD PUSH2 0x2E4 JUMP JUMPDEST SWAP3 POP POP PUSH1 0x20 PUSH2 0x32C DUP6 DUP3 DUP7 ADD PUSH2 0x2E4 JUMP JUMPDEST SWAP2 POP POP SWAP3 POP SWAP3 SWAP1 POP JUMP JUMPDEST PUSH2 0x33F DUP2 PUSH2 0x2C5 JUMP JUMPDEST DUP3 MSTORE POP POP JUMP JUMPDEST PUSH0 PUSH1 0x20 DUP3 ADD SWAP1 POP PUSH2 0x358 PUSH0 DUP4 ADD DUP5 PUSH2 0x336 JUMP JUMPDEST SWAP3 SWAP2 POP POP JUMP JUMPDEST PUSH2 0x367 DUP2 PUSH2 0x267 JUMP JUMPDEST DUP3 MSTORE POP POP JUMP JUMPDEST PUSH0 PUSH1 0x20 DUP3 ADD SWAP1 POP PUSH2 0x380 PUSH0 DUP4 ADD DUP5 PUSH2 0x35E JUMP JUMPDEST SWAP3 SWAP2 POP POP JUMP JUMPDEST PUSH0 DUP1 PUSH1 0x40 DUP4 DUP6 SUB SLT ISZERO PUSH2 0x39C JUMPI PUSH2 0x39B PUSH2 0x263 JUMP JUMPDEST JUMPDEST PUSH0 PUSH2 0x3A9 DUP6 DUP3 DUP7 ADD PUSH2 0x286 JUMP JUMPDEST SWAP3 POP POP PUSH1 0x20 PUSH2 0x3BA DUP6 DUP3 DUP7 ADD PUSH2 0x286 JUMP JUMPDEST SWAP2 POP POP SWAP3 POP SWAP3 SWAP1 POP JUMP JUMPDEST PUSH32 0x4E487B7100000000000000000000000000000000000000000000000000000000 PUSH0 MSTORE PUSH1 0x11 PUSH1 0x4 MSTORE PUSH1 0x24 PUSH0 REVERT JUMPDEST PUSH0 PUSH2 0x3FB DUP3 PUSH2 0x267 JUMP JUMPDEST SWAP2 POP PUSH2 0x406 DUP4 PUSH2 0x267 JUMP JUMPDEST SWAP3 POP DUP3 DUP3 MUL PUSH2 0x414 DUP2 PUSH2 0x267 JUMP JUMPDEST SWAP2 POP DUP3 DUP3 DIV DUP5 EQ DUP4 ISZERO OR PUSH2 0x42B JUMPI PUSH2 0x42A PUSH2 0x3C4 JUMP JUMPDEST JUMPDEST POP SWAP3 SWAP2 POP POP JUMP JUMPDEST PUSH0 PUSH2 0x43C DUP3 PUSH2 0x267 JUMP JUMPDEST SWAP2 POP PUSH2 0x447 DUP4 PUSH2 0x267 JUMP JUMPDEST SWAP3 POP DUP3 DUP3 ADD SWAP1 POP DUP1 DUP3 GT ISZERO PUSH2 0x45F JUMPI PUSH2 0x45E PUSH2 0x3C4 JUMP JUMPDEST JUMPDEST SWAP3 SWAP2 POP POP JUMP JUMPDEST PUSH0 PUSH1 0x60 DUP3 ADD SWAP1 POP PUSH2 0x478 PUSH0 DUP4 ADD DUP7 PUSH2 0x35E JUMP JUMPDEST PUSH2 0x485 PUSH1 0x20 DUP4 ADD DUP6 PUSH2 0x35E JUMP JUMPDEST PUSH2 0x492 PUSH1 0x40 DUP4 ADD DUP5 PUSH2 0x35E JUMP JUMPDEST SWAP5 SWAP4 POP POP POP POP JUMP JUMPDEST PUSH0 PUSH2 0x4A4 DUP3 PUSH2 0x2C5 JUMP JUMPDEST SWAP2 POP PUSH2 0x4AF DUP4 PUSH2 0x2C5 JUMP JUMPDEST SWAP3 POP DUP3 DUP3 SUB SWAP1 POP DUP2 DUP2 SLT PUSH0 DUP5 SLT AND DUP3 DUP3 SGT PUSH0 DUP6 SLT ISZERO AND OR ISZERO PUSH2 0x4D4 JUMPI PUSH2 0x4D3 PUSH2 0x3C4 JUMP JUMPDEST JUMPDEST SWAP3 SWAP2 POP POP JUMP JUMPDEST PUSH0 PUSH2 0x4E4 DUP3 PUSH2 0x267 JUMP JUMPDEST SWAP2 POP PUSH2 0x4EF DUP4 PUSH2 0x267 JUMP JUMPDEST SWAP3 POP DUP3 DUP3 SUB SWAP1 POP DUP2 DUP2 GT ISZERO PUSH2 0x507 JUMPI PUSH2 0x506 PUSH2 0x3C4 JUMP JUMPDEST JUMPDEST SWAP3 SWAP2 POP POP JUMP INVALID LOG2 PUSH5 0x6970667358 0x22 SLT KECCAK256 NUMBER PUSH24 0x6A1D927FA51E1BCB27DAD7E812C70788F35723B3F8CB584B 0xE5 0xD3 PUSH22 0x4B691664736F6C634300081800330000000000000000 "
		},
		"gasEstimates": {
			"creation": {
				"codeDepositCost": "269400",
				"executionCost": "22415",
				"totalCost": "291815"
			},
			"external": {
				"multiplier(uint256)": "infinite",
				"multiplier2(uint256)": "infinite",
				"result()": "2446",
				"substraction(uint256,uint256)": "infinite",
				"substraction2(int256,int256)": "infinite",
				"sum(uint256,uint256)": "infinite"
			},
			"internal": {
				"substraction_logic(uint256,uint256)": "infinite",
				"substraction_logic2(int256,int256)": "infinite"
			}
		},
		"methodIdentifiers": {
			"multiplier(uint256)": "05e30f51",
			"multiplier2(uint256)": "a1623dce",
			"result()": "65372147",
			"substraction(uint256,uint256)": "cdeb3314",
			"substraction2(int256,int256)": "2efad609",
			"sum(uint256,uint256)": "cad0899b"
		}
	},
	"abi": [
		{
			"anonymous": false,
			"inputs": [
				{
					"indexed": false,
					"internalType": "uint256",
					"name": "num1",
					"type": "uint256"
				},
				{
					"indexed": false,
					"internalType": "uint256",
					"name": "num2",
					"type": "uint256"
				},
				{
					"indexed": false,
					"internalType": "uint256",
					"name": "result",
					"type": "uint256"
				}
			],
			"name": "Substraction",
			"type": "event"
		},
		{
			"anonymous": false,
			"inputs": [
				{
					"indexed": false,
					"internalType": "uint256",
					"name": "num1",
					"type": "uint256"
				},
				{
					"indexed": false,
					"internalType": "uint256",
					"name": "num2",
					"type": "uint256"
				},
				{
					"indexed": false,
					"internalType": "uint256",
					"name": "result",
					"type": "uint256"
				}
			],
			"name": "Sum",
			"type": "event"
		},
		{
			"inputs": [
				{
					"internalType": "uint256",
					"name": "num1_",
					"type": "uint256"
				}
			],
			"name": "multiplier",
			"outputs": [],
			"stateMutability": "nonpayable",
			"type": "function"
		},
		{
			"inputs": [
				{
					"internalType": "uint256",
					"name": "num1_",
					"type": "uint256"
				}
			],
			"name": "multiplier2",
			"outputs": [],
			"stateMutability": "nonpayable",
			"type": "function"
		},
		{
			"inputs": [],
			"name": "result",
			"outputs": [
				{
					"internalType": "uint256",
					"name": "",
					"type": "uint256"
				}
			],
			"stateMutability": "view",
			"type": "function"
		},
		{
			"inputs": [
				{
					"internalType": "uint256",
					"name": "num1_",
					"type": "uint256"
				},
				{
					"internalType": "uint256",
					"name": "num2_",
					"type": "uint256"
				}
			],
			"name": "substraction",
			"outputs": [
				{
					"internalType": "uint256",
					"name": "result_",
					"type": "uint256"
				}
			],
			"stateMutability": "nonpayable",
			"type": "function"
		},
		{
			"inputs": [
				{
					"internalType": "int256",
					"name": "num1_",
					"type": "int256"
				},
				{
					"internalType": "int256",
					"name": "num2_",
					"type": "int256"
				}
			],
			"name": "substraction2",
			"outputs": [
				{
					"internalType": "int256",
					"name": "result_",
					"type": "int256"
				}
			],
			"stateMutability": "pure",
			"type": "function"
		},
		{
			"inputs": [
				{
					"internalType": "uint256",
					"name": "num1_",
					"type": "uint256"
				},
				{
					"internalType": "uint256",
					"name": "num2_",
					"type": "uint256"
				}
			],
			"name": "sum",
			"outputs": [
				{
					"internalType": "uint256",
					"name": "result_",
					"type": "uint256"
				}
			],
			"stateMutability": "nonpayable",
			"type": "function"
		}
	]
}