{
	"data": {
		"bytecode": {
			"linkReferences": {},
			"object": "608060405260015f55348015610013575f80fd5b50610b15806100215f395ff3fe608060405234801561000f575f80fd5b50600436106100b2575f3560e01c8063677342ce1161006f578063677342ce146101b0578063834ba3a7146101e0578063cad0899b14610210578063cba5477c14610240578063cdeb331414610270578063e0068052146102a0576100b2565b806305e30f51146100b65780632b7423ab146100d25780632efad609146101025780632f8cd8b11461013257806349175e4b146101625780636537214714610192575b5f80fd5b6100d060048036038101906100cb91906107b8565b6102d0565b005b6100ec60048036038101906100e791906107e3565b6102f2565b6040516100f99190610830565b60405180910390f35b61011c6004803603810190610117919061087c565b610321565b60405161012991906108c9565b60405180910390f35b61014c600480360381019061014791906107e3565b610334565b6040516101599190610830565b60405180910390f35b61017c600480360381019061017791906107e3565b6103bd565b6040516101899190610830565b60405180910390f35b61019a61042a565b6040516101a79190610830565b60405180910390f35b6101ca60048036038101906101c591906107b8565b61042f565b6040516101d79190610830565b60405180910390f35b6101fa60048036038101906101f591906107e3565b610487565b6040516102079190610830565b60405180910390f35b61022a600480360381019061022591906107e3565b6104f3565b6040516102379190610830565b60405180910390f35b61025a600480360381019061025591906107e3565b610544565b6040516102679190610830565b60405180910390f35b61028a600480360381019061028591906107e3565b6105ae565b6040516102979190610830565b60405180910390f35b6102ba60048036038101906102b591906107e3565b6105fc565b6040516102c79190610830565b60405180910390f35b805f81116102dc575f80fd5b815f546102e9919061090f565b5f819055505050565b5f82825f8211158061030457505f8111155b1561030d575f80fd5b6103178585610669565b9250505092915050565b5f61032c83836106c6565b905092915050565b5f82825f8211158061034657505f8111155b1561034f575f80fd5b600192505f5b84811015610378578584610369919061090f565b93508080600101915050610355565b507f8f88adbfbd9fac1a93415da25ad2a978a2ed5ecf0179be666a5c0aa82f8df26585855f546040516103ad93929190610950565b60405180910390a1505092915050565b5f82825f821115806103cf57505f8111155b156103d8575f80fd5b83856103e491906109b2565b92507fcfee31662af25188f47f9d61b42c3c6d09562d047aeb60b7d5734902f09a9dab85855f5460405161041a93929190610950565b60405180910390a1505092915050565b5f5481565b5f815f811161043c575f80fd5b610445836106db565b91507f26a1b23e060f39984a0f8126724012d0e30d422d48168fd724ca09b04bce02e0835f546040516104799291906109e2565b60405180910390a150919050565b5f82825f8211158061049957505f8111155b156104a2575f80fd5b83856104ae919061090f565b92507f335998e93ba3244a0211e8567928b9e75100151dc4bb0c7701d715ea462b279a8585856040516104e393929190610950565b60405180910390a1505092915050565b5f81836105009190610a09565b90507fed389495059e3255c7a92671d5719bf4fd25064cd6bbbe911affd790ed68154183835f5460405161053693929190610950565b60405180910390a192915050565b5f82825f8211158061055657505f8111155b1561055f575f80fd5b6105698585610752565b92507eae92cff874140cbe97e7efc6ffd3c3dd667ee2b4c69fa357765af8fcf4d80485855f5460405161059e93929190610950565b60405180910390a1505092915050565b5f6105b9838361076c565b90507f02325f53408b10d20290d06f069ad56eb7ecae5db225e14d71cda2c523652c5b8383836040516105ee93929190610950565b60405180910390a192915050565b5f82825f8211158061060e57505f8111155b15610617575f80fd5b83856106239190610a3c565b92507fd8ef84f712e41d28f98fe74cd153013023d849514d0a40ee61834f3c385055ce85855f5460405161065993929190610950565b60405180910390a1505092915050565b5f600282846106789190610a09565b6106829190610a3c565b90507f71f9bbe40e9c99d1bc6b2a11e8a7b97bceb63804cdea6bc30f96f2a0eb12ecd483835f546040516106b893929190610950565b60405180910390a192915050565b5f81836106d39190610a6c565b905092915050565b5f6003821115610740578190505f60016002846106f89190610a3c565b6107029190610a09565b90505b8181101561073a57809150600281828561071f9190610a3c565b6107299190610a09565b6107339190610a3c565b9050610705565b5061074d565b5f821461074c57600190505b5b919050565b5f81831061076257829050610766565b8190505b92915050565b5f81836107799190610aac565b905092915050565b5f80fd5b5f819050919050565b61079781610785565b81146107a1575f80fd5b50565b5f813590506107b28161078e565b92915050565b5f602082840312156107cd576107cc610781565b5b5f6107da848285016107a4565b91505092915050565b5f80604083850312156107f9576107f8610781565b5b5f610806858286016107a4565b9250506020610817858286016107a4565b9150509250929050565b61082a81610785565b82525050565b5f6020820190506108435f830184610821565b92915050565b5f819050919050565b61085b81610849565b8114610865575f80fd5b50565b5f8135905061087681610852565b92915050565b5f806040838503121561089257610891610781565b5b5f61089f85828601610868565b92505060206108b085828601610868565b9150509250929050565b6108c381610849565b82525050565b5f6020820190506108dc5f8301846108ba565b92915050565b7f4e487b71000000000000000000000000000000000000000000000000000000005f52601160045260245ffd5b5f61091982610785565b915061092483610785565b925082820261093281610785565b91508282048414831517610949576109486108e2565b5b5092915050565b5f6060820190506109635f830186610821565b6109706020830185610821565b61097d6040830184610821565b949350505050565b7f4e487b71000000000000000000000000000000000000000000000000000000005f52601260045260245ffd5b5f6109bc82610785565b91506109c783610785565b9250826109d7576109d6610985565b5b828206905092915050565b5f6040820190506109f55f830185610821565b610a026020830184610821565b9392505050565b5f610a1382610785565b9150610a1e83610785565b9250828201905080821115610a3657610a356108e2565b5b92915050565b5f610a4682610785565b9150610a5183610785565b925082610a6157610a60610985565b5b828204905092915050565b5f610a7682610849565b9150610a8183610849565b925082820390508181125f8412168282135f851215161715610aa657610aa56108e2565b5b92915050565b5f610ab682610785565b9150610ac183610785565b9250828203905081811115610ad957610ad86108e2565b5b9291505056fea2646970667358221220c54d123bfeb762e386f70fa2540500091badb1a0482b7141a55324a27fc4917864736f6c63430008180033",
			"opcodes": "PUSH1 0x80 PUSH1 0x40 MSTORE PUSH1 0x1 PUSH0 SSTORE CALLVALUE DUP1 ISZERO PUSH2 0x13 JUMPI PUSH0 DUP1 REVERT JUMPDEST POP PUSH2 0xB15 DUP1 PUSH2 0x21 PUSH0 CODECOPY PUSH0 RETURN INVALID PUSH1 0x80 PUSH1 0x40 MSTORE CALLVALUE DUP1 ISZERO PUSH2 0xF JUMPI PUSH0 DUP1 REVERT JUMPDEST POP PUSH1 0x4 CALLDATASIZE LT PUSH2 0xB2 JUMPI PUSH0 CALLDATALOAD PUSH1 0xE0 SHR DUP1 PUSH4 0x677342CE GT PUSH2 0x6F JUMPI DUP1 PUSH4 0x677342CE EQ PUSH2 0x1B0 JUMPI DUP1 PUSH4 0x834BA3A7 EQ PUSH2 0x1E0 JUMPI DUP1 PUSH4 0xCAD0899B EQ PUSH2 0x210 JUMPI DUP1 PUSH4 0xCBA5477C EQ PUSH2 0x240 JUMPI DUP1 PUSH4 0xCDEB3314 EQ PUSH2 0x270 JUMPI DUP1 PUSH4 0xE0068052 EQ PUSH2 0x2A0 JUMPI PUSH2 0xB2 JUMP JUMPDEST DUP1 PUSH4 0x5E30F51 EQ PUSH2 0xB6 JUMPI DUP1 PUSH4 0x2B7423AB EQ PUSH2 0xD2 JUMPI DUP1 PUSH4 0x2EFAD609 EQ PUSH2 0x102 JUMPI DUP1 PUSH4 0x2F8CD8B1 EQ PUSH2 0x132 JUMPI DUP1 PUSH4 0x49175E4B EQ PUSH2 0x162 JUMPI DUP1 PUSH4 0x65372147 EQ PUSH2 0x192 JUMPI JUMPDEST PUSH0 DUP1 REVERT JUMPDEST PUSH2 0xD0 PUSH1 0x4 DUP1 CALLDATASIZE SUB DUP2 ADD SWAP1 PUSH2 0xCB SWAP2 SWAP1 PUSH2 0x7B8 JUMP JUMPDEST PUSH2 0x2D0 JUMP JUMPDEST STOP JUMPDEST PUSH2 0xEC PUSH1 0x4 DUP1 CALLDATASIZE SUB DUP2 ADD SWAP1 PUSH2 0xE7 SWAP2 SWAP1 PUSH2 0x7E3 JUMP JUMPDEST PUSH2 0x2F2 JUMP JUMPDEST PUSH1 0x40 MLOAD PUSH2 0xF9 SWAP2 SWAP1 PUSH2 0x830 JUMP JUMPDEST PUSH1 0x40 MLOAD DUP1 SWAP2 SUB SWAP1 RETURN JUMPDEST PUSH2 0x11C PUSH1 0x4 DUP1 CALLDATASIZE SUB DUP2 ADD SWAP1 PUSH2 0x117 SWAP2 SWAP1 PUSH2 0x87C JUMP JUMPDEST PUSH2 0x321 JUMP JUMPDEST PUSH1 0x40 MLOAD PUSH2 0x129 SWAP2 SWAP1 PUSH2 0x8C9 JUMP JUMPDEST PUSH1 0x40 MLOAD DUP1 SWAP2 SUB SWAP1 RETURN JUMPDEST PUSH2 0x14C PUSH1 0x4 DUP1 CALLDATASIZE SUB DUP2 ADD SWAP1 PUSH2 0x147 SWAP2 SWAP1 PUSH2 0x7E3 JUMP JUMPDEST PUSH2 0x334 JUMP JUMPDEST PUSH1 0x40 MLOAD PUSH2 0x159 SWAP2 SWAP1 PUSH2 0x830 JUMP JUMPDEST PUSH1 0x40 MLOAD DUP1 SWAP2 SUB SWAP1 RETURN JUMPDEST PUSH2 0x17C PUSH1 0x4 DUP1 CALLDATASIZE SUB DUP2 ADD SWAP1 PUSH2 0x177 SWAP2 SWAP1 PUSH2 0x7E3 JUMP JUMPDEST PUSH2 0x3BD JUMP JUMPDEST PUSH1 0x40 MLOAD PUSH2 0x189 SWAP2 SWAP1 PUSH2 0x830 JUMP JUMPDEST PUSH1 0x40 MLOAD DUP1 SWAP2 SUB SWAP1 RETURN JUMPDEST PUSH2 0x19A PUSH2 0x42A JUMP JUMPDEST PUSH1 0x40 MLOAD PUSH2 0x1A7 SWAP2 SWAP1 PUSH2 0x830 JUMP JUMPDEST PUSH1 0x40 MLOAD DUP1 SWAP2 SUB SWAP1 RETURN JUMPDEST PUSH2 0x1CA PUSH1 0x4 DUP1 CALLDATASIZE SUB DUP2 ADD SWAP1 PUSH2 0x1C5 SWAP2 SWAP1 PUSH2 0x7B8 JUMP JUMPDEST PUSH2 0x42F JUMP JUMPDEST PUSH1 0x40 MLOAD PUSH2 0x1D7 SWAP2 SWAP1 PUSH2 0x830 JUMP JUMPDEST PUSH1 0x40 MLOAD DUP1 SWAP2 SUB SWAP1 RETURN JUMPDEST PUSH2 0x1FA PUSH1 0x4 DUP1 CALLDATASIZE SUB DUP2 ADD SWAP1 PUSH2 0x1F5 SWAP2 SWAP1 PUSH2 0x7E3 JUMP JUMPDEST PUSH2 0x487 JUMP JUMPDEST PUSH1 0x40 MLOAD PUSH2 0x207 SWAP2 SWAP1 PUSH2 0x830 JUMP JUMPDEST PUSH1 0x40 MLOAD DUP1 SWAP2 SUB SWAP1 RETURN JUMPDEST PUSH2 0x22A PUSH1 0x4 DUP1 CALLDATASIZE SUB DUP2 ADD SWAP1 PUSH2 0x225 SWAP2 SWAP1 PUSH2 0x7E3 JUMP JUMPDEST PUSH2 0x4F3 JUMP JUMPDEST PUSH1 0x40 MLOAD PUSH2 0x237 SWAP2 SWAP1 PUSH2 0x830 JUMP JUMPDEST PUSH1 0x40 MLOAD DUP1 SWAP2 SUB SWAP1 RETURN JUMPDEST PUSH2 0x25A PUSH1 0x4 DUP1 CALLDATASIZE SUB DUP2 ADD SWAP1 PUSH2 0x255 SWAP2 SWAP1 PUSH2 0x7E3 JUMP JUMPDEST PUSH2 0x544 JUMP JUMPDEST PUSH1 0x40 MLOAD PUSH2 0x267 SWAP2 SWAP1 PUSH2 0x830 JUMP JUMPDEST PUSH1 0x40 MLOAD DUP1 SWAP2 SUB SWAP1 RETURN JUMPDEST PUSH2 0x28A PUSH1 0x4 DUP1 CALLDATASIZE SUB DUP2 ADD SWAP1 PUSH2 0x285 SWAP2 SWAP1 PUSH2 0x7E3 JUMP JUMPDEST PUSH2 0x5AE JUMP JUMPDEST PUSH1 0x40 MLOAD PUSH2 0x297 SWAP2 SWAP1 PUSH2 0x830 JUMP JUMPDEST PUSH1 0x40 MLOAD DUP1 SWAP2 SUB SWAP1 RETURN JUMPDEST PUSH2 0x2BA PUSH1 0x4 DUP1 CALLDATASIZE SUB DUP2 ADD SWAP1 PUSH2 0x2B5 SWAP2 SWAP1 PUSH2 0x7E3 JUMP JUMPDEST PUSH2 0x5FC JUMP JUMPDEST PUSH1 0x40 MLOAD PUSH2 0x2C7 SWAP2 SWAP1 PUSH2 0x830 JUMP JUMPDEST PUSH1 0x40 MLOAD DUP1 SWAP2 SUB SWAP1 RETURN JUMPDEST DUP1 PUSH0 DUP2 GT PUSH2 0x2DC JUMPI PUSH0 DUP1 REVERT JUMPDEST DUP2 PUSH0 SLOAD PUSH2 0x2E9 SWAP2 SWAP1 PUSH2 0x90F JUMP JUMPDEST PUSH0 DUP2 SWAP1 SSTORE POP POP POP JUMP JUMPDEST PUSH0 DUP3 DUP3 PUSH0 DUP3 GT ISZERO DUP1 PUSH2 0x304 JUMPI POP PUSH0 DUP2 GT ISZERO JUMPDEST ISZERO PUSH2 0x30D JUMPI PUSH0 DUP1 REVERT JUMPDEST PUSH2 0x317 DUP6 DUP6 PUSH2 0x669 JUMP JUMPDEST SWAP3 POP POP POP SWAP3 SWAP2 POP POP JUMP JUMPDEST PUSH0 PUSH2 0x32C DUP4 DUP4 PUSH2 0x6C6 JUMP JUMPDEST SWAP1 POP SWAP3 SWAP2 POP POP JUMP JUMPDEST PUSH0 DUP3 DUP3 PUSH0 DUP3 GT ISZERO DUP1 PUSH2 0x346 JUMPI POP PUSH0 DUP2 GT ISZERO JUMPDEST ISZERO PUSH2 0x34F JUMPI PUSH0 DUP1 REVERT JUMPDEST PUSH1 0x1 SWAP3 POP PUSH0 JUMPDEST DUP5 DUP2 LT ISZERO PUSH2 0x378 JUMPI DUP6 DUP5 PUSH2 0x369 SWAP2 SWAP1 PUSH2 0x90F JUMP JUMPDEST SWAP4 POP DUP1 DUP1 PUSH1 0x1 ADD SWAP2 POP POP PUSH2 0x355 JUMP JUMPDEST POP PUSH32 0x8F88ADBFBD9FAC1A93415DA25AD2A978A2ED5ECF0179BE666A5C0AA82F8DF265 DUP6 DUP6 PUSH0 SLOAD PUSH1 0x40 MLOAD PUSH2 0x3AD SWAP4 SWAP3 SWAP2 SWAP1 PUSH2 0x950 JUMP JUMPDEST PUSH1 0x40 MLOAD DUP1 SWAP2 SUB SWAP1 LOG1 POP POP SWAP3 SWAP2 POP POP JUMP JUMPDEST PUSH0 DUP3 DUP3 PUSH0 DUP3 GT ISZERO DUP1 PUSH2 0x3CF JUMPI POP PUSH0 DUP2 GT ISZERO JUMPDEST ISZERO PUSH2 0x3D8 JUMPI PUSH0 DUP1 REVERT JUMPDEST DUP4 DUP6 PUSH2 0x3E4 SWAP2 SWAP1 PUSH2 0x9B2 JUMP JUMPDEST SWAP3 POP PUSH32 0xCFEE31662AF25188F47F9D61B42C3C6D09562D047AEB60B7D5734902F09A9DAB DUP6 DUP6 PUSH0 SLOAD PUSH1 0x40 MLOAD PUSH2 0x41A SWAP4 SWAP3 SWAP2 SWAP1 PUSH2 0x950 JUMP JUMPDEST PUSH1 0x40 MLOAD DUP1 SWAP2 SUB SWAP1 LOG1 POP POP SWAP3 SWAP2 POP POP JUMP JUMPDEST PUSH0 SLOAD DUP2 JUMP JUMPDEST PUSH0 DUP2 PUSH0 DUP2 GT PUSH2 0x43C JUMPI PUSH0 DUP1 REVERT JUMPDEST PUSH2 0x445 DUP4 PUSH2 0x6DB JUMP JUMPDEST SWAP2 POP PUSH32 0x26A1B23E060F39984A0F8126724012D0E30D422D48168FD724CA09B04BCE02E0 DUP4 PUSH0 SLOAD PUSH1 0x40 MLOAD PUSH2 0x479 SWAP3 SWAP2 SWAP1 PUSH2 0x9E2 JUMP JUMPDEST PUSH1 0x40 MLOAD DUP1 SWAP2 SUB SWAP1 LOG1 POP SWAP2 SWAP1 POP JUMP JUMPDEST PUSH0 DUP3 DUP3 PUSH0 DUP3 GT ISZERO DUP1 PUSH2 0x499 JUMPI POP PUSH0 DUP2 GT ISZERO JUMPDEST ISZERO PUSH2 0x4A2 JUMPI PUSH0 DUP1 REVERT JUMPDEST DUP4 DUP6 PUSH2 0x4AE SWAP2 SWAP1 PUSH2 0x90F JUMP JUMPDEST SWAP3 POP PUSH32 0x335998E93BA3244A0211E8567928B9E75100151DC4BB0C7701D715EA462B279A DUP6 DUP6 DUP6 PUSH1 0x40 MLOAD PUSH2 0x4E3 SWAP4 SWAP3 SWAP2 SWAP1 PUSH2 0x950 JUMP JUMPDEST PUSH1 0x40 MLOAD DUP1 SWAP2 SUB SWAP1 LOG1 POP POP SWAP3 SWAP2 POP POP JUMP JUMPDEST PUSH0 DUP2 DUP4 PUSH2 0x500 SWAP2 SWAP1 PUSH2 0xA09 JUMP JUMPDEST SWAP1 POP PUSH32 0xED389495059E3255C7A92671D5719BF4FD25064CD6BBBE911AFFD790ED681541 DUP4 DUP4 PUSH0 SLOAD PUSH1 0x40 MLOAD PUSH2 0x536 SWAP4 SWAP3 SWAP2 SWAP1 PUSH2 0x950 JUMP JUMPDEST PUSH1 0x40 MLOAD DUP1 SWAP2 SUB SWAP1 LOG1 SWAP3 SWAP2 POP POP JUMP JUMPDEST PUSH0 DUP3 DUP3 PUSH0 DUP3 GT ISZERO DUP1 PUSH2 0x556 JUMPI POP PUSH0 DUP2 GT ISZERO JUMPDEST ISZERO PUSH2 0x55F JUMPI PUSH0 DUP1 REVERT JUMPDEST PUSH2 0x569 DUP6 DUP6 PUSH2 0x752 JUMP JUMPDEST SWAP3 POP PUSH31 0xAE92CFF874140CBE97E7EFC6FFD3C3DD667EE2B4C69FA357765AF8FCF4D804 DUP6 DUP6 PUSH0 SLOAD PUSH1 0x40 MLOAD PUSH2 0x59E SWAP4 SWAP3 SWAP2 SWAP1 PUSH2 0x950 JUMP JUMPDEST PUSH1 0x40 MLOAD DUP1 SWAP2 SUB SWAP1 LOG1 POP POP SWAP3 SWAP2 POP POP JUMP JUMPDEST PUSH0 PUSH2 0x5B9 DUP4 DUP4 PUSH2 0x76C JUMP JUMPDEST SWAP1 POP PUSH32 0x2325F53408B10D20290D06F069AD56EB7ECAE5DB225E14D71CDA2C523652C5B DUP4 DUP4 DUP4 PUSH1 0x40 MLOAD PUSH2 0x5EE SWAP4 SWAP3 SWAP2 SWAP1 PUSH2 0x950 JUMP JUMPDEST PUSH1 0x40 MLOAD DUP1 SWAP2 SUB SWAP1 LOG1 SWAP3 SWAP2 POP POP JUMP JUMPDEST PUSH0 DUP3 DUP3 PUSH0 DUP3 GT ISZERO DUP1 PUSH2 0x60E JUMPI POP PUSH0 DUP2 GT ISZERO JUMPDEST ISZERO PUSH2 0x617 JUMPI PUSH0 DUP1 REVERT JUMPDEST DUP4 DUP6 PUSH2 0x623 SWAP2 SWAP1 PUSH2 0xA3C JUMP JUMPDEST SWAP3 POP PUSH32 0xD8EF84F712E41D28F98FE74CD153013023D849514D0A40EE61834F3C385055CE DUP6 DUP6 PUSH0 SLOAD PUSH1 0x40 MLOAD PUSH2 0x659 SWAP4 SWAP3 SWAP2 SWAP1 PUSH2 0x950 JUMP JUMPDEST PUSH1 0x40 MLOAD DUP1 SWAP2 SUB SWAP1 LOG1 POP POP SWAP3 SWAP2 POP POP JUMP JUMPDEST PUSH0 PUSH1 0x2 DUP3 DUP5 PUSH2 0x678 SWAP2 SWAP1 PUSH2 0xA09 JUMP JUMPDEST PUSH2 0x682 SWAP2 SWAP1 PUSH2 0xA3C JUMP JUMPDEST SWAP1 POP PUSH32 0x71F9BBE40E9C99D1BC6B2A11E8A7B97BCEB63804CDEA6BC30F96F2A0EB12ECD4 DUP4 DUP4 PUSH0 SLOAD PUSH1 0x40 MLOAD PUSH2 0x6B8 SWAP4 SWAP3 SWAP2 SWAP1 PUSH2 0x950 JUMP JUMPDEST PUSH1 0x40 MLOAD DUP1 SWAP2 SUB SWAP1 LOG1 SWAP3 SWAP2 POP POP JUMP JUMPDEST PUSH0 DUP2 DUP4 PUSH2 0x6D3 SWAP2 SWAP1 PUSH2 0xA6C JUMP JUMPDEST SWAP1 POP SWAP3 SWAP2 POP POP JUMP JUMPDEST PUSH0 PUSH1 0x3 DUP3 GT ISZERO PUSH2 0x740 JUMPI DUP2 SWAP1 POP PUSH0 PUSH1 0x1 PUSH1 0x2 DUP5 PUSH2 0x6F8 SWAP2 SWAP1 PUSH2 0xA3C JUMP JUMPDEST PUSH2 0x702 SWAP2 SWAP1 PUSH2 0xA09 JUMP JUMPDEST SWAP1 POP JUMPDEST DUP2 DUP2 LT ISZERO PUSH2 0x73A JUMPI DUP1 SWAP2 POP PUSH1 0x2 DUP2 DUP3 DUP6 PUSH2 0x71F SWAP2 SWAP1 PUSH2 0xA3C JUMP JUMPDEST PUSH2 0x729 SWAP2 SWAP1 PUSH2 0xA09 JUMP JUMPDEST PUSH2 0x733 SWAP2 SWAP1 PUSH2 0xA3C JUMP JUMPDEST SWAP1 POP PUSH2 0x705 JUMP JUMPDEST POP PUSH2 0x74D JUMP JUMPDEST PUSH0 DUP3 EQ PUSH2 0x74C JUMPI PUSH1 0x1 SWAP1 POP JUMPDEST JUMPDEST SWAP2 SWAP1 POP JUMP JUMPDEST PUSH0 DUP2 DUP4 LT PUSH2 0x762 JUMPI DUP3 SWAP1 POP PUSH2 0x766 JUMP JUMPDEST DUP2 SWAP1 POP JUMPDEST SWAP3 SWAP2 POP POP JUMP JUMPDEST PUSH0 DUP2 DUP4 PUSH2 0x779 SWAP2 SWAP1 PUSH2 0xAAC JUMP JUMPDEST SWAP1 POP SWAP3 SWAP2 POP POP JUMP JUMPDEST PUSH0 DUP1 REVERT JUMPDEST PUSH0 DUP2 SWAP1 POP SWAP2 SWAP1 POP JUMP JUMPDEST PUSH2 0x797 DUP2 PUSH2 0x785 JUMP JUMPDEST DUP2 EQ PUSH2 0x7A1 JUMPI PUSH0 DUP1 REVERT JUMPDEST POP JUMP JUMPDEST PUSH0 DUP2 CALLDATALOAD SWAP1 POP PUSH2 0x7B2 DUP2 PUSH2 0x78E JUMP JUMPDEST SWAP3 SWAP2 POP POP JUMP JUMPDEST PUSH0 PUSH1 0x20 DUP3 DUP5 SUB SLT ISZERO PUSH2 0x7CD JUMPI PUSH2 0x7CC PUSH2 0x781 JUMP JUMPDEST JUMPDEST PUSH0 PUSH2 0x7DA DUP5 DUP3 DUP6 ADD PUSH2 0x7A4 JUMP JUMPDEST SWAP2 POP POP SWAP3 SWAP2 POP POP JUMP JUMPDEST PUSH0 DUP1 PUSH1 0x40 DUP4 DUP6 SUB SLT ISZERO PUSH2 0x7F9 JUMPI PUSH2 0x7F8 PUSH2 0x781 JUMP JUMPDEST JUMPDEST PUSH0 PUSH2 0x806 DUP6 DUP3 DUP7 ADD PUSH2 0x7A4 JUMP JUMPDEST SWAP3 POP POP PUSH1 0x20 PUSH2 0x817 DUP6 DUP3 DUP7 ADD PUSH2 0x7A4 JUMP JUMPDEST SWAP2 POP POP SWAP3 POP SWAP3 SWAP1 POP JUMP JUMPDEST PUSH2 0x82A DUP2 PUSH2 0x785 JUMP JUMPDEST DUP3 MSTORE POP POP JUMP JUMPDEST PUSH0 PUSH1 0x20 DUP3 ADD SWAP1 POP PUSH2 0x843 PUSH0 DUP4 ADD DUP5 PUSH2 0x821 JUMP JUMPDEST SWAP3 SWAP2 POP POP JUMP JUMPDEST PUSH0 DUP2 SWAP1 POP SWAP2 SWAP1 POP JUMP JUMPDEST PUSH2 0x85B DUP2 PUSH2 0x849 JUMP JUMPDEST DUP2 EQ PUSH2 0x865 JUMPI PUSH0 DUP1 REVERT JUMPDEST POP JUMP JUMPDEST PUSH0 DUP2 CALLDATALOAD SWAP1 POP PUSH2 0x876 DUP2 PUSH2 0x852 JUMP JUMPDEST SWAP3 SWAP2 POP POP JUMP JUMPDEST PUSH0 DUP1 PUSH1 0x40 DUP4 DUP6 SUB SLT ISZERO PUSH2 0x892 JUMPI PUSH2 0x891 PUSH2 0x781 JUMP JUMPDEST JUMPDEST PUSH0 PUSH2 0x89F DUP6 DUP3 DUP7 ADD PUSH2 0x868 JUMP JUMPDEST SWAP3 POP POP PUSH1 0x20 PUSH2 0x8B0 DUP6 DUP3 DUP7 ADD PUSH2 0x868 JUMP JUMPDEST SWAP2 POP POP SWAP3 POP SWAP3 SWAP1 POP JUMP JUMPDEST PUSH2 0x8C3 DUP2 PUSH2 0x849 JUMP JUMPDEST DUP3 MSTORE POP POP JUMP JUMPDEST PUSH0 PUSH1 0x20 DUP3 ADD SWAP1 POP PUSH2 0x8DC PUSH0 DUP4 ADD DUP5 PUSH2 0x8BA JUMP JUMPDEST SWAP3 SWAP2 POP POP JUMP JUMPDEST PUSH32 0x4E487B7100000000000000000000000000000000000000000000000000000000 PUSH0 MSTORE PUSH1 0x11 PUSH1 0x4 MSTORE PUSH1 0x24 PUSH0 REVERT JUMPDEST PUSH0 PUSH2 0x919 DUP3 PUSH2 0x785 JUMP JUMPDEST SWAP2 POP PUSH2 0x924 DUP4 PUSH2 0x785 JUMP JUMPDEST SWAP3 POP DUP3 DUP3 MUL PUSH2 0x932 DUP2 PUSH2 0x785 JUMP JUMPDEST SWAP2 POP DUP3 DUP3 DIV DUP5 EQ DUP4 ISZERO OR PUSH2 0x949 JUMPI PUSH2 0x948 PUSH2 0x8E2 JUMP JUMPDEST JUMPDEST POP SWAP3 SWAP2 POP POP JUMP JUMPDEST PUSH0 PUSH1 0x60 DUP3 ADD SWAP1 POP PUSH2 0x963 PUSH0 DUP4 ADD DUP7 PUSH2 0x821 JUMP JUMPDEST PUSH2 0x970 PUSH1 0x20 DUP4 ADD DUP6 PUSH2 0x821 JUMP JUMPDEST PUSH2 0x97D PUSH1 0x40 DUP4 ADD DUP5 PUSH2 0x821 JUMP JUMPDEST SWAP5 SWAP4 POP POP POP POP JUMP JUMPDEST PUSH32 0x4E487B7100000000000000000000000000000000000000000000000000000000 PUSH0 MSTORE PUSH1 0x12 PUSH1 0x4 MSTORE PUSH1 0x24 PUSH0 REVERT JUMPDEST PUSH0 PUSH2 0x9BC DUP3 PUSH2 0x785 JUMP JUMPDEST SWAP2 POP PUSH2 0x9C7 DUP4 PUSH2 0x785 JUMP JUMPDEST SWAP3 POP DUP3 PUSH2 0x9D7 JUMPI PUSH2 0x9D6 PUSH2 0x985 JUMP JUMPDEST JUMPDEST DUP3 DUP3 MOD SWAP1 POP SWAP3 SWAP2 POP POP JUMP JUMPDEST PUSH0 PUSH1 0x40 DUP3 ADD SWAP1 POP PUSH2 0x9F5 PUSH0 DUP4 ADD DUP6 PUSH2 0x821 JUMP JUMPDEST PUSH2 0xA02 PUSH1 0x20 DUP4 ADD DUP5 PUSH2 0x821 JUMP JUMPDEST SWAP4 SWAP3 POP POP POP JUMP JUMPDEST PUSH0 PUSH2 0xA13 DUP3 PUSH2 0x785 JUMP JUMPDEST SWAP2 POP PUSH2 0xA1E DUP4 PUSH2 0x785 JUMP JUMPDEST SWAP3 POP DUP3 DUP3 ADD SWAP1 POP DUP1 DUP3 GT ISZERO PUSH2 0xA36 JUMPI PUSH2 0xA35 PUSH2 0x8E2 JUMP JUMPDEST JUMPDEST SWAP3 SWAP2 POP POP JUMP JUMPDEST PUSH0 PUSH2 0xA46 DUP3 PUSH2 0x785 JUMP JUMPDEST SWAP2 POP PUSH2 0xA51 DUP4 PUSH2 0x785 JUMP JUMPDEST SWAP3 POP DUP3 PUSH2 0xA61 JUMPI PUSH2 0xA60 PUSH2 0x985 JUMP JUMPDEST JUMPDEST DUP3 DUP3 DIV SWAP1 POP SWAP3 SWAP2 POP POP JUMP JUMPDEST PUSH0 PUSH2 0xA76 DUP3 PUSH2 0x849 JUMP JUMPDEST SWAP2 POP PUSH2 0xA81 DUP4 PUSH2 0x849 JUMP JUMPDEST SWAP3 POP DUP3 DUP3 SUB SWAP1 POP DUP2 DUP2 SLT PUSH0 DUP5 SLT AND DUP3 DUP3 SGT PUSH0 DUP6 SLT ISZERO AND OR ISZERO PUSH2 0xAA6 JUMPI PUSH2 0xAA5 PUSH2 0x8E2 JUMP JUMPDEST JUMPDEST SWAP3 SWAP2 POP POP JUMP JUMPDEST PUSH0 PUSH2 0xAB6 DUP3 PUSH2 0x785 JUMP JUMPDEST SWAP2 POP PUSH2 0xAC1 DUP4 PUSH2 0x785 JUMP JUMPDEST SWAP3 POP DUP3 DUP3 SUB SWAP1 POP DUP2 DUP2 GT ISZERO PUSH2 0xAD9 JUMPI PUSH2 0xAD8 PUSH2 0x8E2 JUMP JUMPDEST JUMPDEST SWAP3 SWAP2 POP POP JUMP INVALID LOG2 PUSH5 0x6970667358 0x22 SLT KECCAK256 0xC5 0x4D SLT EXTCODESIZE INVALID 0xB7 PUSH3 0xE386F7 0xF LOG2 SLOAD SDIV STOP MULMOD SHL 0xAD 0xB1 LOG0 BASEFEE 0x2B PUSH18 0x41A55324A27FC4917864736F6C6343000818 STOP CALLER "
		},
		"gasEstimates": {
			"creation": {
				"codeDepositCost": "567400",
				"executionCost": "22703",
				"totalCost": "590103"
			},
			"external": {
				"average(uint256,uint256)": "infinite",
				"division(uint256,uint256)": "infinite",
				"exponent(uint256,uint256)": "infinite",
				"maximum(uint256,uint256)": "infinite",
				"module(uint256,uint256)": "infinite",
				"multiplier(uint256)": "infinite",
				"multiplier2(uint256,uint256)": "infinite",
				"result()": "2535",
				"sqrt(uint256)": "infinite",
				"substraction(uint256,uint256)": "infinite",
				"substraction2(int256,int256)": "infinite",
				"sum(uint256,uint256)": "infinite"
			},
			"internal": {
				"average_logic(uint256,uint256)": "infinite",
				"maximum_logic(uint256,uint256)": "63",
				"sqrt_logic(uint256)": "infinite",
				"substraction_logic(uint256,uint256)": "infinite",
				"substraction_logic2(int256,int256)": "infinite"
			}
		},
		"methodIdentifiers": {
			"average(uint256,uint256)": "2b7423ab",
			"division(uint256,uint256)": "e0068052",
			"exponent(uint256,uint256)": "2f8cd8b1",
			"maximum(uint256,uint256)": "cba5477c",
			"module(uint256,uint256)": "49175e4b",
			"multiplier(uint256)": "05e30f51",
			"multiplier2(uint256,uint256)": "834ba3a7",
			"result()": "65372147",
			"sqrt(uint256)": "677342ce",
			"substraction(uint256,uint256)": "cdeb3314",
			"substraction2(int256,int256)": "2efad609",
			"sum(uint256,uint256)": "cad0899b"
		}
	},
	"abi": [
		{
			"anonymous": false,
			"inputs": [
				{
					"indexed": false,
					"internalType": "uint256",
					"name": "num1",
					"type": "uint256"
				},
				{
					"indexed": false,
					"internalType": "uint256",
					"name": "num2",
					"type": "uint256"
				},
				{
					"indexed": false,
					"internalType": "uint256",
					"name": "result",
					"type": "uint256"
				}
			],
			"name": "Average",
			"type": "event"
		},
		{
			"anonymous": false,
			"inputs": [
				{
					"indexed": false,
					"internalType": "uint256",
					"name": "num1",
					"type": "uint256"
				},
				{
					"indexed": false,
					"internalType": "uint256",
					"name": "num2",
					"type": "uint256"
				},
				{
					"indexed": false,
					"internalType": "uint256",
					"name": "result",
					"type": "uint256"
				}
			],
			"name": "Division",
			"type": "event"
		},
		{
			"anonymous": false,
			"inputs": [
				{
					"indexed": false,
					"internalType": "uint256",
					"name": "num1",
					"type": "uint256"
				},
				{
					"indexed": false,
					"internalType": "uint256",
					"name": "num2",
					"type": "uint256"
				},
				{
					"indexed": false,
					"internalType": "uint256",
					"name": "result",
					"type": "uint256"
				}
			],
			"name": "Exponent",
			"type": "event"
		},
		{
			"anonymous": false,
			"inputs": [
				{
					"indexed": false,
					"internalType": "uint256",
					"name": "num1",
					"type": "uint256"
				},
				{
					"indexed": false,
					"internalType": "uint256",
					"name": "num2",
					"type": "uint256"
				},
				{
					"indexed": false,
					"internalType": "uint256",
					"name": "result",
					"type": "uint256"
				}
			],
			"name": "Maximum",
			"type": "event"
		},
		{
			"anonymous": false,
			"inputs": [
				{
					"indexed": false,
					"internalType": "uint256",
					"name": "num1",
					"type": "uint256"
				},
				{
					"indexed": false,
					"internalType": "uint256",
					"name": "num2",
					"type": "uint256"
				},
				{
					"indexed": false,
					"internalType": "uint256",
					"name": "result",
					"type": "uint256"
				}
			],
			"name": "Module",
			"type": "event"
		},
		{
			"anonymous": false,
			"inputs": [
				{
					"indexed": false,
					"internalType": "uint256",
					"name": "num1",
					"type": "uint256"
				},
				{
					"indexed": false,
					"internalType": "uint256",
					"name": "num2",
					"type": "uint256"
				},
				{
					"indexed": false,
					"internalType": "uint256",
					"name": "result",
					"type": "uint256"
				}
			],
			"name": "Multiplication",
			"type": "event"
		},
		{
			"anonymous": false,
			"inputs": [
				{
					"indexed": false,
					"internalType": "uint256",
					"name": "num1",
					"type": "uint256"
				},
				{
					"indexed": false,
					"internalType": "uint256",
					"name": "result",
					"type": "uint256"
				}
			],
			"name": "Sqrt",
			"type": "event"
		},
		{
			"anonymous": false,
			"inputs": [
				{
					"indexed": false,
					"internalType": "uint256",
					"name": "num1",
					"type": "uint256"
				},
				{
					"indexed": false,
					"internalType": "uint256",
					"name": "num2",
					"type": "uint256"
				},
				{
					"indexed": false,
					"internalType": "uint256",
					"name": "result",
					"type": "uint256"
				}
			],
			"name": "Substraction",
			"type": "event"
		},
		{
			"anonymous": false,
			"inputs": [
				{
					"indexed": false,
					"internalType": "uint256",
					"name": "num1",
					"type": "uint256"
				},
				{
					"indexed": false,
					"internalType": "uint256",
					"name": "num2",
					"type": "uint256"
				},
				{
					"indexed": false,
					"internalType": "uint256",
					"name": "result",
					"type": "uint256"
				}
			],
			"name": "Sum",
			"type": "event"
		},
		{
			"inputs": [
				{
					"internalType": "uint256",
					"name": "num1_",
					"type": "uint256"
				},
				{
					"internalType": "uint256",
					"name": "num2_",
					"type": "uint256"
				}
			],
			"name": "average",
			"outputs": [
				{
					"internalType": "uint256",
					"name": "result_",
					"type": "uint256"
				}
			],
			"stateMutability": "nonpayable",
			"type": "function"
		},
		{
			"inputs": [
				{
					"internalType": "uint256",
					"name": "num1_",
					"type": "uint256"
				},
				{
					"internalType": "uint256",
					"name": "num2_",
					"type": "uint256"
				}
			],
			"name": "division",
			"outputs": [
				{
					"internalType": "uint256",
					"name": "result_",
					"type": "uint256"
				}
			],
			"stateMutability": "nonpayable",
			"type": "function"
		},
		{
			"inputs": [
				{
					"internalType": "uint256",
					"name": "num1_",
					"type": "uint256"
				},
				{
					"internalType": "uint256",
					"name": "num2_",
					"type": "uint256"
				}
			],
			"name": "exponent",
			"outputs": [
				{
					"internalType": "uint256",
					"name": "result_",
					"type": "uint256"
				}
			],
			"stateMutability": "nonpayable",
			"type": "function"
		},
		{
			"inputs": [
				{
					"internalType": "uint256",
					"name": "num1_",
					"type": "uint256"
				},
				{
					"internalType": "uint256",
					"name": "num2_",
					"type": "uint256"
				}
			],
			"name": "maximum",
			"outputs": [
				{
					"internalType": "uint256",
					"name": "result_",
					"type": "uint256"
				}
			],
			"stateMutability": "nonpayable",
			"type": "function"
		},
		{
			"inputs": [
				{
					"internalType": "uint256",
					"name": "num1_",
					"type": "uint256"
				},
				{
					"internalType": "uint256",
					"name": "num2_",
					"type": "uint256"
				}
			],
			"name": "module",
			"outputs": [
				{
					"internalType": "uint256",
					"name": "result_",
					"type": "uint256"
				}
			],
			"stateMutability": "nonpayable",
			"type": "function"
		},
		{
			"inputs": [
				{
					"internalType": "uint256",
					"name": "num1_",
					"type": "uint256"
				}
			],
			"name": "multiplier",
			"outputs": [],
			"stateMutability": "nonpayable",
			"type": "function"
		},
		{
			"inputs": [
				{
					"internalType": "uint256",
					"name": "num1_",
					"type": "uint256"
				},
				{
					"internalType": "uint256",
					"name": "num2_",
					"type": "uint256"
				}
			],
			"name": "multiplier2",
			"outputs": [
				{
					"internalType": "uint256",
					"name": "result_",
					"type": "uint256"
				}
			],
			"stateMutability": "nonpayable",
			"type": "function"
		},
		{
			"inputs": [],
			"name": "result",
			"outputs": [
				{
					"internalType": "uint256",
					"name": "",
					"type": "uint256"
				}
			],
			"stateMutability": "view",
			"type": "function"
		},
		{
			"inputs": [
				{
					"internalType": "uint256",
					"name": "num1_",
					"type": "uint256"
				}
			],
			"name": "sqrt",
			"outputs": [
				{
					"internalType": "uint256",
					"name": "result_",
					"type": "uint256"
				}
			],
			"stateMutability": "nonpayable",
			"type": "function"
		},
		{
			"inputs": [
				{
					"internalType": "uint256",
					"name": "num1_",
					"type": "uint256"
				},
				{
					"internalType": "uint256",
					"name": "num2_",
					"type": "uint256"
				}
			],
			"name": "substraction",
			"outputs": [
				{
					"internalType": "uint256",
					"name": "result_",
					"type": "uint256"
				}
			],
			"stateMutability": "nonpayable",
			"type": "function"
		},
		{
			"inputs": [
				{
					"internalType": "int256",
					"name": "num1_",
					"type": "int256"
				},
				{
					"internalType": "int256",
					"name": "num2_",
					"type": "int256"
				}
			],
			"name": "substraction2",
			"outputs": [
				{
					"internalType": "int256",
					"name": "result_",
					"type": "int256"
				}
			],
			"stateMutability": "pure",
			"type": "function"
		},
		{
			"inputs": [
				{
					"internalType": "uint256",
					"name": "num1_",
					"type": "uint256"
				},
				{
					"internalType": "uint256",
					"name": "num2_",
					"type": "uint256"
				}
			],
			"name": "sum",
			"outputs": [
				{
					"internalType": "uint256",
					"name": "result_",
					"type": "uint256"
				}
			],
			"stateMutability": "nonpayable",
			"type": "function"
		}
	]
}